{
  "contractName": "CharityRole",
  "abi": [
    {
      "constant": true,
      "inputs": [],
      "name": "getOwner",
      "outputs": [
        {
          "name": "",
          "type": "address"
        }
      ],
      "payable": false,
      "stateMutability": "view",
      "type": "function"
    },
    {
      "constant": true,
      "inputs": [],
      "name": "isOwner",
      "outputs": [
        {
          "name": "",
          "type": "bool"
        }
      ],
      "payable": false,
      "stateMutability": "view",
      "type": "function"
    },
    {
      "inputs": [
        {
          "name": "_ownable",
          "type": "address"
        }
      ],
      "payable": false,
      "stateMutability": "nonpayable",
      "type": "constructor"
    },
    {
      "constant": false,
      "inputs": [
        {
          "name": "_ownable",
          "type": "address"
        }
      ],
      "name": "setOwnable",
      "outputs": [],
      "payable": false,
      "stateMutability": "nonpayable",
      "type": "function"
    },
    {
      "constant": false,
      "inputs": [
        {
          "name": "_charity",
          "type": "address"
        }
      ],
      "name": "setCharity",
      "outputs": [],
      "payable": true,
      "stateMutability": "payable",
      "type": "function"
    },
    {
      "constant": true,
      "inputs": [],
      "name": "getCharity",
      "outputs": [
        {
          "name": "",
          "type": "address"
        }
      ],
      "payable": false,
      "stateMutability": "view",
      "type": "function"
    },
    {
      "constant": true,
      "inputs": [],
      "name": "isCharity",
      "outputs": [
        {
          "name": "",
          "type": "bool"
        }
      ],
      "payable": false,
      "stateMutability": "view",
      "type": "function"
    },
    {
      "constant": false,
      "inputs": [],
      "name": "payout",
      "outputs": [],
      "payable": true,
      "stateMutability": "payable",
      "type": "function"
    }
  ],
  "bytecode": "0x608060405260008060146101000a81548160ff0219169083151502179055506000600260146101000a81548160ff02191690831515021790555034801561004557600080fd5b506040516020806105f083398101806040528101908080519060200190929190505050336000806101000a81548173ffffffffffffffffffffffffffffffffffffffff021916908373ffffffffffffffffffffffffffffffffffffffff16021790555033600160006101000a81548173ffffffffffffffffffffffffffffffffffffffff021916908373ffffffffffffffffffffffffffffffffffffffff16021790555080600360006101000a81548173ffffffffffffffffffffffffffffffffffffffff021916908373ffffffffffffffffffffffffffffffffffffffff160217905550506104b68061013a6000396000f300608060405260043610610083576000357c0100000000000000000000000000000000000000000000000000000000900463ffffffff16806363bd1d4a146100885780636d7932d114610092578063893d20e8146100c15780638f32d59b14610118578063c4618d1814610147578063d6f5ef0e1461018a578063fb6f71a3146101e1575b600080fd5b610090610217565b005b34801561009e57600080fd5b506100a76102ac565b604051808215151515815260200191505060405180910390f35b3480156100cd57600080fd5b506100d6610304565b604051808273ffffffffffffffffffffffffffffffffffffffff1673ffffffffffffffffffffffffffffffffffffffff16815260200191505060405180910390f35b34801561012457600080fd5b5061012d610340565b604051808215151515815260200191505060405180910390f35b34801561015357600080fd5b50610188600480360381019080803573ffffffffffffffffffffffffffffffffffffffff169060200190929190505050610397565b005b34801561019657600080fd5b5061019f6103db565b604051808273ffffffffffffffffffffffffffffffffffffffff1673ffffffffffffffffffffffffffffffffffffffff16815260200191505060405180910390f35b610215600480360381019080803573ffffffffffffffffffffffffffffffffffffffff169060200190929190505050610418565b005b61021f610340565b151561022a57600080fd5b600160009054906101000a900473ffffffffffffffffffffffffffffffffffffffff1673ffffffffffffffffffffffffffffffffffffffff166108fc3073ffffffffffffffffffffffffffffffffffffffff16319081150290604051600060405180830381858888f193505050501580156102a9573d6000803e3d6000fd5b50565b6000600260009054906101000a900473ffffffffffffffffffffffffffffffffffffffff1673ffffffffffffffffffffffffffffffffffffffff163373ffffffffffffffffffffffffffffffffffffffff1614905090565b600061030e610340565b151561031957600080fd5b6000809054906101000a900473ffffffffffffffffffffffffffffffffffffffff16905090565b60008060009054906101000a900473ffffffffffffffffffffffffffffffffffffffff1673ffffffffffffffffffffffffffffffffffffffff163373ffffffffffffffffffffffffffffffffffffffff1614905090565b80600360006101000a81548173ffffffffffffffffffffffffffffffffffffffff021916908373ffffffffffffffffffffffffffffffffffffffff16021790555050565b60006103e5610340565b15156103f057600080fd5b600260009054906101000a900473ffffffffffffffffffffffffffffffffffffffff16905090565b610420610340565b151561042b57600080fd5b80600260006101000a81548173ffffffffffffffffffffffffffffffffffffffff021916908373ffffffffffffffffffffffffffffffffffffffff1602179055506001600260146101000a81548160ff021916908315150217905550505600a165627a7a72305820042f52e9061ce6696e8fe8714b878637f40c275e5f1690a6cf23194c46619e4b0029",
  "source": "pragma solidity ^0.4.24;\r\n\r\n// TODO - use this as the boilerplate for owner, charity, lottery, donor role files\r\n// TODO - check requirements and explanation for each directory: https://classroom.udacity.com/nanodegrees/nd1309-beta/parts/03713f8a-c233-479e-9105-9809fb260489/modules/b32541ea-7b86-4689-b42a-7ba8c2689905/lessons/da5331bc-e6ae-4372-b18a-71fa7cc77b67/concepts/25b82382-c290-4289-8ac5-d948aad0a349\r\n\r\nimport \"../core/Ownable.sol\";\r\n\r\n// TODO - deploy this, and grab address\r\n// Define a contract 'CharityRole' to manage this role - checks if address is parent contracts charity\r\ncontract CharityRole is Ownable{\r\n\r\n  address private Owner;\r\n  address private Charity;\r\n  bool private initialized = false;\r\n  Ownable private OwnableInstance;\r\n\r\n  // adds ownable library to the contract\r\n  constructor(address _ownable) public {\r\n    Owner = msg.sender;\r\n    OwnableInstance = Ownable(_ownable);\r\n  }\r\n\r\n  // can be restricted to pure, not sure what that means yet\r\n  function setOwnable(address _ownable) public {\r\n    OwnableInstance = Ownable(_ownable);\r\n  }\r\n\r\n  function setCharity(address _charity) onlyOwner public payable {\r\n\r\n    Charity = _charity;\r\n    initialized = true;\r\n  }\r\n\r\n  function getCharity() onlyOwner public view returns (address){\r\n\r\n    return Charity;\r\n\r\n  }\r\n\r\n  // could be refactored into a util library\r\n  modifier onlyCharity{\r\n    require(isCharity());\r\n    _;\r\n  }\r\n\r\n  modifier notCharity{\r\n    require(!isCharity());\r\n    _;\r\n  }\r\n\r\n  function isCharity() public view returns (bool){\r\n\r\n    return msg.sender == Charity;\r\n  }\r\n\r\n  function payout() onlyOwner public payable{\r\n    Owner.transfer(address(this).balance);\r\n  }\r\n}",
  "sourcePath": "D:\\Documents\\School\\Share\\ethereum\\contracts\\accesscontrol\\CharityRole.sol",
  "compiler": {
    "name": "solc",
    "version": "0.4.25+commit.59dbf8f1.Emscripten.clang"
  },
  "schemaVersion": "2.0.2",
  "updatedAt": "2019-03-27T05:10:02.521Z"
}