{
  "contractName": "CharityRole",
  "abi": [
    {
      "inputs": [
        {
          "name": "_ownable",
          "type": "address"
        }
      ],
      "payable": false,
      "stateMutability": "nonpayable",
      "type": "constructor"
    },
    {
      "constant": false,
      "inputs": [
        {
          "name": "_charity",
          "type": "address"
        },
        {
          "name": "_sender",
          "type": "address"
        }
      ],
      "name": "setCharity",
      "outputs": [],
      "payable": true,
      "stateMutability": "payable",
      "type": "function"
    },
    {
      "constant": true,
      "inputs": [
        {
          "name": "_sender",
          "type": "address"
        }
      ],
      "name": "getCharity",
      "outputs": [
        {
          "name": "",
          "type": "address"
        }
      ],
      "payable": false,
      "stateMutability": "view",
      "type": "function"
    },
    {
      "constant": true,
      "inputs": [],
      "name": "isCharity",
      "outputs": [
        {
          "name": "",
          "type": "bool"
        }
      ],
      "payable": false,
      "stateMutability": "view",
      "type": "function"
    },
    {
      "constant": false,
      "inputs": [],
      "name": "payout",
      "outputs": [],
      "payable": true,
      "stateMutability": "payable",
      "type": "function"
    }
  ],
  "bytecode": "0x608060405234801561001057600080fd5b5060405160208061071e8339810180604052810190808051906020019092919050505080600160006101000a81548173ffffffffffffffffffffffffffffffffffffffff021916908373ffffffffffffffffffffffffffffffffffffffff1602179055505061069a806100846000396000f300608060405260043610610062576000357c0100000000000000000000000000000000000000000000000000000000900463ffffffff1680631bf230cd146100675780633fc70277146100ea57806363bd1d4a146101405780636d7932d11461014a575b600080fd5b34801561007357600080fd5b506100a8600480360381019080803573ffffffffffffffffffffffffffffffffffffffff169060200190929190505050610179565b604051808273ffffffffffffffffffffffffffffffffffffffff1673ffffffffffffffffffffffffffffffffffffffff16815260200191505060405180910390f35b61013e600480360381019080803573ffffffffffffffffffffffffffffffffffffffff169060200190929190803573ffffffffffffffffffffffffffffffffffffffff1690602001909291905050506102a7565b005b6101486103ee565b005b34801561015657600080fd5b5061015f610617565b604051808215151515815260200191505060405180910390f35b6000600160009054906101000a900473ffffffffffffffffffffffffffffffffffffffff1673ffffffffffffffffffffffffffffffffffffffff16632f54bf6e836040518263ffffffff167c0100000000000000000000000000000000000000000000000000000000028152600401808273ffffffffffffffffffffffffffffffffffffffff1673ffffffffffffffffffffffffffffffffffffffff168152602001915050602060405180830381600087803b15801561023857600080fd5b505af115801561024c573d6000803e3d6000fd5b505050506040513d602081101561026257600080fd5b8101908080519060200190929190505050151561027e57600080fd5b6000809054906101000a900473ffffffffffffffffffffffffffffffffffffffff169050919050565b600160009054906101000a900473ffffffffffffffffffffffffffffffffffffffff1673ffffffffffffffffffffffffffffffffffffffff16632f54bf6e826040518263ffffffff167c0100000000000000000000000000000000000000000000000000000000028152600401808273ffffffffffffffffffffffffffffffffffffffff1673ffffffffffffffffffffffffffffffffffffffff168152602001915050602060405180830381600087803b15801561036457600080fd5b505af1158015610378573d6000803e3d6000fd5b505050506040513d602081101561038e57600080fd5b810190808051906020019092919050505015156103aa57600080fd5b816000806101000a81548173ffffffffffffffffffffffffffffffffffffffff021916908373ffffffffffffffffffffffffffffffffffffffff1602179055505050565b6000600160009054906101000a900473ffffffffffffffffffffffffffffffffffffffff1673ffffffffffffffffffffffffffffffffffffffff16632f54bf6e336040518263ffffffff167c0100000000000000000000000000000000000000000000000000000000028152600401808273ffffffffffffffffffffffffffffffffffffffff1673ffffffffffffffffffffffffffffffffffffffff168152602001915050602060405180830381600087803b1580156104ad57600080fd5b505af11580156104c1573d6000803e3d6000fd5b505050506040513d60208110156104d757600080fd5b810190808051906020019092919050505015156104f357600080fd5b600160009054906101000a900473ffffffffffffffffffffffffffffffffffffffff1673ffffffffffffffffffffffffffffffffffffffff1663893d20e86040518163ffffffff167c0100000000000000000000000000000000000000000000000000000000028152600401602060405180830381600087803b15801561057957600080fd5b505af115801561058d573d6000803e3d6000fd5b505050506040513d60208110156105a357600080fd5b810190808051906020019092919050505090508073ffffffffffffffffffffffffffffffffffffffff166108fc3073ffffffffffffffffffffffffffffffffffffffff16319081150290604051600060405180830381858888f19350505050158015610613573d6000803e3d6000fd5b5050565b60008060009054906101000a900473ffffffffffffffffffffffffffffffffffffffff1673ffffffffffffffffffffffffffffffffffffffff163373ffffffffffffffffffffffffffffffffffffffff16149050905600a165627a7a7230582084b82d24f2abd0cc39890029453a04e0fa3cefa6f9bc7143450918b223d622ae0029",
  "source": "pragma solidity ^0.4.24;\r\n\r\n// TODO - use this as the boilerplate for owner, charity, lottery, donor role files\r\n// TODO - check requirements and explanation for each directory: https://classroom.udacity.com/nanodegrees/nd1309-beta/parts/03713f8a-c233-479e-9105-9809fb260489/modules/b32541ea-7b86-4689-b42a-7ba8c2689905/lessons/da5331bc-e6ae-4372-b18a-71fa7cc77b67/concepts/25b82382-c290-4289-8ac5-d948aad0a349\r\n\r\nimport \"../accesscontrol/OwnerRole.sol\";\r\n\r\n// TODO - deploy this, and grab address\r\n// Define a contract 'CharityRole' to manage this role - checks if address is parent contracts charity\r\ncontract CharityRole {\r\n\r\n  address private Charity;\r\n  OwnerRole private ownerRole;\r\n\r\n  // adds ownerRole library to the contract\r\n  constructor(address _ownable) public {\r\n    ownerRole = OwnerRole(_ownable);\r\n  }\r\n\r\n  function setCharity(address _charity, address _sender) public payable {\r\n\r\n    // can't use modifiers with imported contracts, if importing instance to my knowledge\r\n    require(ownerRole.isOwner(_sender));\r\n    Charity = _charity;\r\n  }\r\n\r\n  function getCharity(address _sender) public view returns (address){\r\n    require(ownerRole.isOwner(_sender));\r\n    return Charity;\r\n\r\n  }\r\n\r\n  // could be refactored into a util library\r\n  modifier onlyCharity{\r\n    require(isCharity());\r\n    _;\r\n  }\r\n\r\n  modifier notCharity{\r\n    require(!isCharity());\r\n    _;\r\n  }\r\n\r\n  function isCharity() public view returns (bool){\r\n\r\n    return msg.sender == Charity;\r\n  }\r\n\r\n  function payout() public payable{\r\n    require(ownerRole.isOwner(msg.sender));\r\n    address Owner = ownerRole.getOwner();\r\n    Owner.transfer(address(this).balance);\r\n  }\r\n}",
  "sourcePath": "D:\\Documents\\School\\Share\\ethereum\\contracts\\accesscontrol\\CharityRole.sol",
  "compiler": {
    "name": "solc",
    "version": "0.4.25+commit.59dbf8f1.Emscripten.clang"
  },
  "schemaVersion": "2.0.2",
  "updatedAt": "2019-04-28T20:19:38.420Z"
}