{
  "contractName": "CharityRole",
  "abi": [
    {
      "inputs": [
        {
          "name": "_ownable",
          "type": "address"
        }
      ],
      "payable": false,
      "stateMutability": "nonpayable",
      "type": "constructor"
    },
    {
      "constant": false,
      "inputs": [
        {
          "name": "_ownable",
          "type": "address"
        }
      ],
      "name": "setOwnable",
      "outputs": [],
      "payable": false,
      "stateMutability": "nonpayable",
      "type": "function"
    },
    {
      "constant": false,
      "inputs": [
        {
          "name": "_charity",
          "type": "address"
        },
        {
          "name": "_sender",
          "type": "address"
        }
      ],
      "name": "setCharity",
      "outputs": [],
      "payable": true,
      "stateMutability": "payable",
      "type": "function"
    },
    {
      "constant": true,
      "inputs": [
        {
          "name": "_sender",
          "type": "address"
        }
      ],
      "name": "getCharity",
      "outputs": [
        {
          "name": "",
          "type": "address"
        }
      ],
      "payable": false,
      "stateMutability": "view",
      "type": "function"
    },
    {
      "constant": true,
      "inputs": [],
      "name": "isCharity",
      "outputs": [
        {
          "name": "",
          "type": "bool"
        }
      ],
      "payable": false,
      "stateMutability": "view",
      "type": "function"
    },
    {
      "constant": false,
      "inputs": [],
      "name": "payout",
      "outputs": [],
      "payable": true,
      "stateMutability": "payable",
      "type": "function"
    }
  ],
  "bytecode": "0x608060405234801561001057600080fd5b506040516020806107b08339810180604052810190808051906020019092919050505080600160006101000a81548173ffffffffffffffffffffffffffffffffffffffff021916908373ffffffffffffffffffffffffffffffffffffffff1602179055505061072c806100846000396000f30060806040526004361061006d576000357c0100000000000000000000000000000000000000000000000000000000900463ffffffff1680631bf230cd146100725780633fc70277146100f557806363bd1d4a1461014b5780636d7932d114610155578063c4618d1814610184575b600080fd5b34801561007e57600080fd5b506100b3600480360381019080803573ffffffffffffffffffffffffffffffffffffffff1690602001909291905050506101c7565b604051808273ffffffffffffffffffffffffffffffffffffffff1673ffffffffffffffffffffffffffffffffffffffff16815260200191505060405180910390f35b610149600480360381019080803573ffffffffffffffffffffffffffffffffffffffff169060200190929190803573ffffffffffffffffffffffffffffffffffffffff1690602001909291905050506102f5565b005b61015361043c565b005b34801561016157600080fd5b5061016a610665565b604051808215151515815260200191505060405180910390f35b34801561019057600080fd5b506101c5600480360381019080803573ffffffffffffffffffffffffffffffffffffffff1690602001909291905050506106bc565b005b6000600160009054906101000a900473ffffffffffffffffffffffffffffffffffffffff1673ffffffffffffffffffffffffffffffffffffffff16632f54bf6e836040518263ffffffff167c0100000000000000000000000000000000000000000000000000000000028152600401808273ffffffffffffffffffffffffffffffffffffffff1673ffffffffffffffffffffffffffffffffffffffff168152602001915050602060405180830381600087803b15801561028657600080fd5b505af115801561029a573d6000803e3d6000fd5b505050506040513d60208110156102b057600080fd5b810190808051906020019092919050505015156102cc57600080fd5b6000809054906101000a900473ffffffffffffffffffffffffffffffffffffffff169050919050565b600160009054906101000a900473ffffffffffffffffffffffffffffffffffffffff1673ffffffffffffffffffffffffffffffffffffffff16632f54bf6e826040518263ffffffff167c0100000000000000000000000000000000000000000000000000000000028152600401808273ffffffffffffffffffffffffffffffffffffffff1673ffffffffffffffffffffffffffffffffffffffff168152602001915050602060405180830381600087803b1580156103b257600080fd5b505af11580156103c6573d6000803e3d6000fd5b505050506040513d60208110156103dc57600080fd5b810190808051906020019092919050505015156103f857600080fd5b816000806101000a81548173ffffffffffffffffffffffffffffffffffffffff021916908373ffffffffffffffffffffffffffffffffffffffff1602179055505050565b6000600160009054906101000a900473ffffffffffffffffffffffffffffffffffffffff1673ffffffffffffffffffffffffffffffffffffffff16632f54bf6e336040518263ffffffff167c0100000000000000000000000000000000000000000000000000000000028152600401808273ffffffffffffffffffffffffffffffffffffffff1673ffffffffffffffffffffffffffffffffffffffff168152602001915050602060405180830381600087803b1580156104fb57600080fd5b505af115801561050f573d6000803e3d6000fd5b505050506040513d602081101561052557600080fd5b8101908080519060200190929190505050151561054157600080fd5b600160009054906101000a900473ffffffffffffffffffffffffffffffffffffffff1673ffffffffffffffffffffffffffffffffffffffff1663893d20e86040518163ffffffff167c0100000000000000000000000000000000000000000000000000000000028152600401602060405180830381600087803b1580156105c757600080fd5b505af11580156105db573d6000803e3d6000fd5b505050506040513d60208110156105f157600080fd5b810190808051906020019092919050505090508073ffffffffffffffffffffffffffffffffffffffff166108fc3073ffffffffffffffffffffffffffffffffffffffff16319081150290604051600060405180830381858888f19350505050158015610661573d6000803e3d6000fd5b5050565b60008060009054906101000a900473ffffffffffffffffffffffffffffffffffffffff1673ffffffffffffffffffffffffffffffffffffffff163373ffffffffffffffffffffffffffffffffffffffff1614905090565b80600160006101000a81548173ffffffffffffffffffffffffffffffffffffffff021916908373ffffffffffffffffffffffffffffffffffffffff160217905550505600a165627a7a72305820d5d05354596feeebb028ff19cf64e7bf068f892b4312e7cf8c04c154c201c76e0029",
  "source": "pragma solidity ^0.4.24;\r\n\r\n// TODO - use this as the boilerplate for owner, charity, lottery, donor role files\r\n// TODO - check requirements and explanation for each directory: https://classroom.udacity.com/nanodegrees/nd1309-beta/parts/03713f8a-c233-479e-9105-9809fb260489/modules/b32541ea-7b86-4689-b42a-7ba8c2689905/lessons/da5331bc-e6ae-4372-b18a-71fa7cc77b67/concepts/25b82382-c290-4289-8ac5-d948aad0a349\r\n\r\nimport \"../core/Ownable.sol\";\r\n\r\n// TODO - deploy this, and grab address\r\n// Define a contract 'CharityRole' to manage this role - checks if address is parent contracts charity\r\ncontract CharityRole {\r\n\r\n  address private Charity;\r\n  Ownable private ownableContract;\r\n\r\n  // adds ownableContract library to the contract\r\n  constructor(address _ownable) public {\r\n    ownableContract = Ownable(_ownable);\r\n  }\r\n\r\n  // can be restricted to pure, not sure what that means yet\r\n  function setOwnable(address _ownable) public {\r\n    ownableContract = Ownable(_ownable);\r\n  }\r\n\r\n  function setCharity(address _charity, address _sender) public payable {\r\n\r\n    // can't use modifiers with imported contracts, if importing instance to my knowledge\r\n    require(ownableContract.isOwner(_sender));\r\n    Charity = _charity;\r\n  }\r\n\r\n  function getCharity(address _sender) public view returns (address){\r\n    require(ownableContract.isOwner(_sender));\r\n    return Charity;\r\n\r\n  }\r\n\r\n  // could be refactored into a util library\r\n  modifier onlyCharity{\r\n    require(isCharity());\r\n    _;\r\n  }\r\n\r\n  modifier notCharity{\r\n    require(!isCharity());\r\n    _;\r\n  }\r\n\r\n  function isCharity() public view returns (bool){\r\n\r\n    return msg.sender == Charity;\r\n  }\r\n\r\n  function payout() public payable{\r\n    require(ownableContract.isOwner(msg.sender));\r\n    address Owner = ownableContract.getOwner();\r\n    Owner.transfer(address(this).balance);\r\n  }\r\n}",
  "sourcePath": "D:\\Documents\\School\\Share\\ethereum\\contracts\\accesscontrol\\CharityRole.sol",
  "compiler": {
    "name": "solc",
    "version": "0.4.25+commit.59dbf8f1.Emscripten.clang"
  },
  "schemaVersion": "2.0.2",
  "updatedAt": "2019-03-29T01:42:25.866Z"
}