{
  "contractName": "CharityRole",
  "abi": [
    {
      "inputs": [
        {
          "name": "_ownable",
          "type": "address"
        }
      ],
      "payable": false,
      "stateMutability": "nonpayable",
      "type": "constructor"
    },
    {
      "constant": false,
      "inputs": [
        {
          "name": "_ownable",
          "type": "address"
        }
      ],
      "name": "setOwnable",
      "outputs": [],
      "payable": false,
      "stateMutability": "nonpayable",
      "type": "function"
    },
    {
      "constant": false,
      "inputs": [
        {
          "name": "_charity",
          "type": "address"
        }
      ],
      "name": "setCharity",
      "outputs": [],
      "payable": true,
      "stateMutability": "payable",
      "type": "function"
    },
    {
      "constant": true,
      "inputs": [],
      "name": "getCharity",
      "outputs": [
        {
          "name": "",
          "type": "address"
        }
      ],
      "payable": false,
      "stateMutability": "view",
      "type": "function"
    },
    {
      "constant": true,
      "inputs": [],
      "name": "isCharity",
      "outputs": [
        {
          "name": "",
          "type": "bool"
        }
      ],
      "payable": false,
      "stateMutability": "view",
      "type": "function"
    },
    {
      "constant": false,
      "inputs": [],
      "name": "payout",
      "outputs": [],
      "payable": true,
      "stateMutability": "payable",
      "type": "function"
    }
  ],
  "bytecode": "0x60806040526000600160146101000a81548160ff02191690831515021790555034801561002b57600080fd5b5060405160208061068f83398101806040528101908080519060200190929190505050336000806101000a81548173ffffffffffffffffffffffffffffffffffffffff021916908373ffffffffffffffffffffffffffffffffffffffff16021790555080600260006101000a81548173ffffffffffffffffffffffffffffffffffffffff021916908373ffffffffffffffffffffffffffffffffffffffff160217905550506105b0806100df6000396000f30060806040526004361061006d576000357c0100000000000000000000000000000000000000000000000000000000900463ffffffff16806363bd1d4a146100725780636d7932d11461007c578063c4618d18146100ab578063d6f5ef0e146100ee578063fb6f71a314610145575b600080fd5b61007a61017b565b005b34801561008857600080fd5b506100916102c8565b604051808215151515815260200191505060405180910390f35b3480156100b757600080fd5b506100ec600480360381019080803573ffffffffffffffffffffffffffffffffffffffff169060200190929190505050610320565b005b3480156100fa57600080fd5b50610103610364565b604051808273ffffffffffffffffffffffffffffffffffffffff1673ffffffffffffffffffffffffffffffffffffffff16815260200191505060405180910390f35b610179600480360381019080803573ffffffffffffffffffffffffffffffffffffffff16906020019092919050505061045a565b005b600260009054906101000a900473ffffffffffffffffffffffffffffffffffffffff1673ffffffffffffffffffffffffffffffffffffffff16638f32d59b6040518163ffffffff167c0100000000000000000000000000000000000000000000000000000000028152600401602060405180830381600087803b15801561020157600080fd5b505af1158015610215573d6000803e3d6000fd5b505050506040513d602081101561022b57600080fd5b8101908080519060200190929190505050151561024757600080fd5b6000809054906101000a900473ffffffffffffffffffffffffffffffffffffffff1673ffffffffffffffffffffffffffffffffffffffff166108fc3073ffffffffffffffffffffffffffffffffffffffff16319081150290604051600060405180830381858888f193505050501580156102c5573d6000803e3d6000fd5b50565b6000600160009054906101000a900473ffffffffffffffffffffffffffffffffffffffff1673ffffffffffffffffffffffffffffffffffffffff163373ffffffffffffffffffffffffffffffffffffffff1614905090565b80600260006101000a81548173ffffffffffffffffffffffffffffffffffffffff021916908373ffffffffffffffffffffffffffffffffffffffff16021790555050565b6000600260009054906101000a900473ffffffffffffffffffffffffffffffffffffffff1673ffffffffffffffffffffffffffffffffffffffff16638f32d59b6040518163ffffffff167c0100000000000000000000000000000000000000000000000000000000028152600401602060405180830381600087803b1580156103ec57600080fd5b505af1158015610400573d6000803e3d6000fd5b505050506040513d602081101561041657600080fd5b8101908080519060200190929190505050151561043257600080fd5b600160009054906101000a900473ffffffffffffffffffffffffffffffffffffffff16905090565b600260009054906101000a900473ffffffffffffffffffffffffffffffffffffffff1673ffffffffffffffffffffffffffffffffffffffff16638f32d59b6040518163ffffffff167c0100000000000000000000000000000000000000000000000000000000028152600401602060405180830381600087803b1580156104e057600080fd5b505af11580156104f4573d6000803e3d6000fd5b505050506040513d602081101561050a57600080fd5b8101908080519060200190929190505050151561052657600080fd5b80600160006101000a81548173ffffffffffffffffffffffffffffffffffffffff021916908373ffffffffffffffffffffffffffffffffffffffff16021790555060018060146101000a81548160ff021916908315150217905550505600a165627a7a72305820ab9d85c10e012748156f534a771b62d6da329815735f2689c3b8da19c2e929630029",
  "source": "pragma solidity ^0.4.24;\r\n\r\n// TODO - use this as the boilerplate for owner, charity, lottery, donor role files\r\n// TODO - check requirements and explanation for each directory: https://classroom.udacity.com/nanodegrees/nd1309-beta/parts/03713f8a-c233-479e-9105-9809fb260489/modules/b32541ea-7b86-4689-b42a-7ba8c2689905/lessons/da5331bc-e6ae-4372-b18a-71fa7cc77b67/concepts/25b82382-c290-4289-8ac5-d948aad0a349\r\n\r\nimport \"../core/Ownable.sol\";\r\n\r\n// TODO - deploy this, and grab address\r\n// Define a contract 'CharityRole' to manage this role - checks if address is parent contracts charity\r\ncontract CharityRole {\r\n\r\n  address private Owner;\r\n  address private Charity;\r\n  bool private initialized = false;\r\n  Ownable private ownable;\r\n\r\n  // adds ownable library to the contract\r\n  constructor(address _ownable) public {\r\n    Owner = msg.sender;\r\n    ownable = Ownable(_ownable);\r\n  }\r\n\r\n  // can be restricted to pure, not sure what that means yet\r\n  function setOwnable(address _ownable) public {\r\n    ownable = Ownable(_ownable);\r\n  }\r\n\r\n  function setCharity(address _charity) public payable {\r\n\r\n    // can't use modifiers with imported contracts, if importing instance to my knowledge\r\n    require(ownable.isOwner());\r\n    Charity = _charity;\r\n    initialized = true;\r\n  }\r\n\r\n  function getCharity() public view returns (address){\r\n    require(ownable.isOwner());\r\n    return Charity;\r\n\r\n  }\r\n\r\n  // could be refactored into a util library\r\n  modifier onlyCharity{\r\n    require(isCharity());\r\n    _;\r\n  }\r\n\r\n  modifier notCharity{\r\n    require(!isCharity());\r\n    _;\r\n  }\r\n\r\n  function isCharity() public view returns (bool){\r\n\r\n    return msg.sender == Charity;\r\n  }\r\n\r\n  function payout() public payable{\r\n    require(ownable.isOwner());\r\n    Owner.transfer(address(this).balance);\r\n  }\r\n}",
  "sourcePath": "D:\\Documents\\School\\Share\\ethereum\\contracts\\accesscontrol\\CharityRole.sol",
  "compiler": {
    "name": "solc",
    "version": "0.4.25+commit.59dbf8f1.Emscripten.clang"
  },
  "schemaVersion": "2.0.2",
  "updatedAt": "2019-03-29T00:21:40.416Z"
}