{
  "contractName": "DonationBase",
  "abi": [
    {
      "inputs": [
        {
          "name": "_ownable",
          "type": "address"
        }
      ],
      "payable": false,
      "stateMutability": "nonpayable",
      "type": "constructor"
    },
    {
      "constant": false,
      "inputs": [
        {
          "name": "_owner",
          "type": "address"
        },
        {
          "name": "_lottery",
          "type": "address"
        },
        {
          "name": "_charity",
          "type": "address"
        },
        {
          "name": "_donor",
          "type": "address"
        },
        {
          "name": "_donationID",
          "type": "uint256"
        }
      ],
      "name": "setReceived",
      "outputs": [],
      "payable": true,
      "stateMutability": "payable",
      "type": "function"
    },
    {
      "constant": false,
      "inputs": [
        {
          "name": "_owner",
          "type": "address"
        },
        {
          "name": "_amount",
          "type": "uint256"
        },
        {
          "name": "_donationID",
          "type": "uint256"
        }
      ],
      "name": "setProcessed",
      "outputs": [],
      "payable": true,
      "stateMutability": "payable",
      "type": "function"
    },
    {
      "constant": false,
      "inputs": [
        {
          "name": "_owner",
          "type": "address"
        },
        {
          "name": "_charityAmount",
          "type": "uint256"
        },
        {
          "name": "_donationID",
          "type": "uint256"
        }
      ],
      "name": "setSentToCharity",
      "outputs": [],
      "payable": true,
      "stateMutability": "payable",
      "type": "function"
    },
    {
      "constant": false,
      "inputs": [
        {
          "name": "_owner",
          "type": "address"
        },
        {
          "name": "_lotteryAmount",
          "type": "uint256"
        },
        {
          "name": "_donationID",
          "type": "uint256"
        }
      ],
      "name": "setSentToLottery",
      "outputs": [],
      "payable": true,
      "stateMutability": "payable",
      "type": "function"
    },
    {
      "constant": false,
      "inputs": [
        {
          "name": "_owner",
          "type": "address"
        },
        {
          "name": "_ownerAmount",
          "type": "uint256"
        },
        {
          "name": "_donationID",
          "type": "uint256"
        }
      ],
      "name": "setSentToOwner",
      "outputs": [],
      "payable": true,
      "stateMutability": "payable",
      "type": "function"
    },
    {
      "constant": false,
      "inputs": [
        {
          "name": "_owner",
          "type": "address"
        },
        {
          "name": "_donationID",
          "type": "uint256"
        }
      ],
      "name": "setStored",
      "outputs": [],
      "payable": true,
      "stateMutability": "payable",
      "type": "function"
    },
    {
      "constant": false,
      "inputs": [
        {
          "name": "_owner",
          "type": "address"
        },
        {
          "name": "_lottery",
          "type": "address"
        },
        {
          "name": "_charity",
          "type": "address"
        },
        {
          "name": "_donor",
          "type": "address"
        },
        {
          "name": "_amount",
          "type": "uint256"
        },
        {
          "name": "_charityAmount",
          "type": "uint256"
        },
        {
          "name": "_lotteryAmount",
          "type": "uint256"
        },
        {
          "name": "_ownerAmount",
          "type": "uint256"
        },
        {
          "name": "_donationID",
          "type": "uint256"
        }
      ],
      "name": "setDonation",
      "outputs": [],
      "payable": true,
      "stateMutability": "payable",
      "type": "function"
    },
    {
      "constant": false,
      "inputs": [
        {
          "name": "_owner",
          "type": "address"
        },
        {
          "name": "_donor",
          "type": "address"
        },
        {
          "name": "_donationId",
          "type": "uint256"
        }
      ],
      "name": "setLottery",
      "outputs": [],
      "payable": true,
      "stateMutability": "payable",
      "type": "function"
    },
    {
      "constant": true,
      "inputs": [
        {
          "name": "_owner",
          "type": "address"
        },
        {
          "name": "_donationID",
          "type": "uint256"
        }
      ],
      "name": "getDonationOwner",
      "outputs": [
        {
          "name": "",
          "type": "address"
        }
      ],
      "payable": false,
      "stateMutability": "view",
      "type": "function"
    },
    {
      "constant": true,
      "inputs": [
        {
          "name": "_owner",
          "type": "address"
        },
        {
          "name": "_donationID",
          "type": "uint256"
        }
      ],
      "name": "getDonationLottery",
      "outputs": [
        {
          "name": "",
          "type": "address"
        }
      ],
      "payable": false,
      "stateMutability": "view",
      "type": "function"
    },
    {
      "constant": true,
      "inputs": [
        {
          "name": "_owner",
          "type": "address"
        },
        {
          "name": "_donationID",
          "type": "uint256"
        }
      ],
      "name": "getDonationCharity",
      "outputs": [
        {
          "name": "",
          "type": "address"
        }
      ],
      "payable": false,
      "stateMutability": "view",
      "type": "function"
    },
    {
      "constant": true,
      "inputs": [
        {
          "name": "_owner",
          "type": "address"
        },
        {
          "name": "_donationID",
          "type": "uint256"
        }
      ],
      "name": "getDonationDonor",
      "outputs": [
        {
          "name": "",
          "type": "address"
        }
      ],
      "payable": false,
      "stateMutability": "view",
      "type": "function"
    },
    {
      "constant": true,
      "inputs": [
        {
          "name": "_owner",
          "type": "address"
        },
        {
          "name": "_donationID",
          "type": "uint256"
        }
      ],
      "name": "getDonationAmount",
      "outputs": [
        {
          "name": "",
          "type": "uint256"
        }
      ],
      "payable": false,
      "stateMutability": "view",
      "type": "function"
    },
    {
      "constant": true,
      "inputs": [
        {
          "name": "_owner",
          "type": "address"
        },
        {
          "name": "_donationID",
          "type": "uint256"
        }
      ],
      "name": "getDonationCharityAmount",
      "outputs": [
        {
          "name": "",
          "type": "uint256"
        }
      ],
      "payable": false,
      "stateMutability": "view",
      "type": "function"
    },
    {
      "constant": true,
      "inputs": [
        {
          "name": "_owner",
          "type": "address"
        },
        {
          "name": "_donationID",
          "type": "uint256"
        }
      ],
      "name": "getDonationLotteryAmount",
      "outputs": [
        {
          "name": "",
          "type": "uint256"
        }
      ],
      "payable": false,
      "stateMutability": "view",
      "type": "function"
    },
    {
      "constant": true,
      "inputs": [
        {
          "name": "_owner",
          "type": "address"
        },
        {
          "name": "_donationID",
          "type": "uint256"
        }
      ],
      "name": "getDonationOwnerAmount",
      "outputs": [
        {
          "name": "",
          "type": "uint256"
        }
      ],
      "payable": false,
      "stateMutability": "view",
      "type": "function"
    },
    {
      "constant": true,
      "inputs": [
        {
          "name": "_owner",
          "type": "address"
        },
        {
          "name": "_donationID",
          "type": "uint256"
        }
      ],
      "name": "getDonationId",
      "outputs": [
        {
          "name": "",
          "type": "uint256"
        }
      ],
      "payable": false,
      "stateMutability": "view",
      "type": "function"
    },
    {
      "constant": true,
      "inputs": [
        {
          "name": "_owner",
          "type": "address"
        },
        {
          "name": "_donationID",
          "type": "uint256"
        }
      ],
      "name": "getDonationState",
      "outputs": [
        {
          "name": "",
          "type": "uint8"
        }
      ],
      "payable": false,
      "stateMutability": "view",
      "type": "function"
    }
  ],
  "bytecode": "0x60806040526000600360006101000a81548160ff0219169083600681111561002357fe5b021790555034801561003457600080fd5b50604051602080613a1083398101806040528101908080519060200190929190505050806000806101000a81548173ffffffffffffffffffffffffffffffffffffffff021916908373ffffffffffffffffffffffffffffffffffffffff16021790555050613969806100a76000396000f3006080604052600436106100fc576000357c0100000000000000000000000000000000000000000000000000000000900463ffffffff16806301a6625214610101578063063a4ac81461016257806310b10d56146101ef5780631c85b076146102b75780632b056a2b146103015780633de08c361461038e57806347ed2b3d146103d85780635ae78eff146104395780635e60c2f8146104c65780637e4ab5d8146105275780638a655e2e146105885780639d460ac1146105e8578063a7bac93414610632578063b74407be14610672578063bcc212ca146106ff578063cc853cf814610749578063de4e96bf146107aa578063e8a1745b14610819575b600080fd5b34801561010d57600080fd5b5061014c600480360381019080803573ffffffffffffffffffffffffffffffffffffffff169060200190929190803590602001909291905050506108b9565b6040518082815260200191505060405180910390f35b34801561016e57600080fd5b506101ad600480360381019080803573ffffffffffffffffffffffffffffffffffffffff169060200190929190803590602001909291905050506109dc565b604051808273ffffffffffffffffffffffffffffffffffffffff1673ffffffffffffffffffffffffffffffffffffffff16815260200191505060405180910390f35b6102b5600480360381019080803573ffffffffffffffffffffffffffffffffffffffff169060200190929190803573ffffffffffffffffffffffffffffffffffffffff169060200190929190803573ffffffffffffffffffffffffffffffffffffffff169060200190929190803573ffffffffffffffffffffffffffffffffffffffff1690602001909291908035906020019092919080359060200190929190803590602001909291908035906020019092919080359060200190929190505050610b1f565b005b6102ff600480360381019080803573ffffffffffffffffffffffffffffffffffffffff1690602001909291908035906020019092919080359060200190929190505050610e74565b005b34801561030d57600080fd5b5061034c600480360381019080803573ffffffffffffffffffffffffffffffffffffffff16906020019092919080359060200190929190505050611381565b604051808273ffffffffffffffffffffffffffffffffffffffff1673ffffffffffffffffffffffffffffffffffffffff16815260200191505060405180910390f35b6103d6600480360381019080803573ffffffffffffffffffffffffffffffffffffffff16906020019092919080359060200190929190803590602001909291905050506114c4565b005b3480156103e457600080fd5b50610423600480360381019080803573ffffffffffffffffffffffffffffffffffffffff169060200190929190803590602001909291905050506119dc565b6040518082815260200191505060405180910390f35b34801561044557600080fd5b50610484600480360381019080803573ffffffffffffffffffffffffffffffffffffffff16906020019092919080359060200190929190505050611aff565b604051808273ffffffffffffffffffffffffffffffffffffffff1673ffffffffffffffffffffffffffffffffffffffff16815260200191505060405180910390f35b3480156104d257600080fd5b50610511600480360381019080803573ffffffffffffffffffffffffffffffffffffffff16906020019092919080359060200190929190505050611c42565b6040518082815260200191505060405180910390f35b34801561053357600080fd5b50610572600480360381019080803573ffffffffffffffffffffffffffffffffffffffff16906020019092919080359060200190929190505050611d65565b6040518082815260200191505060405180910390f35b6105e6600480360381019080803573ffffffffffffffffffffffffffffffffffffffff169060200190929190803573ffffffffffffffffffffffffffffffffffffffff16906020019092919080359060200190929190505050611e88565b005b610630600480360381019080803573ffffffffffffffffffffffffffffffffffffffff1690602001909291908035906020019092919080359060200190929190505050611fe1565b005b610670600480360381019080803573ffffffffffffffffffffffffffffffffffffffff169060200190929190803590602001909291905050506124ee565b005b34801561067e57600080fd5b506106bd600480360381019080803573ffffffffffffffffffffffffffffffffffffffff16906020019092919080359060200190929190505050612a14565b604051808273ffffffffffffffffffffffffffffffffffffffff1673ffffffffffffffffffffffffffffffffffffffff16815260200191505060405180910390f35b610747600480360381019080803573ffffffffffffffffffffffffffffffffffffffff1690602001909291908035906020019092919080359060200190929190505050612b57565b005b34801561075557600080fd5b50610794600480360381019080803573ffffffffffffffffffffffffffffffffffffffff16906020019092919080359060200190929190505050613063565b6040518082815260200191505060405180910390f35b3480156107b657600080fd5b506107f5600480360381019080803573ffffffffffffffffffffffffffffffffffffffff16906020019092919080359060200190929190505050613186565b6040518082600681111561080557fe5b60ff16815260200191505060405180910390f35b6108b7600480360381019080803573ffffffffffffffffffffffffffffffffffffffff169060200190929190803573ffffffffffffffffffffffffffffffffffffffff169060200190929190803573ffffffffffffffffffffffffffffffffffffffff169060200190929190803573ffffffffffffffffffffffffffffffffffffffff1690602001909291908035906020019092919050505061347a565b005b60008060009054906101000a900473ffffffffffffffffffffffffffffffffffffffff1673ffffffffffffffffffffffffffffffffffffffff16632f54bf6e846040518263ffffffff167c0100000000000000000000000000000000000000000000000000000000028152600401808273ffffffffffffffffffffffffffffffffffffffff1673ffffffffffffffffffffffffffffffffffffffff168152602001915050602060405180830381600087803b15801561097757600080fd5b505af115801561098b573d6000803e3d6000fd5b505050506040513d60208110156109a157600080fd5b810190808051906020019092919050505015156109bd57600080fd5b6002600083815260200190815260200160002060060154905092915050565b60008060009054906101000a900473ffffffffffffffffffffffffffffffffffffffff1673ffffffffffffffffffffffffffffffffffffffff16632f54bf6e846040518263ffffffff167c0100000000000000000000000000000000000000000000000000000000028152600401808273ffffffffffffffffffffffffffffffffffffffff1673ffffffffffffffffffffffffffffffffffffffff168152602001915050602060405180830381600087803b158015610a9a57600080fd5b505af1158015610aae573d6000803e3d6000fd5b505050506040513d6020811015610ac457600080fd5b81019080805190602001909291905050501515610ae057600080fd5b6002600083815260200190815260200160002060020160009054906101000a900473ffffffffffffffffffffffffffffffffffffffff16905092915050565b6000809054906101000a900473ffffffffffffffffffffffffffffffffffffffff1673ffffffffffffffffffffffffffffffffffffffff16632f54bf6e8a6040518263ffffffff167c0100000000000000000000000000000000000000000000000000000000028152600401808273ffffffffffffffffffffffffffffffffffffffff1673ffffffffffffffffffffffffffffffffffffffff168152602001915050602060405180830381600087803b158015610bdb57600080fd5b505af1158015610bef573d6000803e3d6000fd5b505050506040513d6020811015610c0557600080fd5b81019080805190602001909291905050501515610c2157600080fd5b610140604051908101604052808a73ffffffffffffffffffffffffffffffffffffffff1681526020018973ffffffffffffffffffffffffffffffffffffffff1681526020018873ffffffffffffffffffffffffffffffffffffffff1681526020018773ffffffffffffffffffffffffffffffffffffffff168152602001868152602001858152602001848152602001838152602001828152602001600360009054906101000a900460ff166006811115610cd757fe5b8152506002600083815260200190815260200160002060008201518160000160006101000a81548173ffffffffffffffffffffffffffffffffffffffff021916908373ffffffffffffffffffffffffffffffffffffffff16021790555060208201518160010160006101000a81548173ffffffffffffffffffffffffffffffffffffffff021916908373ffffffffffffffffffffffffffffffffffffffff16021790555060408201518160020160006101000a81548173ffffffffffffffffffffffffffffffffffffffff021916908373ffffffffffffffffffffffffffffffffffffffff16021790555060608201518160030160006101000a81548173ffffffffffffffffffffffffffffffffffffffff021916908373ffffffffffffffffffffffffffffffffffffffff1602179055506080820151816004015560a0820151816005015560c0820151816006015560e0820151816007015561010082015181600801556101208201518160090160006101000a81548160ff02191690836006811115610e6157fe5b0217905550905050505050505050505050565b610e7c613886565b6000809054906101000a900473ffffffffffffffffffffffffffffffffffffffff1673ffffffffffffffffffffffffffffffffffffffff16632f54bf6e856040518263ffffffff167c0100000000000000000000000000000000000000000000000000000000028152600401808273ffffffffffffffffffffffffffffffffffffffff1673ffffffffffffffffffffffffffffffffffffffff168152602001915050602060405180830381600087803b158015610f3857600080fd5b505af1158015610f4c573d6000803e3d6000fd5b505050506040513d6020811015610f6257600080fd5b81019080805190602001909291905050501515610f7e57600080fd5b60036006811115610f8b57fe5b600360009054906101000a900460ff166006811115610fa657fe5b141515610fb257600080fd5b6002600083815260200190815260200160002061014060405190810160405290816000820160009054906101000a900473ffffffffffffffffffffffffffffffffffffffff1673ffffffffffffffffffffffffffffffffffffffff1673ffffffffffffffffffffffffffffffffffffffff1681526020016001820160009054906101000a900473ffffffffffffffffffffffffffffffffffffffff1673ffffffffffffffffffffffffffffffffffffffff1673ffffffffffffffffffffffffffffffffffffffff1681526020016002820160009054906101000a900473ffffffffffffffffffffffffffffffffffffffff1673ffffffffffffffffffffffffffffffffffffffff1673ffffffffffffffffffffffffffffffffffffffff1681526020016003820160009054906101000a900473ffffffffffffffffffffffffffffffffffffffff1673ffffffffffffffffffffffffffffffffffffffff1673ffffffffffffffffffffffffffffffffffffffff16815260200160048201548152602001600582015481526020016006820154815260200160078201548152602001600882015481526020016009820160009054906101000a900460ff16600681111561117a57fe5b600681111561118557fe5b815250509050600360009054906101000a900460ff1681610120019060068111156111ac57fe5b908160068111156111b957fe5b81525050828160c0018181525050806002600084815260200190815260200160002060008201518160000160006101000a81548173ffffffffffffffffffffffffffffffffffffffff021916908373ffffffffffffffffffffffffffffffffffffffff16021790555060208201518160010160006101000a81548173ffffffffffffffffffffffffffffffffffffffff021916908373ffffffffffffffffffffffffffffffffffffffff16021790555060408201518160020160006101000a81548173ffffffffffffffffffffffffffffffffffffffff021916908373ffffffffffffffffffffffffffffffffffffffff16021790555060608201518160030160006101000a81548173ffffffffffffffffffffffffffffffffffffffff021916908373ffffffffffffffffffffffffffffffffffffffff1602179055506080820151816004015560a0820151816005015560c0820151816006015560e0820151816007015561010082015181600801556101208201518160090160006101000a81548160ff0219169083600681111561134f57fe5b02179055509050506004600360006101000a81548160ff0219169083600681111561137657fe5b021790555050505050565b60008060009054906101000a900473ffffffffffffffffffffffffffffffffffffffff1673ffffffffffffffffffffffffffffffffffffffff16632f54bf6e846040518263ffffffff167c0100000000000000000000000000000000000000000000000000000000028152600401808273ffffffffffffffffffffffffffffffffffffffff1673ffffffffffffffffffffffffffffffffffffffff168152602001915050602060405180830381600087803b15801561143f57600080fd5b505af1158015611453573d6000803e3d6000fd5b505050506040513d602081101561146957600080fd5b8101908080519060200190929190505050151561148557600080fd5b6002600083815260200190815260200160002060030160009054906101000a900473ffffffffffffffffffffffffffffffffffffffff16905092915050565b6114cc613886565b6000809054906101000a900473ffffffffffffffffffffffffffffffffffffffff1673ffffffffffffffffffffffffffffffffffffffff16632f54bf6e856040518263ffffffff167c0100000000000000000000000000000000000000000000000000000000028152600401808273ffffffffffffffffffffffffffffffffffffffff1673ffffffffffffffffffffffffffffffffffffffff168152602001915050602060405180830381600087803b15801561158857600080fd5b505af115801561159c573d6000803e3d6000fd5b505050506040513d60208110156115b257600080fd5b810190808051906020019092919050505015156115ce57600080fd5b600160068111156115db57fe5b600360009054906101000a900460ff1660068111156115f657fe5b14151561160257600080fd5b6002600083815260200190815260200160002061014060405190810160405290816000820160009054906101000a900473ffffffffffffffffffffffffffffffffffffffff1673ffffffffffffffffffffffffffffffffffffffff1673ffffffffffffffffffffffffffffffffffffffff1681526020016001820160009054906101000a900473ffffffffffffffffffffffffffffffffffffffff1673ffffffffffffffffffffffffffffffffffffffff1673ffffffffffffffffffffffffffffffffffffffff1681526020016002820160009054906101000a900473ffffffffffffffffffffffffffffffffffffffff1673ffffffffffffffffffffffffffffffffffffffff1673ffffffffffffffffffffffffffffffffffffffff1681526020016003820160009054906101000a900473ffffffffffffffffffffffffffffffffffffffff1673ffffffffffffffffffffffffffffffffffffffff1673ffffffffffffffffffffffffffffffffffffffff16815260200160048201548152602001600582015481526020016006820154815260200160078201548152602001600882015481526020016009820160009054906101000a900460ff1660068111156117ca57fe5b60068111156117d557fe5b815250509050600360009054906101000a900460ff1681610120019060068111156117fc57fe5b9081600681111561180957fe5b81525050828160800181815250508181610100018181525050806002600084815260200190815260200160002060008201518160000160006101000a81548173ffffffffffffffffffffffffffffffffffffffff021916908373ffffffffffffffffffffffffffffffffffffffff16021790555060208201518160010160006101000a81548173ffffffffffffffffffffffffffffffffffffffff021916908373ffffffffffffffffffffffffffffffffffffffff16021790555060408201518160020160006101000a81548173ffffffffffffffffffffffffffffffffffffffff021916908373ffffffffffffffffffffffffffffffffffffffff16021790555060608201518160030160006101000a81548173ffffffffffffffffffffffffffffffffffffffff021916908373ffffffffffffffffffffffffffffffffffffffff1602179055506080820151816004015560a0820151816005015560c0820151816006015560e0820151816007015561010082015181600801556101208201518160090160006101000a81548160ff021916908360068111156119aa57fe5b02179055509050506002600360006101000a81548160ff021916908360068111156119d157fe5b021790555050505050565b60008060009054906101000a900473ffffffffffffffffffffffffffffffffffffffff1673ffffffffffffffffffffffffffffffffffffffff16632f54bf6e846040518263ffffffff167c0100000000000000000000000000000000000000000000000000000000028152600401808273ffffffffffffffffffffffffffffffffffffffff1673ffffffffffffffffffffffffffffffffffffffff168152602001915050602060405180830381600087803b158015611a9a57600080fd5b505af1158015611aae573d6000803e3d6000fd5b505050506040513d6020811015611ac457600080fd5b81019080805190602001909291905050501515611ae057600080fd5b6002600083815260200190815260200160002060050154905092915050565b60008060009054906101000a900473ffffffffffffffffffffffffffffffffffffffff1673ffffffffffffffffffffffffffffffffffffffff16632f54bf6e846040518263ffffffff167c0100000000000000000000000000000000000000000000000000000000028152600401808273ffffffffffffffffffffffffffffffffffffffff1673ffffffffffffffffffffffffffffffffffffffff168152602001915050602060405180830381600087803b158015611bbd57600080fd5b505af1158015611bd1573d6000803e3d6000fd5b505050506040513d6020811015611be757600080fd5b81019080805190602001909291905050501515611c0357600080fd5b6002600083815260200190815260200160002060000160009054906101000a900473ffffffffffffffffffffffffffffffffffffffff16905092915050565b60008060009054906101000a900473ffffffffffffffffffffffffffffffffffffffff1673ffffffffffffffffffffffffffffffffffffffff16632f54bf6e846040518263ffffffff167c0100000000000000000000000000000000000000000000000000000000028152600401808273ffffffffffffffffffffffffffffffffffffffff1673ffffffffffffffffffffffffffffffffffffffff168152602001915050602060405180830381600087803b158015611d0057600080fd5b505af1158015611d14573d6000803e3d6000fd5b505050506040513d6020811015611d2a57600080fd5b81019080805190602001909291905050501515611d4657600080fd5b6002600083815260200190815260200160002060080154905092915050565b60008060009054906101000a900473ffffffffffffffffffffffffffffffffffffffff1673ffffffffffffffffffffffffffffffffffffffff16632f54bf6e846040518263ffffffff167c0100000000000000000000000000000000000000000000000000000000028152600401808273ffffffffffffffffffffffffffffffffffffffff1673ffffffffffffffffffffffffffffffffffffffff168152602001915050602060405180830381600087803b158015611e2357600080fd5b505af1158015611e37573d6000803e3d6000fd5b505050506040513d6020811015611e4d57600080fd5b81019080805190602001909291905050501515611e6957600080fd5b6002600083815260200190815260200160002060040154905092915050565b6000809054906101000a900473ffffffffffffffffffffffffffffffffffffffff1673ffffffffffffffffffffffffffffffffffffffff16632f54bf6e846040518263ffffffff167c0100000000000000000000000000000000000000000000000000000000028152600401808273ffffffffffffffffffffffffffffffffffffffff1673ffffffffffffffffffffffffffffffffffffffff168152602001915050602060405180830381600087803b158015611f4457600080fd5b505af1158015611f58573d6000803e3d6000fd5b505050506040513d6020811015611f6e57600080fd5b81019080805190602001909291905050501515611f8a57600080fd5b816001600083815260200190815260200160002060006101000a81548173ffffffffffffffffffffffffffffffffffffffff021916908373ffffffffffffffffffffffffffffffffffffffff160217905550505050565b611fe9613886565b6000809054906101000a900473ffffffffffffffffffffffffffffffffffffffff1673ffffffffffffffffffffffffffffffffffffffff16632f54bf6e856040518263ffffffff167c0100000000000000000000000000000000000000000000000000000000028152600401808273ffffffffffffffffffffffffffffffffffffffff1673ffffffffffffffffffffffffffffffffffffffff168152602001915050602060405180830381600087803b1580156120a557600080fd5b505af11580156120b9573d6000803e3d6000fd5b505050506040513d60208110156120cf57600080fd5b810190808051906020019092919050505015156120eb57600080fd5b600460068111156120f857fe5b600360009054906101000a900460ff16600681111561211357fe5b14151561211f57600080fd5b6002600083815260200190815260200160002061014060405190810160405290816000820160009054906101000a900473ffffffffffffffffffffffffffffffffffffffff1673ffffffffffffffffffffffffffffffffffffffff1673ffffffffffffffffffffffffffffffffffffffff1681526020016001820160009054906101000a900473ffffffffffffffffffffffffffffffffffffffff1673ffffffffffffffffffffffffffffffffffffffff1673ffffffffffffffffffffffffffffffffffffffff1681526020016002820160009054906101000a900473ffffffffffffffffffffffffffffffffffffffff1673ffffffffffffffffffffffffffffffffffffffff1673ffffffffffffffffffffffffffffffffffffffff1681526020016003820160009054906101000a900473ffffffffffffffffffffffffffffffffffffffff1673ffffffffffffffffffffffffffffffffffffffff1673ffffffffffffffffffffffffffffffffffffffff16815260200160048201548152602001600582015481526020016006820154815260200160078201548152602001600882015481526020016009820160009054906101000a900460ff1660068111156122e757fe5b60068111156122f257fe5b815250509050600360009054906101000a900460ff16816101200190600681111561231957fe5b9081600681111561232657fe5b81525050828160c0018181525050806002600084815260200190815260200160002060008201518160000160006101000a81548173ffffffffffffffffffffffffffffffffffffffff021916908373ffffffffffffffffffffffffffffffffffffffff16021790555060208201518160010160006101000a81548173ffffffffffffffffffffffffffffffffffffffff021916908373ffffffffffffffffffffffffffffffffffffffff16021790555060408201518160020160006101000a81548173ffffffffffffffffffffffffffffffffffffffff021916908373ffffffffffffffffffffffffffffffffffffffff16021790555060608201518160030160006101000a81548173ffffffffffffffffffffffffffffffffffffffff021916908373ffffffffffffffffffffffffffffffffffffffff1602179055506080820151816004015560a0820151816005015560c0820151816006015560e0820151816007015561010082015181600801556101208201518160090160006101000a81548160ff021916908360068111156124bc57fe5b02179055509050506005600360006101000a81548160ff021916908360068111156124e357fe5b021790555050505050565b6124f6613886565b6000809054906101000a900473ffffffffffffffffffffffffffffffffffffffff1673ffffffffffffffffffffffffffffffffffffffff16632f54bf6e846040518263ffffffff167c0100000000000000000000000000000000000000000000000000000000028152600401808273ffffffffffffffffffffffffffffffffffffffff1673ffffffffffffffffffffffffffffffffffffffff168152602001915050602060405180830381600087803b1580156125b257600080fd5b505af11580156125c6573d6000803e3d6000fd5b505050506040513d60208110156125dc57600080fd5b810190808051906020019092919050505015156125f857600080fd5b6005600681111561260557fe5b600360009054906101000a900460ff16600681111561262057fe5b14151561262c57600080fd5b6002600083815260200190815260200160002061014060405190810160405290816000820160009054906101000a900473ffffffffffffffffffffffffffffffffffffffff1673ffffffffffffffffffffffffffffffffffffffff1673ffffffffffffffffffffffffffffffffffffffff1681526020016001820160009054906101000a900473ffffffffffffffffffffffffffffffffffffffff1673ffffffffffffffffffffffffffffffffffffffff1673ffffffffffffffffffffffffffffffffffffffff1681526020016002820160009054906101000a900473ffffffffffffffffffffffffffffffffffffffff1673ffffffffffffffffffffffffffffffffffffffff1673ffffffffffffffffffffffffffffffffffffffff1681526020016003820160009054906101000a900473ffffffffffffffffffffffffffffffffffffffff1673ffffffffffffffffffffffffffffffffffffffff1673ffffffffffffffffffffffffffffffffffffffff16815260200160048201548152602001600582015481526020016006820154815260200160078201548152602001600882015481526020016009820160009054906101000a900460ff1660068111156127f457fe5b60068111156127ff57fe5b8152505090506006600360006101000a81548160ff0219169083600681111561282457fe5b0217905550600360009054906101000a900460ff16816101200190600681111561284a57fe5b9081600681111561285757fe5b81525050806002600084815260200190815260200160002060008201518160000160006101000a81548173ffffffffffffffffffffffffffffffffffffffff021916908373ffffffffffffffffffffffffffffffffffffffff16021790555060208201518160010160006101000a81548173ffffffffffffffffffffffffffffffffffffffff021916908373ffffffffffffffffffffffffffffffffffffffff16021790555060408201518160020160006101000a81548173ffffffffffffffffffffffffffffffffffffffff021916908373ffffffffffffffffffffffffffffffffffffffff16021790555060608201518160030160006101000a81548173ffffffffffffffffffffffffffffffffffffffff021916908373ffffffffffffffffffffffffffffffffffffffff1602179055506080820151816004015560a0820151816005015560c0820151816006015560e0820151816007015561010082015181600801556101208201518160090160006101000a81548160ff021916908360068111156129e357fe5b02179055509050506000600360006101000a81548160ff02191690836006811115612a0a57fe5b0217905550505050565b60008060009054906101000a900473ffffffffffffffffffffffffffffffffffffffff1673ffffffffffffffffffffffffffffffffffffffff16632f54bf6e846040518263ffffffff167c0100000000000000000000000000000000000000000000000000000000028152600401808273ffffffffffffffffffffffffffffffffffffffff1673ffffffffffffffffffffffffffffffffffffffff168152602001915050602060405180830381600087803b158015612ad257600080fd5b505af1158015612ae6573d6000803e3d6000fd5b505050506040513d6020811015612afc57600080fd5b81019080805190602001909291905050501515612b1857600080fd5b6002600083815260200190815260200160002060010160009054906101000a900473ffffffffffffffffffffffffffffffffffffffff16905092915050565b612b5f613886565b6000809054906101000a900473ffffffffffffffffffffffffffffffffffffffff1673ffffffffffffffffffffffffffffffffffffffff16632f54bf6e856040518263ffffffff167c0100000000000000000000000000000000000000000000000000000000028152600401808273ffffffffffffffffffffffffffffffffffffffff1673ffffffffffffffffffffffffffffffffffffffff168152602001915050602060405180830381600087803b158015612c1b57600080fd5b505af1158015612c2f573d6000803e3d6000fd5b505050506040513d6020811015612c4557600080fd5b81019080805190602001909291905050501515612c6157600080fd5b60026006811115612c6e57fe5b600360009054906101000a900460ff166006811115612c8957fe5b141515612c9557600080fd5b6002600083815260200190815260200160002061014060405190810160405290816000820160009054906101000a900473ffffffffffffffffffffffffffffffffffffffff1673ffffffffffffffffffffffffffffffffffffffff1673ffffffffffffffffffffffffffffffffffffffff1681526020016001820160009054906101000a900473ffffffffffffffffffffffffffffffffffffffff1673ffffffffffffffffffffffffffffffffffffffff1673ffffffffffffffffffffffffffffffffffffffff1681526020016002820160009054906101000a900473ffffffffffffffffffffffffffffffffffffffff1673ffffffffffffffffffffffffffffffffffffffff1673ffffffffffffffffffffffffffffffffffffffff1681526020016003820160009054906101000a900473ffffffffffffffffffffffffffffffffffffffff1673ffffffffffffffffffffffffffffffffffffffff1673ffffffffffffffffffffffffffffffffffffffff16815260200160048201548152602001600582015481526020016006820154815260200160078201548152602001600882015481526020016009820160009054906101000a900460ff166006811115612e5d57fe5b6006811115612e6857fe5b815250509050600360009054906101000a900460ff168161012001906006811115612e8f57fe5b90816006811115612e9c57fe5b81525050828160a0018181525050806002600084815260200190815260200160002060008201518160000160006101000a81548173ffffffffffffffffffffffffffffffffffffffff021916908373ffffffffffffffffffffffffffffffffffffffff16021790555060208201518160010160006101000a81548173ffffffffffffffffffffffffffffffffffffffff021916908373ffffffffffffffffffffffffffffffffffffffff16021790555060408201518160020160006101000a81548173ffffffffffffffffffffffffffffffffffffffff021916908373ffffffffffffffffffffffffffffffffffffffff16021790555060608201518160030160006101000a81548173ffffffffffffffffffffffffffffffffffffffff021916908373ffffffffffffffffffffffffffffffffffffffff1602179055506080820151816004015560a0820151816005015560c0820151816006015560e0820151816007015561010082015181600801556101208201518160090160006101000a81548160ff0219169083600681111561303257fe5b021790555090505060038060006101000a81548160ff0219169083600681111561305857fe5b021790555050505050565b60008060009054906101000a900473ffffffffffffffffffffffffffffffffffffffff1673ffffffffffffffffffffffffffffffffffffffff16632f54bf6e846040518263ffffffff167c0100000000000000000000000000000000000000000000000000000000028152600401808273ffffffffffffffffffffffffffffffffffffffff1673ffffffffffffffffffffffffffffffffffffffff168152602001915050602060405180830381600087803b15801561312157600080fd5b505af1158015613135573d6000803e3d6000fd5b505050506040513d602081101561314b57600080fd5b8101908080519060200190929190505050151561316757600080fd5b6002600083815260200190815260200160002060070154905092915050565b6000613190613886565b6000809054906101000a900473ffffffffffffffffffffffffffffffffffffffff1673ffffffffffffffffffffffffffffffffffffffff16632f54bf6e856040518263ffffffff167c0100000000000000000000000000000000000000000000000000000000028152600401808273ffffffffffffffffffffffffffffffffffffffff1673ffffffffffffffffffffffffffffffffffffffff168152602001915050602060405180830381600087803b15801561324c57600080fd5b505af1158015613260573d6000803e3d6000fd5b505050506040513d602081101561327657600080fd5b8101908080519060200190929190505050151561329257600080fd5b6002600084815260200190815260200160002061014060405190810160405290816000820160009054906101000a900473ffffffffffffffffffffffffffffffffffffffff1673ffffffffffffffffffffffffffffffffffffffff1673ffffffffffffffffffffffffffffffffffffffff1681526020016001820160009054906101000a900473ffffffffffffffffffffffffffffffffffffffff1673ffffffffffffffffffffffffffffffffffffffff1673ffffffffffffffffffffffffffffffffffffffff1681526020016002820160009054906101000a900473ffffffffffffffffffffffffffffffffffffffff1673ffffffffffffffffffffffffffffffffffffffff1673ffffffffffffffffffffffffffffffffffffffff1681526020016003820160009054906101000a900473ffffffffffffffffffffffffffffffffffffffff1673ffffffffffffffffffffffffffffffffffffffff1673ffffffffffffffffffffffffffffffffffffffff16815260200160048201548152602001600582015481526020016006820154815260200160078201548152602001600882015481526020016009820160009054906101000a900460ff16600681111561345a57fe5b600681111561346557fe5b81525050905080610120015191505092915050565b613482613886565b6000809054906101000a900473ffffffffffffffffffffffffffffffffffffffff1673ffffffffffffffffffffffffffffffffffffffff16632f54bf6e876040518263ffffffff167c0100000000000000000000000000000000000000000000000000000000028152600401808273ffffffffffffffffffffffffffffffffffffffff1673ffffffffffffffffffffffffffffffffffffffff168152602001915050602060405180830381600087803b15801561353e57600080fd5b505af1158015613552573d6000803e3d6000fd5b505050506040513d602081101561356857600080fd5b8101908080519060200190929190505050151561358457600080fd5b6000600681111561359157fe5b600360009054906101000a900460ff1660068111156135ac57fe5b1415156135b857600080fd5b600360009054906101000a900460ff1681610120019060068111156135d957fe5b908160068111156135e657fe5b8152505085816000019073ffffffffffffffffffffffffffffffffffffffff16908173ffffffffffffffffffffffffffffffffffffffff168152505084816020019073ffffffffffffffffffffffffffffffffffffffff16908173ffffffffffffffffffffffffffffffffffffffff168152505083816040019073ffffffffffffffffffffffffffffffffffffffff16908173ffffffffffffffffffffffffffffffffffffffff168152505082816060019073ffffffffffffffffffffffffffffffffffffffff16908173ffffffffffffffffffffffffffffffffffffffff1681525050806002600084815260200190815260200160002060008201518160000160006101000a81548173ffffffffffffffffffffffffffffffffffffffff021916908373ffffffffffffffffffffffffffffffffffffffff16021790555060208201518160010160006101000a81548173ffffffffffffffffffffffffffffffffffffffff021916908373ffffffffffffffffffffffffffffffffffffffff16021790555060408201518160020160006101000a81548173ffffffffffffffffffffffffffffffffffffffff021916908373ffffffffffffffffffffffffffffffffffffffff16021790555060608201518160030160006101000a81548173ffffffffffffffffffffffffffffffffffffffff021916908373ffffffffffffffffffffffffffffffffffffffff1602179055506080820151816004015560a0820151816005015560c0820151816006015560e0820151816007015561010082015181600801556101208201518160090160006101000a81548160ff0219169083600681111561385257fe5b02179055509050506001600360006101000a81548160ff0219169083600681111561387957fe5b0217905550505050505050565b61014060405190810160405280600073ffffffffffffffffffffffffffffffffffffffff168152602001600073ffffffffffffffffffffffffffffffffffffffff168152602001600073ffffffffffffffffffffffffffffffffffffffff168152602001600073ffffffffffffffffffffffffffffffffffffffff16815260200160008152602001600081526020016000815260200160008152602001600081526020016000600681111561393757fe5b815250905600a165627a7a723058202abb59839e0df4fe0393472f1e723274dbb061af381ab643c35e991dab89d1460029",
  "source": "pragma solidity ^0.4.23;\r\n\r\nimport \"../accesscontrol/OwnerRole.sol\";\r\n\r\ncontract DonationBase {\r\n\r\n    OwnerRole private ownerRole;\r\n\r\n    // adds ownerRole library to the contract\r\n    constructor(address _ownable) public {\r\n        ownerRole = OwnerRole(_ownable);\r\n    }\r\n\r\n    /// @notice Contains the mapping for the lottery entrees\r\n    /// @dev\r\n    /// @param donor address, will be expanded for v2\r\n\r\n    mapping(uint => address) private LotteryEntrees;\r\n\r\n    /// @notice Contains the mapping for donation data\r\n    /// @dev key of structure is the transactionHash, in v2 a donationId will be introduced\r\n    /// @param Donation structure, contains donation metadata\r\n\r\n    mapping(uint => Donation) private Donations;\r\n\r\n    enum State\r\n    {\r\n        Resting,\r\n        Received,\r\n        Processed,\r\n        SentToCharity,\r\n        SentToLottery,\r\n        SentToOwner,\r\n        Stored\r\n    }\r\n    State private state = State.Resting;\r\n    /// @notice Contains the stucture of the star metadata\r\n    /// @dev key of structure is the provided transaction hash, will be donationId in v2\r\n    /// @param owner address, contains the address of the contract owner\r\n    /// @param lottery address, contains the address of the lottery - ether account for v1, contract for v2\r\n    /// @param charity address, contains the address of the charity - an ether account for v1 and v2\r\n    /// @param donor address, contains the address of the contract owner - ether account always\r\n    /// @param amount uint, contains the original amount donated - all amounts are after gas\r\n    /// @param charityAmount, contains the remaining 95% of original amount sent to charity\r\n    /// @param lotteryAmount uint, contains the 4% of original amount sent to lottery\r\n    /// @param ownerAmount, contains the 1% of original amount sent to owner\r\n    /// @param id, contains the value of the last submitted donation - is returned to ui\r\n    // TODO - refactor all data handling, updating, and transfer to a BASE data management contract in the future\r\n    struct Donation {\r\n        address owner;\r\n        address lottery;\r\n        address charity;\r\n        address donor;\r\n        uint amount;\r\n        uint charityAmount;\r\n        uint lotteryAmount;\r\n        uint ownerAmount;\r\n        uint id;\r\n        State donationState;\r\n    }\r\n\r\n    // TODO - update all functions with proper commentary\r\n    function setReceived(\r\n        address _owner,\r\n        address _lottery,\r\n        address _charity,\r\n        address _donor,\r\n        uint _donationID\r\n    )public payable{\r\n\r\n        // TODO - update literally all required statements with errors\r\n        require(ownerRole.isOwner(_owner));\r\n\r\n        require(state == State.Resting);\r\n\r\n        Donation memory donation;\r\n\r\n        donation.donationState = state;\r\n\r\n        donation.owner = _owner;\r\n\r\n        donation.lottery = _lottery;\r\n\r\n        donation.charity = _charity;\r\n\r\n        donation.donor = _donor;\r\n\r\n        Donations[_donationID] = donation;\r\n\r\n        state = State.Received;\r\n\r\n    }\r\n\r\n    function setProcessed(\r\n        address _owner,\r\n        uint _amount,\r\n        uint _donationID\r\n    )public payable{\r\n        require(ownerRole.isOwner(_owner));\r\n\r\n        require(state == State.Received);\r\n\r\n        Donation memory donation = Donations[_donationID];\r\n\r\n        donation.donationState = state;\r\n\r\n        donation.amount = _amount;\r\n\r\n        donation.id = _donationID;\r\n\r\n        Donations[_donationID] = donation;\r\n\r\n        state = State.Processed;\r\n    }\r\n\r\n    function setSentToCharity(\r\n        address _owner,\r\n        uint _charityAmount,\r\n        uint _donationID\r\n    )public payable{\r\n        require(ownerRole.isOwner(_owner));\r\n\r\n        require(state == State.Processed);\r\n\r\n        Donation memory donation = Donations[_donationID];\r\n\r\n        donation.donationState = state;\r\n\r\n        donation.charityAmount = _charityAmount;\r\n\r\n        Donations[_donationID] = donation;\r\n\r\n        state = State.SentToCharity;\r\n    }\r\n\r\n    function setSentToLottery(\r\n        address _owner,\r\n        uint _lotteryAmount,\r\n        uint _donationID\r\n    )public payable{\r\n        require(ownerRole.isOwner(_owner));\r\n\r\n        require(state == State.SentToCharity);\r\n\r\n        Donation memory donation = Donations[_donationID];\r\n\r\n        donation.donationState = state;\r\n\r\n        donation.lotteryAmount = _lotteryAmount;\r\n\r\n        Donations[_donationID] = donation;\r\n\r\n        state = State.SentToLottery;\r\n    }\r\n\r\n    function setSentToOwner(\r\n        address _owner,\r\n        uint _ownerAmount,\r\n        uint _donationID\r\n    )public payable{\r\n        require(ownerRole.isOwner(_owner));\r\n\r\n        require(state == State.SentToLottery);\r\n\r\n        Donation memory donation = Donations[_donationID];\r\n\r\n        donation.donationState = state;\r\n\r\n        donation.lotteryAmount = _ownerAmount;\r\n\r\n        Donations[_donationID] = donation;\r\n\r\n        state = State.SentToOwner;\r\n    }\r\n\r\n    function setStored(\r\n        address _owner,\r\n        uint _donationID\r\n    )public payable{\r\n        require(ownerRole.isOwner(_owner));\r\n\r\n        require(state == State.SentToOwner);\r\n\r\n        Donation memory donation = Donations[_donationID];\r\n\r\n        state = State.Stored;\r\n\r\n        donation.donationState = state;\r\n\r\n        Donations[_donationID] = donation;\r\n\r\n        state = State.Resting;\r\n    }\r\n\r\n    function setDonation(\r\n        address _owner,\r\n        address _lottery,\r\n        address _charity,\r\n        address _donor,\r\n        uint _amount,\r\n        uint _charityAmount,\r\n        uint _lotteryAmount,\r\n        uint _ownerAmount,\r\n        uint _donationID\r\n    ) public payable {\r\n\r\n        require(ownerRole.isOwner(_owner));\r\n\r\n        Donations[_donationID] = Donation(_owner, _lottery, _charity, _donor, _amount, _charityAmount, _lotteryAmount, _ownerAmount, _donationID, state);\r\n    }\r\n\r\n    function setLottery(\r\n        address _owner,\r\n        address _donor,\r\n        uint _donationId)\r\n    public payable {\r\n\r\n        require(ownerRole.isOwner(_owner));\r\n\r\n        LotteryEntrees[_donationId] = _donor;\r\n\r\n    }\r\n\r\n    function getDonationOwner(\r\n        address _owner,\r\n        uint _donationID\r\n    ) public view returns(address){\r\n        require(ownerRole.isOwner(_owner));\r\n        return Donations[_donationID].owner;\r\n    }\r\n\r\n    function getDonationLottery(\r\n        address _owner,\r\n        uint _donationID\r\n    ) public view returns(address){\r\n        require(ownerRole.isOwner(_owner));\r\n        return Donations[_donationID].lottery;\r\n    }\r\n\r\n    function getDonationCharity(\r\n        address _owner,\r\n        uint _donationID\r\n    ) public view returns(address){\r\n        require(ownerRole.isOwner(_owner));\r\n        return Donations[_donationID].charity;\r\n    }\r\n\r\n    function getDonationDonor(\r\n        address _owner,\r\n        uint _donationID\r\n    ) public view returns(address){\r\n        require(ownerRole.isOwner(_owner));\r\n        return Donations[_donationID].donor;\r\n    }\r\n\r\n    function getDonationAmount(\r\n        address _owner,\r\n        uint _donationID\r\n    ) public view returns(uint){\r\n        require(ownerRole.isOwner(_owner));\r\n        return Donations[_donationID].amount;\r\n    }\r\n\r\n    function getDonationCharityAmount(\r\n        address _owner,\r\n        uint _donationID\r\n    ) public view returns(uint){\r\n        require(ownerRole.isOwner(_owner));\r\n        return Donations[_donationID].charityAmount;\r\n    }\r\n\r\n    function getDonationLotteryAmount(\r\n        address _owner,\r\n        uint _donationID\r\n    ) public view returns(uint){\r\n        require(ownerRole.isOwner(_owner));\r\n        return Donations[_donationID].lotteryAmount;\r\n    }\r\n\r\n    function getDonationOwnerAmount(\r\n        address _owner,\r\n        uint _donationID\r\n    ) public view returns(uint){\r\n        require(ownerRole.isOwner(_owner));\r\n        return Donations[_donationID].ownerAmount;\r\n    }\r\n\r\n    function getDonationId(\r\n        address _owner,\r\n        uint _donationID\r\n    ) public view returns(uint){\r\n        require(ownerRole.isOwner(_owner));\r\n        return Donations[_donationID].id;\r\n    }\r\n\r\n    function getDonationState(\r\n        address _owner,\r\n        uint _donationID\r\n    ) public constant returns(State){\r\n        require(ownerRole.isOwner(_owner));\r\n\r\n        Donation memory donation = Donations[_donationID];\r\n\r\n        return donation.donationState;\r\n    }\r\n}",
  "sourcePath": "D:\\Documents\\School\\Share\\ethereum\\contracts\\base\\DonationBase.sol",
  "compiler": {
    "name": "solc",
    "version": "0.4.25+commit.59dbf8f1.Emscripten.clang"
  },
  "schemaVersion": "2.0.2",
  "updatedAt": "2019-04-27T08:21:16.302Z"
}