{
  "contractName": "DonorRole",
  "abi": [
    {
      "inputs": [
        {
          "name": "_ownable",
          "type": "address"
        }
      ],
      "payable": false,
      "stateMutability": "nonpayable",
      "type": "constructor"
    },
    {
      "constant": false,
      "inputs": [
        {
          "name": "_donor",
          "type": "address"
        },
        {
          "name": "_owner",
          "type": "address"
        }
      ],
      "name": "setDonor",
      "outputs": [],
      "payable": true,
      "stateMutability": "payable",
      "type": "function"
    },
    {
      "constant": true,
      "inputs": [
        {
          "name": "_owner",
          "type": "address"
        }
      ],
      "name": "getDonor",
      "outputs": [
        {
          "name": "",
          "type": "address"
        }
      ],
      "payable": false,
      "stateMutability": "view",
      "type": "function"
    },
    {
      "constant": true,
      "inputs": [],
      "name": "isDonor",
      "outputs": [
        {
          "name": "",
          "type": "bool"
        }
      ],
      "payable": false,
      "stateMutability": "view",
      "type": "function"
    },
    {
      "constant": false,
      "inputs": [],
      "name": "payout",
      "outputs": [],
      "payable": true,
      "stateMutability": "payable",
      "type": "function"
    }
  ],
  "bytecode": "0x608060405234801561001057600080fd5b5060405160208061071e8339810180604052810190808051906020019092919050505080600160006101000a81548173ffffffffffffffffffffffffffffffffffffffff021916908373ffffffffffffffffffffffffffffffffffffffff1602179055505061069a806100846000396000f300608060405260043610610062576000357c0100000000000000000000000000000000000000000000000000000000900463ffffffff16806322c8077f1461006757806363bd1d4a1461009657806396064882146100a057806396c59043146100f6575b600080fd5b34801561007357600080fd5b5061007c610179565b604051808215151515815260200191505060405180910390f35b61009e6101d0565b005b6100f4600480360381019080803573ffffffffffffffffffffffffffffffffffffffff169060200190929190803573ffffffffffffffffffffffffffffffffffffffff1690602001909291905050506103f9565b005b34801561010257600080fd5b50610137600480360381019080803573ffffffffffffffffffffffffffffffffffffffff169060200190929190505050610540565b604051808273ffffffffffffffffffffffffffffffffffffffff1673ffffffffffffffffffffffffffffffffffffffff16815260200191505060405180910390f35b60008060009054906101000a900473ffffffffffffffffffffffffffffffffffffffff1673ffffffffffffffffffffffffffffffffffffffff163373ffffffffffffffffffffffffffffffffffffffff1614905090565b6000600160009054906101000a900473ffffffffffffffffffffffffffffffffffffffff1673ffffffffffffffffffffffffffffffffffffffff16632f54bf6e336040518263ffffffff167c0100000000000000000000000000000000000000000000000000000000028152600401808273ffffffffffffffffffffffffffffffffffffffff1673ffffffffffffffffffffffffffffffffffffffff168152602001915050602060405180830381600087803b15801561028f57600080fd5b505af11580156102a3573d6000803e3d6000fd5b505050506040513d60208110156102b957600080fd5b810190808051906020019092919050505015156102d557600080fd5b600160009054906101000a900473ffffffffffffffffffffffffffffffffffffffff1673ffffffffffffffffffffffffffffffffffffffff1663893d20e86040518163ffffffff167c0100000000000000000000000000000000000000000000000000000000028152600401602060405180830381600087803b15801561035b57600080fd5b505af115801561036f573d6000803e3d6000fd5b505050506040513d602081101561038557600080fd5b810190808051906020019092919050505090508073ffffffffffffffffffffffffffffffffffffffff166108fc3073ffffffffffffffffffffffffffffffffffffffff16319081150290604051600060405180830381858888f193505050501580156103f5573d6000803e3d6000fd5b5050565b600160009054906101000a900473ffffffffffffffffffffffffffffffffffffffff1673ffffffffffffffffffffffffffffffffffffffff16632f54bf6e826040518263ffffffff167c0100000000000000000000000000000000000000000000000000000000028152600401808273ffffffffffffffffffffffffffffffffffffffff1673ffffffffffffffffffffffffffffffffffffffff168152602001915050602060405180830381600087803b1580156104b657600080fd5b505af11580156104ca573d6000803e3d6000fd5b505050506040513d60208110156104e057600080fd5b810190808051906020019092919050505015156104fc57600080fd5b816000806101000a81548173ffffffffffffffffffffffffffffffffffffffff021916908373ffffffffffffffffffffffffffffffffffffffff1602179055505050565b6000600160009054906101000a900473ffffffffffffffffffffffffffffffffffffffff1673ffffffffffffffffffffffffffffffffffffffff16632f54bf6e836040518263ffffffff167c0100000000000000000000000000000000000000000000000000000000028152600401808273ffffffffffffffffffffffffffffffffffffffff1673ffffffffffffffffffffffffffffffffffffffff168152602001915050602060405180830381600087803b1580156105ff57600080fd5b505af1158015610613573d6000803e3d6000fd5b505050506040513d602081101561062957600080fd5b8101908080519060200190929190505050151561064557600080fd5b6000809054906101000a900473ffffffffffffffffffffffffffffffffffffffff1690509190505600a165627a7a7230582082ea9eea0f71213e199fa7172b1782a70f30d1c4abd4ef7d6ee7a5ac2d1fab8c0029",
  "source": "pragma solidity ^0.4.24;\r\n\r\nimport \"../accesscontrol/OwnerRole.sol\";\r\n\r\n// TODO - deploy this, and grab address\r\n// Define a contract 'DonorRole' to manage this role - checks if address is parent contracts donor\r\ncontract DonorRole {\r\n\r\n    address private Donor;\r\n    OwnerRole private ownerRole;\r\n\r\n    // adds ownerRole library to the contract\r\n    constructor(address _ownable) public {\r\n        ownerRole = OwnerRole(_ownable);\r\n    }\r\n\r\n    function setDonor(address _donor, address _owner) public payable {\r\n\r\n        // can't use modifiers with imported contracts, if importing instance to my knowledge\r\n        require(ownerRole.isOwner(_owner));\r\n        Donor = _donor;\r\n    }\r\n\r\n    function getDonor(address _owner) public view returns (address){\r\n        require(ownerRole.isOwner(_owner));\r\n        return Donor;\r\n\r\n    }\r\n\r\n    // could be refactored into a util library\r\n    modifier onlyDonor{\r\n        require(isDonor());\r\n        _;\r\n    }\r\n\r\n    modifier notDonor{\r\n        require(!isDonor());\r\n        _;\r\n    }\r\n\r\n    function isDonor() public view returns (bool){\r\n\r\n        return msg.sender == Donor;\r\n    }\r\n\r\n    function payout() public payable{\r\n        require(ownerRole.isOwner(msg.sender));\r\n        address Owner = ownerRole.getOwner();\r\n        Owner.transfer(address(this).balance);\r\n    }\r\n}",
  "sourcePath": "D:\\Documents\\School\\Share\\ethereum\\contracts\\accesscontrol\\DonorRole.sol",
  "compiler": {
    "name": "solc",
    "version": "0.4.25+commit.59dbf8f1.Emscripten.clang"
  },
  "schemaVersion": "2.0.2",
  "updatedAt": "2019-04-27T08:21:16.279Z"
}