{
  "contractName": "ERC721Token",
  "abi": [
    {
      "anonymous": false,
      "inputs": [
        {
          "indexed": true,
          "name": "_from",
          "type": "address"
        },
        {
          "indexed": true,
          "name": "_to",
          "type": "address"
        },
        {
          "indexed": true,
          "name": "_tokenId",
          "type": "uint256"
        }
      ],
      "name": "Transfer",
      "type": "event"
    },
    {
      "anonymous": false,
      "inputs": [
        {
          "indexed": true,
          "name": "_owner",
          "type": "address"
        },
        {
          "indexed": true,
          "name": "_approved",
          "type": "address"
        },
        {
          "indexed": true,
          "name": "_tokenId",
          "type": "uint256"
        }
      ],
      "name": "Approval",
      "type": "event"
    },
    {
      "anonymous": false,
      "inputs": [
        {
          "indexed": true,
          "name": "_owner",
          "type": "address"
        },
        {
          "indexed": true,
          "name": "_operator",
          "type": "address"
        },
        {
          "indexed": false,
          "name": "_approved",
          "type": "bool"
        }
      ],
      "name": "ApprovalForAll",
      "type": "event"
    },
    {
      "constant": false,
      "inputs": [
        {
          "name": "_tokenId",
          "type": "uint256"
        }
      ],
      "name": "mint",
      "outputs": [],
      "payable": false,
      "stateMutability": "nonpayable",
      "type": "function"
    },
    {
      "constant": true,
      "inputs": [
        {
          "name": "_owner",
          "type": "address"
        }
      ],
      "name": "balanceOf",
      "outputs": [
        {
          "name": "",
          "type": "uint256"
        }
      ],
      "payable": false,
      "stateMutability": "view",
      "type": "function"
    },
    {
      "constant": true,
      "inputs": [
        {
          "name": "_tokenId",
          "type": "uint256"
        }
      ],
      "name": "ownerOf",
      "outputs": [
        {
          "name": "",
          "type": "address"
        }
      ],
      "payable": false,
      "stateMutability": "view",
      "type": "function"
    },
    {
      "constant": false,
      "inputs": [
        {
          "name": "_from",
          "type": "address"
        },
        {
          "name": "_to",
          "type": "address"
        },
        {
          "name": "_tokenId",
          "type": "uint256"
        }
      ],
      "name": "transferFrom",
      "outputs": [],
      "payable": true,
      "stateMutability": "payable",
      "type": "function"
    },
    {
      "constant": false,
      "inputs": [
        {
          "name": "_approved",
          "type": "address"
        },
        {
          "name": "_tokenId",
          "type": "uint256"
        }
      ],
      "name": "approve",
      "outputs": [],
      "payable": true,
      "stateMutability": "payable",
      "type": "function"
    },
    {
      "constant": false,
      "inputs": [
        {
          "name": "_operator",
          "type": "address"
        },
        {
          "name": "_approved",
          "type": "bool"
        }
      ],
      "name": "setApprovalForAll",
      "outputs": [],
      "payable": false,
      "stateMutability": "nonpayable",
      "type": "function"
    },
    {
      "constant": true,
      "inputs": [
        {
          "name": "_tokenId",
          "type": "uint256"
        }
      ],
      "name": "getApproved",
      "outputs": [
        {
          "name": "",
          "type": "address"
        }
      ],
      "payable": false,
      "stateMutability": "view",
      "type": "function"
    },
    {
      "constant": true,
      "inputs": [
        {
          "name": "_owner",
          "type": "address"
        },
        {
          "name": "_operator",
          "type": "address"
        }
      ],
      "name": "isApprovedForAll",
      "outputs": [
        {
          "name": "",
          "type": "bool"
        }
      ],
      "payable": false,
      "stateMutability": "view",
      "type": "function"
    }
  ],
  "bytecode": "0x608060405234801561001057600080fd5b50610b54806100206000396000f30060806040526004361061008e576000357c0100000000000000000000000000000000000000000000000000000000900463ffffffff168063081812fc14610093578063095ea7b31461010057806323b872dd146101405780636352211e146101a057806370a082311461020d578063a0712d6814610264578063a22cb46514610291578063e985e9c5146102e0575b600080fd5b34801561009f57600080fd5b506100be6004803603810190808035906020019092919050505061035b565b604051808273ffffffffffffffffffffffffffffffffffffffff1673ffffffffffffffffffffffffffffffffffffffff16815260200191505060405180910390f35b61013e600480360381019080803573ffffffffffffffffffffffffffffffffffffffff16906020019092919080359060200190929190505050610398565b005b61019e600480360381019080803573ffffffffffffffffffffffffffffffffffffffff169060200190929190803573ffffffffffffffffffffffffffffffffffffffff169060200190929190803590602001909291905050506104b5565b005b3480156101ac57600080fd5b506101cb60048036038101908080359060200190929190505050610573565b604051808273ffffffffffffffffffffffffffffffffffffffff1673ffffffffffffffffffffffffffffffffffffffff16815260200191505060405180910390f35b34801561021957600080fd5b5061024e600480360381019080803573ffffffffffffffffffffffffffffffffffffffff1690602001909291905050506105af565b6040518082815260200191505060405180910390f35b34801561027057600080fd5b5061028f6004803603810190808035906020019092919050505061069c565b005b34801561029d57600080fd5b506102de600480360381019080803573ffffffffffffffffffffffffffffffffffffffff169060200190929190803515159060200190929190505050610895565b005b3480156102ec57600080fd5b50610341600480360381019080803573ffffffffffffffffffffffffffffffffffffffff169060200190929190803573ffffffffffffffffffffffffffffffffffffffff169060200190929190505050610996565b604051808215151515815260200191505060405180910390f35b60006002600083815260200190815260200160002060009054906101000a900473ffffffffffffffffffffffffffffffffffffffff169050919050565b3373ffffffffffffffffffffffffffffffffffffffff1660008083815260200190815260200160002060009054906101000a900473ffffffffffffffffffffffffffffffffffffffff1673ffffffffffffffffffffffffffffffffffffffff1614151561040457600080fd5b816002600083815260200190815260200160002060006101000a81548173ffffffffffffffffffffffffffffffffffffffff021916908373ffffffffffffffffffffffffffffffffffffffff160217905550808273ffffffffffffffffffffffffffffffffffffffff163373ffffffffffffffffffffffffffffffffffffffff167f8c5be1e5ebec7d5bd14f71427d1e84f3dd0314c0f7b2291e5b200ac8c7c3b92560405160405180910390a45050565b338160008082815260200190815260200160002060009054906101000a900473ffffffffffffffffffffffffffffffffffffffff1673ffffffffffffffffffffffffffffffffffffffff168273ffffffffffffffffffffffffffffffffffffffff16148061055657508173ffffffffffffffffffffffffffffffffffffffff1661053e8261035b565b73ffffffffffffffffffffffffffffffffffffffff16145b151561056157600080fd5b61056c858585610a2a565b5050505050565b600080600083815260200190815260200160002060009054906101000a900473ffffffffffffffffffffffffffffffffffffffff169050919050565b60008073ffffffffffffffffffffffffffffffffffffffff168273ffffffffffffffffffffffffffffffffffffffff1614151515610655576040517f08c379a00000000000000000000000000000000000000000000000000000000081526004018080602001828103825260208152602001807f43616e6e6f742061736b20666f7220796f7572206f776e2062616c616e63652181525060200191505060405180910390fd5b600160008373ffffffffffffffffffffffffffffffffffffffff1673ffffffffffffffffffffffffffffffffffffffff168152602001908152602001600020549050919050565b600073ffffffffffffffffffffffffffffffffffffffff1660008083815260200190815260200160002060009054906101000a900473ffffffffffffffffffffffffffffffffffffffff1673ffffffffffffffffffffffffffffffffffffffff16141515610798576040517f08c379a000000000000000000000000000000000000000000000000000000000815260040180806020018281038252602b8152602001807f5468697320746f6b656e20616c72656164792062656c6f6e677320746f20736f81526020017f6d656f6e6520656c73652100000000000000000000000000000000000000000081525060400191505060405180910390fd5b3360008083815260200190815260200160002060006101000a81548173ffffffffffffffffffffffffffffffffffffffff021916908373ffffffffffffffffffffffffffffffffffffffff16021790555060018060003373ffffffffffffffffffffffffffffffffffffffff1673ffffffffffffffffffffffffffffffffffffffff16815260200190815260200160002060008282540192505081905550803373ffffffffffffffffffffffffffffffffffffffff16600073ffffffffffffffffffffffffffffffffffffffff167fddf252ad1be2c89b69c2b068fc378daa952ba7f163c4a11628f55a4df523b3ef60405160405180910390a450565b80600360003373ffffffffffffffffffffffffffffffffffffffff1673ffffffffffffffffffffffffffffffffffffffff16815260200190815260200160002060008473ffffffffffffffffffffffffffffffffffffffff1673ffffffffffffffffffffffffffffffffffffffff16815260200190815260200160002060006101000a81548160ff0219169083151502179055508173ffffffffffffffffffffffffffffffffffffffff163373ffffffffffffffffffffffffffffffffffffffff167f17307eab39ab6107e8899845ad3d59bd9653f200f220920489ca2b5937696c3183604051808215151515815260200191505060405180910390a35050565b6000600360008473ffffffffffffffffffffffffffffffffffffffff1673ffffffffffffffffffffffffffffffffffffffff16815260200190815260200160002060008373ffffffffffffffffffffffffffffffffffffffff1673ffffffffffffffffffffffffffffffffffffffff16815260200190815260200160002060009054906101000a900460ff16905092915050565b8160008083815260200190815260200160002060006101000a81548173ffffffffffffffffffffffffffffffffffffffff021916908373ffffffffffffffffffffffffffffffffffffffff16021790555060018060008573ffffffffffffffffffffffffffffffffffffffff1673ffffffffffffffffffffffffffffffffffffffff16815260200190815260200160002060008282540392505081905550808273ffffffffffffffffffffffffffffffffffffffff168473ffffffffffffffffffffffffffffffffffffffff167fddf252ad1be2c89b69c2b068fc378daa952ba7f163c4a11628f55a4df523b3ef60405160405180910390a45050505600a165627a7a72305820258fc2e9e7e3a8c8fece9c4b708bfc3b9926ea3d2fa2faba41bd3c125a0c903a0029",
  "source": "pragma solidity ^0.4.24;\r\n\r\n// this imports the ERC721 interface, allowing us to use the ERC for our contract\r\nimport './ERC721.sol';\r\n\r\n// creates an instance of the ERC721 interface\r\n// its important to note that this will convert the file name, into a variable\r\ncontract ERC721Token is ERC721{\r\n    \r\n    // these aren't too clear yet, but more on mapping functions here: \r\n    // https://solidity.readthedocs.io/en/v0.4.21/types.html#mappings\r\n    // it maps the values ito an array then assigns the array to a variable\r\n    // these are helpful when trying to isolate data\r\n    mapping(uint256 => address) tokenToOwner;\r\n    mapping(address => uint256) ownerToBalance;\r\n\r\n    // creates a new array for the approved addresses for a particular token\r\n    mapping(uint256 => address) tokenToApproved;\r\n\r\n    // mapping to grant transfer approval to all available tokens to operator\r\n    mapping(address => mapping(address => bool)) ownerToOperator;\r\n\r\n    // another function type, more on that here: \r\n    // https://solidity.readthedocs.io/en/v0.4.24/common-patterns.html\r\n    // ensures no tokens get stolen\r\n    modifier hasPermission(address _caller, uint256 _tokenId){\r\n        // requires any transfer call to only be allowed the FROM acount to be the owner of the token\r\n        // secondary condition checks if caller address is in the list of APPROVED callers for a given token\r\n        require(_caller == tokenToOwner[_tokenId] || getApproved(_tokenId) == _caller);\r\n\r\n        // continues the rest of the function, as long as the call meets the above require statement\r\n        _;\r\n    }\r\n\r\n    // the function here will actually create the new token for us to use\r\n    // these functions are generally called 'mints'\r\n    // all a token really is, is a reference of ownership\r\n    // this function can also be used to TRANSFER ownership to another user\r\n    // technically, what this function is doing is transfering ownership form one user to another\r\n    // where the default user is the contract\r\n    function mint(uint256 _tokenId) public {\r\n        // this only allows the owner of the address[0] account to access this function\r\n        // first argument is the condition, ensuring the owner.token property contains the same\r\n        // hash as address[0]\r\n        // second argument is the message, if  the first condition is false\r\n        require(tokenToOwner[_tokenId] == address(0), \"This token already belongs to someone else!\");\r\n\r\n        // this sets the owner of the token to the user's address\r\n        tokenToOwner[_tokenId] = msg.sender;\r\n\r\n        // this updates the user's balance with the new token\r\n        ownerToBalance[msg.sender] += 1;\r\n        \r\n        // fires the pre-established transfer event from ERC721 boilerplate\r\n        // returns original owner's address, users's address, and token ID\r\n        emit Transfer(address(0), msg.sender, _tokenId);\r\n    }\r\n\r\n    /// @notice Count all NFTs assigned to an owner\r\n    /// @dev NFTs assigned to the zero address are considered invalid, and this\r\n    ///  function throws for queries about the zero address.\r\n    /// @param _owner An address for whom to query the balance\r\n    /// @return The number of NFTs owned by `_owner`, possibly zero\r\n    function balanceOf(address _owner) external view returns (uint256){\r\n        // ensures the user cannot check their own balance, as that is nonsensical\r\n        require(_owner != address(0), \"Cannot ask for your own balance!\");\r\n\r\n        // returns the balance of the owner, when the owner's address is entered\r\n        return ownerToBalance[_owner];\r\n    }\r\n\r\n    /// @notice Find the owner of an NFT\r\n    /// @dev NFTs assigned to zero address are considered invalid, and queries\r\n    ///  about them do throw.\r\n    /// @param _tokenId The identifier for an NFT\r\n    /// @return The address of the owner of the NFT\r\n    function ownerOf(uint256 _tokenId) external view returns (address){\r\n\r\n        // returns owner of the token, once the tokenID is entered\r\n        return tokenToOwner[_tokenId];\r\n    }\r\n\r\n\r\n    /// @notice Transfer ownership of an NFT -- THE CALLER IS RESPONSIBLE\r\n    ///  TO CONFIRM THAT `_to` IS CAPABLE OF RECEIVING NFTS OR ELSE\r\n    ///  THEY MAY BE PERMANENTLY LOST\r\n    /// @dev Throws unless `msg.sender` is the current owner, an authorized\r\n    ///  operator, or the approved address for this NFT. Throws if `_from` is\r\n    ///  not the current owner. Throws if `_to` is the zero address. Throws if\r\n    ///  `_tokenId` is not a valid NFT.\r\n    /// @param _from The current owner of the NFT\r\n    /// @param _to The new owner\r\n    /// @param _tokenId The NFT to transfer\r\n\r\n    // this is used to transfer tokens FROM one address TO another\r\n    function transferFrom(address _from, address _to, uint256 _tokenId) external payable hasPermission(msg.sender, _tokenId){\r\n        \r\n        transferFromHelper(_from, _to, _tokenId);\r\n    }\r\n\r\n        // this is used to transfer tokens FROM one address TO another\r\n        // calling this method privately, without authentication since this can only be\r\n        // called internally, more on that here = https://solidity.readthedocs.io/en/v0.4.24/contracts.html#visibility-and-getters\r\n    function transferFromHelper(address _from, address _to, uint256 _tokenId) internal {\r\n        \r\n        // changes the owner's address fo the token to the _to argument\r\n        tokenToOwner[_tokenId] = _to;\r\n\r\n        // removes balance of token of FROM account\r\n        ownerToBalance[_from] -= 1;\r\n\r\n        // fires transfer event\r\n        emit Transfer(_from, _to, _tokenId);\r\n    }\r\n\r\n    /// @notice Change or reaffirm the approved address for an NFT\r\n    /// @dev The zero address indicates there is no approved address.\r\n    ///  Throws unless `msg.sender` is the current NFT owner, or an authorized\r\n    ///  operator of the current owner.\r\n    /// @param _approved The new approved NFT controller\r\n    /// @param _tokenId The NFT to approve\r\n\r\n    // gives another address APPROVAL to transfer the token\r\n    function approve(address _approved, uint256 _tokenId) external payable{\r\n        require(tokenToOwner[_tokenId] == msg.sender);\r\n\r\n        // sets the approved property of the token to the approved address argument\r\n        tokenToApproved[_tokenId] = _approved;\r\n\r\n        // emits the approval event\r\n        emit Approval(msg.sender, _approved, _tokenId);\r\n\r\n    }\r\n\r\n    /// @notice Enable or disable approval for a third party (\"operator\") to manage\r\n    ///  all of `msg.sender`'s assets\r\n    /// @dev Emits the ApprovalForAll event. The contract MUST allow\r\n    ///  multiple operators per owner.\r\n    /// @param _operator Address to add to the set of authorized operators\r\n    /// @param _approved True if the operator is approved, false to revoke approval\r\n\r\n    // grants permission to operator to transfer ALL tokens within a given account\r\n    function setApprovalForAll(address _operator, bool _approved) external{\r\n\r\n        // gives the operator access to transfer ALL the tokens in the users account\r\n        ownerToOperator[msg.sender][_operator] = _approved;\r\n\r\n        // emits the approvalForAll event\r\n        emit ApprovalForAll(msg.sender, _operator, _approved);\r\n    }\r\n\r\n    /// @notice Get the approved address for a single NFT\r\n    /// @dev Throws if `_tokenId` is not a valid NFT.\r\n    /// @param _tokenId The NFT to find the approved address for\r\n    /// @return The approved address for this NFT, or the zero address if there is none\r\n\r\n    // changed from external function type, so we can use it in this function\r\n    function getApproved(uint256 _tokenId) public view returns (address){\r\n\r\n        // returns the approved address of the argument's token;\r\n        return tokenToApproved[_tokenId];\r\n    }\r\n\r\n    /// @notice Query if an address is an authorized operator for another address\r\n    /// @param _owner The address that owns the NFTs\r\n    /// @param _operator The address that acts on behalf of the owner\r\n    /// @return True if `_operator` is an approved operator for `_owner`, false otherwise\r\n\r\n    // changes from external to public, so it can be used internally by the contract\r\n    function isApprovedForAll(address _owner, address _operator) public view returns (bool){\r\n\r\n        // returns the status of the permission, is true if the operator is approved to transfer all of the\r\n        // user's token\r\n        return ownerToOperator[_owner][_operator];\r\n    }\r\n}",
  "sourcePath": "D:\\Documents\\School\\Udacity\\blockchains\\part4\\project5\\smart_contracts\\contracts\\ERC721Token.sol",
  "compiler": {
    "name": "solc",
    "version": "0.4.24+commit.e67f0147.Emscripten.clang"
  },
  "schemaVersion": "2.0.1",
  "updatedAt": "2018-10-09T03:09:20.011Z"
}