{
  "contractName": "LotteryRole",
  "abi": [
    {
      "inputs": [
        {
          "name": "_ownable",
          "type": "address"
        }
      ],
      "payable": false,
      "stateMutability": "nonpayable",
      "type": "constructor"
    },
    {
      "constant": false,
      "inputs": [
        {
          "name": "_lottery",
          "type": "address"
        },
        {
          "name": "_sender",
          "type": "address"
        }
      ],
      "name": "setLottery",
      "outputs": [],
      "payable": true,
      "stateMutability": "payable",
      "type": "function"
    },
    {
      "constant": true,
      "inputs": [
        {
          "name": "_sender",
          "type": "address"
        }
      ],
      "name": "getLottery",
      "outputs": [
        {
          "name": "",
          "type": "address"
        }
      ],
      "payable": false,
      "stateMutability": "view",
      "type": "function"
    },
    {
      "constant": true,
      "inputs": [],
      "name": "isLottery",
      "outputs": [
        {
          "name": "",
          "type": "bool"
        }
      ],
      "payable": false,
      "stateMutability": "view",
      "type": "function"
    },
    {
      "constant": false,
      "inputs": [],
      "name": "payout",
      "outputs": [],
      "payable": true,
      "stateMutability": "payable",
      "type": "function"
    }
  ],
  "bytecode": "0x608060405234801561001057600080fd5b5060405160208061071e8339810180604052810190808051906020019092919050505080600160006101000a81548173ffffffffffffffffffffffffffffffffffffffff021916908373ffffffffffffffffffffffffffffffffffffffff1602179055505061069a806100846000396000f300608060405260043610610062576000357c0100000000000000000000000000000000000000000000000000000000900463ffffffff16806310ca8c81146100675780631e88c9c0146100bd57806325698d891461014057806363bd1d4a1461016f575b600080fd5b6100bb600480360381019080803573ffffffffffffffffffffffffffffffffffffffff169060200190929190803573ffffffffffffffffffffffffffffffffffffffff169060200190929190505050610179565b005b3480156100c957600080fd5b506100fe600480360381019080803573ffffffffffffffffffffffffffffffffffffffff1690602001909291905050506102c0565b604051808273ffffffffffffffffffffffffffffffffffffffff1673ffffffffffffffffffffffffffffffffffffffff16815260200191505060405180910390f35b34801561014c57600080fd5b506101556103ee565b604051808215151515815260200191505060405180910390f35b610177610445565b005b600160009054906101000a900473ffffffffffffffffffffffffffffffffffffffff1673ffffffffffffffffffffffffffffffffffffffff16632f54bf6e826040518263ffffffff167c0100000000000000000000000000000000000000000000000000000000028152600401808273ffffffffffffffffffffffffffffffffffffffff1673ffffffffffffffffffffffffffffffffffffffff168152602001915050602060405180830381600087803b15801561023657600080fd5b505af115801561024a573d6000803e3d6000fd5b505050506040513d602081101561026057600080fd5b8101908080519060200190929190505050151561027c57600080fd5b816000806101000a81548173ffffffffffffffffffffffffffffffffffffffff021916908373ffffffffffffffffffffffffffffffffffffffff1602179055505050565b6000600160009054906101000a900473ffffffffffffffffffffffffffffffffffffffff1673ffffffffffffffffffffffffffffffffffffffff16632f54bf6e836040518263ffffffff167c0100000000000000000000000000000000000000000000000000000000028152600401808273ffffffffffffffffffffffffffffffffffffffff1673ffffffffffffffffffffffffffffffffffffffff168152602001915050602060405180830381600087803b15801561037f57600080fd5b505af1158015610393573d6000803e3d6000fd5b505050506040513d60208110156103a957600080fd5b810190808051906020019092919050505015156103c557600080fd5b6000809054906101000a900473ffffffffffffffffffffffffffffffffffffffff169050919050565b60008060009054906101000a900473ffffffffffffffffffffffffffffffffffffffff1673ffffffffffffffffffffffffffffffffffffffff163373ffffffffffffffffffffffffffffffffffffffff1614905090565b6000600160009054906101000a900473ffffffffffffffffffffffffffffffffffffffff1673ffffffffffffffffffffffffffffffffffffffff16632f54bf6e336040518263ffffffff167c0100000000000000000000000000000000000000000000000000000000028152600401808273ffffffffffffffffffffffffffffffffffffffff1673ffffffffffffffffffffffffffffffffffffffff168152602001915050602060405180830381600087803b15801561050457600080fd5b505af1158015610518573d6000803e3d6000fd5b505050506040513d602081101561052e57600080fd5b8101908080519060200190929190505050151561054a57600080fd5b600160009054906101000a900473ffffffffffffffffffffffffffffffffffffffff1673ffffffffffffffffffffffffffffffffffffffff1663893d20e86040518163ffffffff167c0100000000000000000000000000000000000000000000000000000000028152600401602060405180830381600087803b1580156105d057600080fd5b505af11580156105e4573d6000803e3d6000fd5b505050506040513d60208110156105fa57600080fd5b810190808051906020019092919050505090508073ffffffffffffffffffffffffffffffffffffffff166108fc3073ffffffffffffffffffffffffffffffffffffffff16319081150290604051600060405180830381858888f1935050505015801561066a573d6000803e3d6000fd5b50505600a165627a7a72305820931422ebadb69f669561694f8dc01687acc07a836d27d9b7b6ceb32cc994e9e30029",
  "source": "pragma solidity ^0.4.24;\r\n\r\nimport \"../accesscontrol/OwnerRole.sol\";\r\n\r\n// TODO - deploy this, and grab address\r\n// Define a contract 'LotteryRole' to manage this role - checks if address is parent contracts lottery\r\ncontract LotteryRole{\r\n\r\n    address private Lottery;\r\n    OwnerRole private ownerRole;\r\n\r\n    // adds ownerRole library to the contract\r\n\r\n    constructor(address _ownable) public {\r\n        ownerRole = OwnerRole(_ownable);\r\n    }\r\n\r\n    function setLottery(address _lottery, address _sender) public payable {\r\n\r\n        // must be used like this, msg.sender grabs the CONTRACT address, not the OWNER address\r\n        require(ownerRole.isOwner(_sender));\r\n        // ensures caller is owner\r\n        Lottery = _lottery;\r\n    }\r\n\r\n    function getLottery(address _sender) public view returns (address){\r\n\r\n        require(ownerRole.isOwner(_sender));\r\n        return Lottery;\r\n    }\r\n\r\n    // could be refactored into a util library\r\n    modifier onlyLottery{\r\n        require(isLottery());\r\n        _;\r\n    }\r\n\r\n    modifier notLottery{\r\n        require(!isLottery());\r\n        _;\r\n    }\r\n\r\n    function isLottery() public view returns (bool){\r\n\r\n        return msg.sender == Lottery;\r\n    }\r\n\r\n    function payout() public payable{\r\n        require(ownerRole.isOwner(msg.sender));\r\n        address Owner = ownerRole.getOwner();\r\n\r\n        Owner.transfer(address(this).balance);\r\n    }\r\n}",
  "sourcePath": "D:\\Documents\\School\\Share\\ethereum\\contracts\\accesscontrol\\LotteryRole.sol",
  "compiler": {
    "name": "solc",
    "version": "0.4.25+commit.59dbf8f1.Emscripten.clang"
  },
  "schemaVersion": "2.0.2",
  "updatedAt": "2019-04-27T08:21:16.274Z"
}