{
  "contractName": "LotteryRole",
  "abi": [
    {
      "inputs": [
        {
          "name": "_ownable",
          "type": "address"
        }
      ],
      "payable": false,
      "stateMutability": "nonpayable",
      "type": "constructor"
    },
    {
      "constant": false,
      "inputs": [
        {
          "name": "_lottery",
          "type": "address"
        }
      ],
      "name": "setLottery",
      "outputs": [],
      "payable": true,
      "stateMutability": "payable",
      "type": "function"
    },
    {
      "constant": true,
      "inputs": [],
      "name": "getLottery",
      "outputs": [
        {
          "name": "",
          "type": "address"
        }
      ],
      "payable": false,
      "stateMutability": "view",
      "type": "function"
    },
    {
      "constant": true,
      "inputs": [],
      "name": "isLottery",
      "outputs": [
        {
          "name": "",
          "type": "bool"
        }
      ],
      "payable": false,
      "stateMutability": "view",
      "type": "function"
    },
    {
      "constant": false,
      "inputs": [],
      "name": "payout",
      "outputs": [],
      "payable": true,
      "stateMutability": "payable",
      "type": "function"
    }
  ],
  "bytecode": "0x60806040526000600160146101000a81548160ff02191690831515021790555034801561002b57600080fd5b5060405160208061053183398101806040528101908080519060200190929190505050336000806101000a81548173ffffffffffffffffffffffffffffffffffffffff021916908373ffffffffffffffffffffffffffffffffffffffff16021790555080600260006101000a81548173ffffffffffffffffffffffffffffffffffffffff021916908373ffffffffffffffffffffffffffffffffffffffff16021790555050610452806100df6000396000f300608060405260043610610062576000357c0100000000000000000000000000000000000000000000000000000000900463ffffffff16806325698d891461006757806363bd1d4a14610096578063cbc2cce7146100a0578063f298083b146100f7575b600080fd5b34801561007357600080fd5b5061007c61012d565b604051808215151515815260200191505060405180910390f35b61009e610185565b005b3480156100ac57600080fd5b506100b56102d2565b604051808273ffffffffffffffffffffffffffffffffffffffff1673ffffffffffffffffffffffffffffffffffffffff16815260200191505060405180910390f35b61012b600480360381019080803573ffffffffffffffffffffffffffffffffffffffff1690602001909291905050506102fc565b005b6000600160009054906101000a900473ffffffffffffffffffffffffffffffffffffffff1673ffffffffffffffffffffffffffffffffffffffff163373ffffffffffffffffffffffffffffffffffffffff1614905090565b600260009054906101000a900473ffffffffffffffffffffffffffffffffffffffff1673ffffffffffffffffffffffffffffffffffffffff16638f32d59b6040518163ffffffff167c0100000000000000000000000000000000000000000000000000000000028152600401602060405180830381600087803b15801561020b57600080fd5b505af115801561021f573d6000803e3d6000fd5b505050506040513d602081101561023557600080fd5b8101908080519060200190929190505050151561025157600080fd5b6000809054906101000a900473ffffffffffffffffffffffffffffffffffffffff1673ffffffffffffffffffffffffffffffffffffffff166108fc3073ffffffffffffffffffffffffffffffffffffffff16319081150290604051600060405180830381858888f193505050501580156102cf573d6000803e3d6000fd5b50565b6000600160009054906101000a900473ffffffffffffffffffffffffffffffffffffffff16905090565b600260009054906101000a900473ffffffffffffffffffffffffffffffffffffffff1673ffffffffffffffffffffffffffffffffffffffff16638f32d59b6040518163ffffffff167c0100000000000000000000000000000000000000000000000000000000028152600401602060405180830381600087803b15801561038257600080fd5b505af1158015610396573d6000803e3d6000fd5b505050506040513d60208110156103ac57600080fd5b810190808051906020019092919050505015156103c857600080fd5b80600160006101000a81548173ffffffffffffffffffffffffffffffffffffffff021916908373ffffffffffffffffffffffffffffffffffffffff16021790555060018060146101000a81548160ff021916908315150217905550505600a165627a7a723058208c545368cbef1e1f8bbe30c69c0ff88352cb084ac4c13b99e840c28c7734f0150029",
  "source": "pragma solidity ^0.4.24;\r\n\r\nimport \"../core/Ownable.sol\";\r\n\r\n// TODO - deploy this, and grab address\r\n// Define a contract 'LotteryRole' to manage this role - checks if address is parent contracts lottery\r\ncontract LotteryRole{\r\n\r\n    address private Owner;\r\n    address private Lottery;\r\n    bool private initialized = false;\r\n    Ownable private ownable;\r\n\r\n    // adds ownable library to the contract\r\n\r\n    constructor(address _ownable) public {\r\n        Owner = msg.sender;\r\n        ownable = Ownable(_ownable);\r\n    }\r\n\r\n    function setLottery(address _lottery) public payable {\r\n\r\n        // ensures caller is owner\r\n        require(ownable.isOwner());\r\n        Lottery = _lottery;\r\n        initialized = true;\r\n    }\r\n\r\n    function getLottery() public view returns (address){\r\n        return Lottery;\r\n    }\r\n\r\n    // could be refactored into a util library\r\n    modifier onlyLottery{\r\n        require(isLottery());\r\n        _;\r\n    }\r\n\r\n    modifier notLottery{\r\n        require(!isLottery());\r\n        _;\r\n    }\r\n\r\n    function isLottery() public view returns (bool){\r\n\r\n        return msg.sender == Lottery;\r\n    }\r\n\r\n    function payout() public payable{\r\n        require(ownable.isOwner());\r\n        Owner.transfer(address(this).balance);\r\n    }\r\n}",
  "sourcePath": "D:\\Documents\\School\\Share\\ethereum\\contracts\\accesscontrol\\LotteryRole.sol",
  "compiler": {
    "name": "solc",
    "version": "0.4.25+commit.59dbf8f1.Emscripten.clang"
  },
  "schemaVersion": "2.0.2",
  "updatedAt": "2019-03-29T00:21:40.415Z"
}