{
  "contractName": "LotteryRole",
  "abi": [
    {
      "constant": true,
      "inputs": [],
      "name": "getOwner",
      "outputs": [
        {
          "name": "",
          "type": "address"
        }
      ],
      "payable": false,
      "stateMutability": "view",
      "type": "function"
    },
    {
      "constant": true,
      "inputs": [],
      "name": "isOwner",
      "outputs": [
        {
          "name": "",
          "type": "bool"
        }
      ],
      "payable": false,
      "stateMutability": "view",
      "type": "function"
    },
    {
      "inputs": [],
      "payable": false,
      "stateMutability": "nonpayable",
      "type": "constructor"
    },
    {
      "constant": false,
      "inputs": [
        {
          "name": "_lottery",
          "type": "address"
        }
      ],
      "name": "setLottery",
      "outputs": [],
      "payable": true,
      "stateMutability": "payable",
      "type": "function"
    },
    {
      "constant": true,
      "inputs": [],
      "name": "getLottery",
      "outputs": [
        {
          "name": "",
          "type": "address"
        }
      ],
      "payable": false,
      "stateMutability": "view",
      "type": "function"
    },
    {
      "constant": true,
      "inputs": [],
      "name": "isLottery",
      "outputs": [
        {
          "name": "",
          "type": "bool"
        }
      ],
      "payable": false,
      "stateMutability": "view",
      "type": "function"
    },
    {
      "constant": false,
      "inputs": [],
      "name": "payout",
      "outputs": [],
      "payable": true,
      "stateMutability": "payable",
      "type": "function"
    }
  ],
  "bytecode": "0x608060405260008060146101000a81548160ff0219169083151502179055506000600260146101000a81548160ff02191690831515021790555034801561004557600080fd5b50336000806101000a81548173ffffffffffffffffffffffffffffffffffffffff021916908373ffffffffffffffffffffffffffffffffffffffff16021790555033600160006101000a81548173ffffffffffffffffffffffffffffffffffffffff021916908373ffffffffffffffffffffffffffffffffffffffff160217905550610424806100d66000396000f300608060405260043610610078576000357c0100000000000000000000000000000000000000000000000000000000900463ffffffff16806325698d891461007d57806363bd1d4a146100ac578063893d20e8146100b65780638f32d59b1461010d578063cbc2cce71461013c578063f298083b14610193575b600080fd5b34801561008957600080fd5b506100926101c9565b604051808215151515815260200191505060405180910390f35b6100b4610221565b005b3480156100c257600080fd5b506100cb6102b6565b604051808273ffffffffffffffffffffffffffffffffffffffff1673ffffffffffffffffffffffffffffffffffffffff16815260200191505060405180910390f35b34801561011957600080fd5b506101226102f2565b604051808215151515815260200191505060405180910390f35b34801561014857600080fd5b50610151610349565b604051808273ffffffffffffffffffffffffffffffffffffffff1673ffffffffffffffffffffffffffffffffffffffff16815260200191505060405180910390f35b6101c7600480360381019080803573ffffffffffffffffffffffffffffffffffffffff169060200190929190505050610386565b005b6000600260009054906101000a900473ffffffffffffffffffffffffffffffffffffffff1673ffffffffffffffffffffffffffffffffffffffff163373ffffffffffffffffffffffffffffffffffffffff1614905090565b6102296102f2565b151561023457600080fd5b600160009054906101000a900473ffffffffffffffffffffffffffffffffffffffff1673ffffffffffffffffffffffffffffffffffffffff166108fc3073ffffffffffffffffffffffffffffffffffffffff16319081150290604051600060405180830381858888f193505050501580156102b3573d6000803e3d6000fd5b50565b60006102c06102f2565b15156102cb57600080fd5b6000809054906101000a900473ffffffffffffffffffffffffffffffffffffffff16905090565b60008060009054906101000a900473ffffffffffffffffffffffffffffffffffffffff1673ffffffffffffffffffffffffffffffffffffffff163373ffffffffffffffffffffffffffffffffffffffff1614905090565b60006103536102f2565b151561035e57600080fd5b600260009054906101000a900473ffffffffffffffffffffffffffffffffffffffff16905090565b61038e6102f2565b151561039957600080fd5b80600260006101000a81548173ffffffffffffffffffffffffffffffffffffffff021916908373ffffffffffffffffffffffffffffffffffffffff1602179055506001600260146101000a81548160ff021916908315150217905550505600a165627a7a72305820514c3b41bf2e4249434ab280eec957ebd68a3740a30643ddf571c18c8e01ba7e0029",
  "source": "pragma solidity ^0.4.24;\r\n\r\nimport \"../core/Ownable.sol\";\r\n\r\n// TODO - deploy this, and grab address\r\n// Define a contract 'LotteryRole' to manage this role - checks if address is parent contracts lottery\r\ncontract LotteryRole is Ownable {\r\n\r\n    address private Owner;\r\n    address private Lottery;\r\n    bool private initialized = false;\r\n\r\n    // adds ownable library to the contract\r\n\r\n    constructor() public {\r\n        Owner = msg.sender;\r\n    }\r\n\r\n    function setLottery(address _lottery) onlyOwner public payable {\r\n\r\n        // ensures caller is owner\r\n\r\n        Lottery = _lottery;\r\n        initialized = true;\r\n    }\r\n\r\n    function getLottery() onlyOwner public view returns (address){\r\n        return Lottery;\r\n    }\r\n\r\n    // could be refactored into a util library\r\n    modifier onlyLottery{\r\n        require(isLottery());\r\n        _;\r\n    }\r\n\r\n    modifier notLottery{\r\n        require(!isLottery());\r\n        _;\r\n    }\r\n\r\n    function isLottery() public view returns (bool){\r\n        return msg.sender == Lottery;\r\n    }\r\n\r\n    function payout() onlyOwner public payable{\r\n        Owner.transfer(address(this).balance);\r\n    }\r\n}",
  "sourcePath": "D:\\Documents\\School\\Share\\ethereum\\contracts\\accesscontrol\\LotteryRole.sol",
  "compiler": {
    "name": "solc",
    "version": "0.4.25+commit.59dbf8f1.Emscripten.clang"
  },
  "schemaVersion": "2.0.2",
  "updatedAt": "2019-03-27T04:55:57.235Z"
}