{
  "contractName": "Ownable",
  "abi": [
    {
      "inputs": [],
      "payable": false,
      "stateMutability": "nonpayable",
      "type": "constructor"
    },
    {
      "constant": true,
      "inputs": [],
      "name": "getOwner",
      "outputs": [
        {
          "name": "",
          "type": "address"
        }
      ],
      "payable": false,
      "stateMutability": "view",
      "type": "function"
    },
    {
      "constant": true,
      "inputs": [],
      "name": "isOwner",
      "outputs": [
        {
          "name": "",
          "type": "bool"
        }
      ],
      "payable": false,
      "stateMutability": "view",
      "type": "function"
    },
    {
      "constant": false,
      "inputs": [],
      "name": "payout",
      "outputs": [],
      "payable": true,
      "stateMutability": "payable",
      "type": "function"
    }
  ],
  "bytecode": "0x608060405260008060146101000a81548160ff02191690831515021790555034801561002a57600080fd5b50336000806101000a81548173ffffffffffffffffffffffffffffffffffffffff021916908373ffffffffffffffffffffffffffffffffffffffff16021790555061023f8061007a6000396000f300608060405260043610610057576000357c0100000000000000000000000000000000000000000000000000000000900463ffffffff16806363bd1d4a1461005c578063893d20e8146100665780638f32d59b146100bd575b600080fd5b6100646100ec565b005b34801561007257600080fd5b5061007b610180565b604051808273ffffffffffffffffffffffffffffffffffffffff1673ffffffffffffffffffffffffffffffffffffffff16815260200191505060405180910390f35b3480156100c957600080fd5b506100d26101bc565b604051808215151515815260200191505060405180910390f35b6100f46101bc565b15156100ff57600080fd5b6000809054906101000a900473ffffffffffffffffffffffffffffffffffffffff1673ffffffffffffffffffffffffffffffffffffffff166108fc3073ffffffffffffffffffffffffffffffffffffffff16319081150290604051600060405180830381858888f1935050505015801561017d573d6000803e3d6000fd5b50565b600061018a6101bc565b151561019557600080fd5b6000809054906101000a900473ffffffffffffffffffffffffffffffffffffffff16905090565b60008060009054906101000a900473ffffffffffffffffffffffffffffffffffffffff1673ffffffffffffffffffffffffffffffffffffffff163373ffffffffffffffffffffffffffffffffffffffff16149050905600a165627a7a72305820b86802765a4ac10672a0ba3f4d62bd9d1698b377b18ec49aa7cffd499df176590029",
  "source": "pragma solidity ^0.4.24;\r\n\r\n/// Provides basic authorization control\r\n\r\n// TODO - may include in the submission but most likely not, not necessary and overly complicates smart contract logic\r\n\r\ncontract Ownable {\r\n    address private Owner;\r\n\r\n    bool private initialized = false;\r\n\r\n    constructor() public {\r\n        Owner = msg.sender;\r\n    }\r\n\r\n    function getOwner() onlyOwner public view returns (address) {\r\n        return Owner;\r\n    }\r\n\r\n    // changed to function, issues importing modifiers\r\n    modifier onlyOwner{\r\n        require(isOwner());\r\n        _;\r\n    }\r\n\r\n    modifier notOwner{\r\n        require(!isOwner());\r\n        _;\r\n    }\r\n\r\n    /// Check if the calling address is the Owner of the contract\r\n    function isOwner() public view returns (bool) {\r\n        return msg.sender == Owner;\r\n    }\r\n\r\n    function payout() onlyOwner public payable{\r\n        Owner.transfer(address(this).balance);\r\n    }\r\n}\r\n",
  "sourcePath": "D:\\Documents\\School\\Share\\ethereum\\contracts\\core\\Ownable.sol",
  "compiler": {
    "name": "solc",
    "version": "0.4.25+commit.59dbf8f1.Emscripten.clang"
  },
  "schemaVersion": "2.0.2",
  "updatedAt": "2019-03-28T23:54:33.675Z"
}