{
  "contractName": "Ownable",
  "abi": [
    {
      "inputs": [],
      "payable": false,
      "stateMutability": "nonpayable",
      "type": "constructor"
    },
    {
      "constant": true,
      "inputs": [],
      "name": "getOwner",
      "outputs": [
        {
          "name": "",
          "type": "address"
        }
      ],
      "payable": false,
      "stateMutability": "view",
      "type": "function"
    },
    {
      "constant": true,
      "inputs": [
        {
          "name": "_sender",
          "type": "address"
        }
      ],
      "name": "isOwner",
      "outputs": [
        {
          "name": "",
          "type": "bool"
        }
      ],
      "payable": false,
      "stateMutability": "view",
      "type": "function"
    },
    {
      "constant": false,
      "inputs": [],
      "name": "payout",
      "outputs": [],
      "payable": true,
      "stateMutability": "payable",
      "type": "function"
    }
  ],
  "bytecode": "0x608060405260008060146101000a81548160ff02191690831515021790555034801561002a57600080fd5b50336000806101000a81548173ffffffffffffffffffffffffffffffffffffffff021916908373ffffffffffffffffffffffffffffffffffffffff16021790555061026f8061007a6000396000f300608060405260043610610057576000357c0100000000000000000000000000000000000000000000000000000000900463ffffffff1680632f54bf6e1461005c57806363bd1d4a146100b7578063893d20e8146100c1575b600080fd5b34801561006857600080fd5b5061009d600480360381019080803573ffffffffffffffffffffffffffffffffffffffff169060200190929190505050610118565b604051808215151515815260200191505060405180910390f35b6100bf610171565b005b3480156100cd57600080fd5b506100d6610206565b604051808273ffffffffffffffffffffffffffffffffffffffff1673ffffffffffffffffffffffffffffffffffffffff16815260200191505060405180910390f35b60008060009054906101000a900473ffffffffffffffffffffffffffffffffffffffff1673ffffffffffffffffffffffffffffffffffffffff168273ffffffffffffffffffffffffffffffffffffffff16149050919050565b61017a33610118565b151561018557600080fd5b6000809054906101000a900473ffffffffffffffffffffffffffffffffffffffff1673ffffffffffffffffffffffffffffffffffffffff166108fc3073ffffffffffffffffffffffffffffffffffffffff16319081150290604051600060405180830381858888f19350505050158015610203573d6000803e3d6000fd5b50565b600061021133610118565b151561021c57600080fd5b6000809054906101000a900473ffffffffffffffffffffffffffffffffffffffff169050905600a165627a7a723058206305125c682da8541e494e25b92472e4882c4dd46d5c9794557e0cf31ffc70f10029",
  "source": "pragma solidity ^0.4.24;\r\n\r\n/// Provides basic authorization control\r\n\r\n// TODO - may include in the submission but most likely not, not necessary and overly complicates smart contract logic\r\n\r\ncontract Ownable {\r\n    address private Owner;\r\n\r\n    bool private initialized = false;\r\n\r\n    constructor() public {\r\n        Owner = msg.sender;\r\n    }\r\n\r\n    function getOwner() onlyOwner public view returns (address) {\r\n        return Owner;\r\n    }\r\n\r\n    // changed to function, issues importing modifiers\r\n    modifier onlyOwner{\r\n        require(isOwner(msg.sender));\r\n        _;\r\n    }\r\n\r\n    modifier notOwner{\r\n        require(!isOwner(msg.sender));\r\n        _;\r\n    }\r\n\r\n    /// Check if the calling address is the Owner of the contract\r\n    function isOwner(address _sender) public view returns (bool) {\r\n        return _sender == Owner;\r\n    }\r\n\r\n    function payout() onlyOwner public payable{\r\n        Owner.transfer(address(this).balance);\r\n    }\r\n}\r\n",
  "sourcePath": "D:\\Documents\\School\\Share\\ethereum\\contracts\\core\\Ownable.sol",
  "compiler": {
    "name": "solc",
    "version": "0.4.25+commit.59dbf8f1.Emscripten.clang"
  },
  "schemaVersion": "2.0.2",
  "updatedAt": "2019-03-29T23:27:09.807Z"
}