{
  "contractName": "Share",
  "abi": [
    {
      "inputs": [
        {
          "name": "_ownerRole",
          "type": "address"
        },
        {
          "name": "_charityRole",
          "type": "address"
        },
        {
          "name": "_lotteryRole",
          "type": "address"
        },
        {
          "name": "_donorRole",
          "type": "address"
        },
        {
          "name": "_donationBase",
          "type": "address"
        }
      ],
      "payable": false,
      "stateMutability": "nonpayable",
      "type": "constructor"
    },
    {
      "constant": false,
      "inputs": [
        {
          "name": "_lottery",
          "type": "address"
        },
        {
          "name": "_charity",
          "type": "address"
        }
      ],
      "name": "initiateContract",
      "outputs": [],
      "payable": true,
      "stateMutability": "payable",
      "type": "function"
    },
    {
      "constant": false,
      "inputs": [],
      "name": "makeDonation",
      "outputs": [],
      "payable": true,
      "stateMutability": "payable",
      "type": "function"
    },
    {
      "constant": true,
      "inputs": [],
      "name": "fetchDonationID",
      "outputs": [
        {
          "name": "",
          "type": "uint256"
        }
      ],
      "payable": false,
      "stateMutability": "view",
      "type": "function"
    },
    {
      "constant": true,
      "inputs": [
        {
          "name": "_donationID",
          "type": "uint256"
        }
      ],
      "name": "fetchDonation",
      "outputs": [
        {
          "name": "owner",
          "type": "address"
        },
        {
          "name": "lottery",
          "type": "address"
        },
        {
          "name": "charity",
          "type": "address"
        },
        {
          "name": "donor",
          "type": "address"
        },
        {
          "name": "amount",
          "type": "uint256"
        },
        {
          "name": "charityAmount",
          "type": "uint256"
        },
        {
          "name": "lotteryAmount",
          "type": "uint256"
        },
        {
          "name": "ownerAmount",
          "type": "uint256"
        },
        {
          "name": "id",
          "type": "uint256"
        }
      ],
      "payable": false,
      "stateMutability": "view",
      "type": "function"
    },
    {
      "constant": true,
      "inputs": [],
      "name": "isInitialized",
      "outputs": [
        {
          "name": "",
          "type": "bool"
        }
      ],
      "payable": false,
      "stateMutability": "view",
      "type": "function"
    }
  ],
  "bytecode": "0x60806040526000600260146101000a81548160ff021916908315150217905550600160085534801561003057600080fd5b5060405160a0806127888339810180604052810190808051906020019092919080519060200190929190805190602001909291908051906020019092919080519060200190929190505050336000806101000a81548173ffffffffffffffffffffffffffffffffffffffff021916908373ffffffffffffffffffffffffffffffffffffffff16021790555084600360006101000a81548173ffffffffffffffffffffffffffffffffffffffff021916908373ffffffffffffffffffffffffffffffffffffffff16021790555083600460006101000a81548173ffffffffffffffffffffffffffffffffffffffff021916908373ffffffffffffffffffffffffffffffffffffffff16021790555082600560006101000a81548173ffffffffffffffffffffffffffffffffffffffff021916908373ffffffffffffffffffffffffffffffffffffffff16021790555081600660006101000a81548173ffffffffffffffffffffffffffffffffffffffff021916908373ffffffffffffffffffffffffffffffffffffffff16021790555080600760006101000a81548173ffffffffffffffffffffffffffffffffffffffff021916908373ffffffffffffffffffffffffffffffffffffffff1602179055505050505050612574806102146000396000f30060806040526004361061006d576000357c0100000000000000000000000000000000000000000000000000000000900463ffffffff168063392e53cd1461007257806340ea0a94146100a15780637b641baf146100ab57806395af60d5146101015780639afb3dc11461012c575b600080fd5b34801561007e57600080fd5b50610087610255565b604051808215151515815260200191505060405180910390f35b6100a961036f565b005b6100ff600480360381019080803573ffffffffffffffffffffffffffffffffffffffff169060200190929190803573ffffffffffffffffffffffffffffffffffffffff16906020019092919050505061142d565b005b34801561010d57600080fd5b506101166119f0565b6040518082815260200191505060405180910390f35b34801561013857600080fd5b5061015760048036038101908080359060200190929190505050611afd565b604051808a73ffffffffffffffffffffffffffffffffffffffff1673ffffffffffffffffffffffffffffffffffffffff1681526020018973ffffffffffffffffffffffffffffffffffffffff1673ffffffffffffffffffffffffffffffffffffffff1681526020018873ffffffffffffffffffffffffffffffffffffffff1673ffffffffffffffffffffffffffffffffffffffff1681526020018773ffffffffffffffffffffffffffffffffffffffff1673ffffffffffffffffffffffffffffffffffffffff168152602001868152602001858152602001848152602001838152602001828152602001995050505050505050505060405180910390f35b6000600360009054906101000a900473ffffffffffffffffffffffffffffffffffffffff1673ffffffffffffffffffffffffffffffffffffffff16632f54bf6e336040518263ffffffff167c0100000000000000000000000000000000000000000000000000000000028152600401808273ffffffffffffffffffffffffffffffffffffffff1673ffffffffffffffffffffffffffffffffffffffff168152602001915050602060405180830381600087803b15801561031457600080fd5b505af1158015610328573d6000803e3d6000fd5b505050506040513d602081101561033e57600080fd5b8101908080519060200190929190505050151561035a57600080fd5b600260149054906101000a900460ff16905090565b600080600080600060011515600260149054906101000a900460ff16151514801561048f5750600360009054906101000a900473ffffffffffffffffffffffffffffffffffffffff1673ffffffffffffffffffffffffffffffffffffffff16632f54bf6e336040518263ffffffff167c0100000000000000000000000000000000000000000000000000000000028152600401808273ffffffffffffffffffffffffffffffffffffffff1673ffffffffffffffffffffffffffffffffffffffff168152602001915050602060405180830381600087803b15801561045257600080fd5b505af1158015610466573d6000803e3d6000fd5b505050506040513d602081101561047c57600080fd5b8101908080519060200190929190505050155b80156105595750600460009054906101000a900473ffffffffffffffffffffffffffffffffffffffff1673ffffffffffffffffffffffffffffffffffffffff16636d7932d16040518163ffffffff167c0100000000000000000000000000000000000000000000000000000000028152600401602060405180830381600087803b15801561051c57600080fd5b505af1158015610530573d6000803e3d6000fd5b505050506040513d602081101561054657600080fd5b8101908080519060200190929190505050155b80156106235750600560009054906101000a900473ffffffffffffffffffffffffffffffffffffffff1673ffffffffffffffffffffffffffffffffffffffff166325698d896040518163ffffffff167c0100000000000000000000000000000000000000000000000000000000028152600401602060405180830381600087803b1580156105e657600080fd5b505af11580156105fa573d6000803e3d6000fd5b505050506040513d602081101561061057600080fd5b8101908080519060200190929190505050155b151561062e57600080fd5b600660009054906101000a900473ffffffffffffffffffffffffffffffffffffffff1673ffffffffffffffffffffffffffffffffffffffff166396064882336000809054906101000a900473ffffffffffffffffffffffffffffffffffffffff166040518363ffffffff167c0100000000000000000000000000000000000000000000000000000000028152600401808373ffffffffffffffffffffffffffffffffffffffff1673ffffffffffffffffffffffffffffffffffffffff1681526020018273ffffffffffffffffffffffffffffffffffffffff1673ffffffffffffffffffffffffffffffffffffffff16815260200192505050600060405180830381600087803b15801561074057600080fd5b505af1158015610754573d6000803e3d6000fd5b50505050600660009054906101000a900473ffffffffffffffffffffffffffffffffffffffff1673ffffffffffffffffffffffffffffffffffffffff166396c590436000809054906101000a900473ffffffffffffffffffffffffffffffffffffffff166040518263ffffffff167c0100000000000000000000000000000000000000000000000000000000028152600401808273ffffffffffffffffffffffffffffffffffffffff1673ffffffffffffffffffffffffffffffffffffffff168152602001915050602060405180830381600087803b15801561083657600080fd5b505af115801561084a573d6000803e3d6000fd5b505050506040513d602081101561086057600080fd5b81019080805190602001909291905050509450600760009054906101000a900473ffffffffffffffffffffffffffffffffffffffff1673ffffffffffffffffffffffffffffffffffffffff1663e8a1745b6000809054906101000a900473ffffffffffffffffffffffffffffffffffffffff16600160009054906101000a900473ffffffffffffffffffffffffffffffffffffffff16600260009054906101000a900473ffffffffffffffffffffffffffffffffffffffff16896008546040518663ffffffff167c0100000000000000000000000000000000000000000000000000000000028152600401808673ffffffffffffffffffffffffffffffffffffffff1673ffffffffffffffffffffffffffffffffffffffff1681526020018573ffffffffffffffffffffffffffffffffffffffff1673ffffffffffffffffffffffffffffffffffffffff1681526020018473ffffffffffffffffffffffffffffffffffffffff1673ffffffffffffffffffffffffffffffffffffffff1681526020018373ffffffffffffffffffffffffffffffffffffffff1673ffffffffffffffffffffffffffffffffffffffff16815260200182815260200195505050505050600060405180830381600087803b158015610a3b57600080fd5b505af1158015610a4f573d6000803e3d6000fd5b505050503493506064605f8502811515610a6557fe5b049250606460048502811515610a7757fe5b049150606460018502811515610a8957fe5b049050600760009054906101000a900473ffffffffffffffffffffffffffffffffffffffff1673ffffffffffffffffffffffffffffffffffffffff16633de08c366000809054906101000a900473ffffffffffffffffffffffffffffffffffffffff16866008546040518463ffffffff167c0100000000000000000000000000000000000000000000000000000000028152600401808473ffffffffffffffffffffffffffffffffffffffff1673ffffffffffffffffffffffffffffffffffffffff1681526020018381526020018281526020019350505050600060405180830381600087803b158015610b7c57600080fd5b505af1158015610b90573d6000803e3d6000fd5b50505050600260009054906101000a900473ffffffffffffffffffffffffffffffffffffffff1673ffffffffffffffffffffffffffffffffffffffff166108fc849081150290604051600060405180830381858888f19350505050158015610bfc573d6000803e3d6000fd5b50600760009054906101000a900473ffffffffffffffffffffffffffffffffffffffff1673ffffffffffffffffffffffffffffffffffffffff1663bcc212ca6000809054906101000a900473ffffffffffffffffffffffffffffffffffffffff16856008546040518463ffffffff167c0100000000000000000000000000000000000000000000000000000000028152600401808473ffffffffffffffffffffffffffffffffffffffff1673ffffffffffffffffffffffffffffffffffffffff1681526020018381526020018281526020019350505050600060405180830381600087803b158015610ced57600080fd5b505af1158015610d01573d6000803e3d6000fd5b50505050600160009054906101000a900473ffffffffffffffffffffffffffffffffffffffff1673ffffffffffffffffffffffffffffffffffffffff166108fc839081150290604051600060405180830381858888f19350505050158015610d6d573d6000803e3d6000fd5b50600760009054906101000a900473ffffffffffffffffffffffffffffffffffffffff1673ffffffffffffffffffffffffffffffffffffffff16631c85b0766000809054906101000a900473ffffffffffffffffffffffffffffffffffffffff16846008546040518463ffffffff167c0100000000000000000000000000000000000000000000000000000000028152600401808473ffffffffffffffffffffffffffffffffffffffff1673ffffffffffffffffffffffffffffffffffffffff1681526020018381526020018281526020019350505050600060405180830381600087803b158015610e5e57600080fd5b505af1158015610e72573d6000803e3d6000fd5b505050506000809054906101000a900473ffffffffffffffffffffffffffffffffffffffff1673ffffffffffffffffffffffffffffffffffffffff166108fc829081150290604051600060405180830381858888f19350505050158015610edd573d6000803e3d6000fd5b50600760009054906101000a900473ffffffffffffffffffffffffffffffffffffffff1673ffffffffffffffffffffffffffffffffffffffff16639d460ac16000809054906101000a900473ffffffffffffffffffffffffffffffffffffffff16836008546040518463ffffffff167c0100000000000000000000000000000000000000000000000000000000028152600401808473ffffffffffffffffffffffffffffffffffffffff1673ffffffffffffffffffffffffffffffffffffffff1681526020018381526020018281526020019350505050600060405180830381600087803b158015610fce57600080fd5b505af1158015610fe2573d6000803e3d6000fd5b50505050600760009054906101000a900473ffffffffffffffffffffffffffffffffffffffff1673ffffffffffffffffffffffffffffffffffffffff16638a655e2e6000809054906101000a900473ffffffffffffffffffffffffffffffffffffffff16876008546040518463ffffffff167c0100000000000000000000000000000000000000000000000000000000028152600401808473ffffffffffffffffffffffffffffffffffffffff1673ffffffffffffffffffffffffffffffffffffffff1681526020018373ffffffffffffffffffffffffffffffffffffffff1673ffffffffffffffffffffffffffffffffffffffff1681526020018281526020019350505050600060405180830381600087803b15801561110257600080fd5b505af1158015611116573d6000803e3d6000fd5b50505050600760009054906101000a900473ffffffffffffffffffffffffffffffffffffffff1673ffffffffffffffffffffffffffffffffffffffff166310b10d566000809054906101000a900473ffffffffffffffffffffffffffffffffffffffff16600160009054906101000a900473ffffffffffffffffffffffffffffffffffffffff16600260009054906101000a900473ffffffffffffffffffffffffffffffffffffffff1689898989896008546040518a63ffffffff167c0100000000000000000000000000000000000000000000000000000000028152600401808a73ffffffffffffffffffffffffffffffffffffffff1673ffffffffffffffffffffffffffffffffffffffff1681526020018973ffffffffffffffffffffffffffffffffffffffff1673ffffffffffffffffffffffffffffffffffffffff1681526020018873ffffffffffffffffffffffffffffffffffffffff1673ffffffffffffffffffffffffffffffffffffffff1681526020018773ffffffffffffffffffffffffffffffffffffffff1673ffffffffffffffffffffffffffffffffffffffff1681526020018681526020018581526020018481526020018381526020018281526020019950505050505050505050600060405180830381600087803b15801561130257600080fd5b505af1158015611316573d6000803e3d6000fd5b50505050600760009054906101000a900473ffffffffffffffffffffffffffffffffffffffff1673ffffffffffffffffffffffffffffffffffffffff1663a7bac9346000809054906101000a900473ffffffffffffffffffffffffffffffffffffffff166008546040518363ffffffff167c0100000000000000000000000000000000000000000000000000000000028152600401808373ffffffffffffffffffffffffffffffffffffffff1673ffffffffffffffffffffffffffffffffffffffff16815260200182815260200192505050600060405180830381600087803b15801561140257600080fd5b505af1158015611416573d6000803e3d6000fd5b505050506001600854016008819055505050505050565b60001515600260149054906101000a900460ff1615151480156115445750600360009054906101000a900473ffffffffffffffffffffffffffffffffffffffff1673ffffffffffffffffffffffffffffffffffffffff16632f54bf6e336040518263ffffffff167c0100000000000000000000000000000000000000000000000000000000028152600401808273ffffffffffffffffffffffffffffffffffffffff1673ffffffffffffffffffffffffffffffffffffffff168152602001915050602060405180830381600087803b15801561150857600080fd5b505af115801561151c573d6000803e3d6000fd5b505050506040513d602081101561153257600080fd5b81019080805190602001909291905050505b151561154f57600080fd5b600560009054906101000a900473ffffffffffffffffffffffffffffffffffffffff1673ffffffffffffffffffffffffffffffffffffffff166310ca8c8183336040518363ffffffff167c0100000000000000000000000000000000000000000000000000000000028152600401808373ffffffffffffffffffffffffffffffffffffffff1673ffffffffffffffffffffffffffffffffffffffff1681526020018273ffffffffffffffffffffffffffffffffffffffff1673ffffffffffffffffffffffffffffffffffffffff16815260200192505050600060405180830381600087803b15801561164057600080fd5b505af1158015611654573d6000803e3d6000fd5b50505050600560009054906101000a900473ffffffffffffffffffffffffffffffffffffffff1673ffffffffffffffffffffffffffffffffffffffff16631e88c9c0336040518263ffffffff167c0100000000000000000000000000000000000000000000000000000000028152600401808273ffffffffffffffffffffffffffffffffffffffff1673ffffffffffffffffffffffffffffffffffffffff168152602001915050602060405180830381600087803b15801561171557600080fd5b505af1158015611729573d6000803e3d6000fd5b505050506040513d602081101561173f57600080fd5b8101908080519060200190929190505050600160006101000a81548173ffffffffffffffffffffffffffffffffffffffff021916908373ffffffffffffffffffffffffffffffffffffffff160217905550600460009054906101000a900473ffffffffffffffffffffffffffffffffffffffff1673ffffffffffffffffffffffffffffffffffffffff16633fc7027782336040518363ffffffff167c0100000000000000000000000000000000000000000000000000000000028152600401808373ffffffffffffffffffffffffffffffffffffffff1673ffffffffffffffffffffffffffffffffffffffff1681526020018273ffffffffffffffffffffffffffffffffffffffff1673ffffffffffffffffffffffffffffffffffffffff16815260200192505050600060405180830381600087803b15801561188157600080fd5b505af1158015611895573d6000803e3d6000fd5b50505050600460009054906101000a900473ffffffffffffffffffffffffffffffffffffffff1673ffffffffffffffffffffffffffffffffffffffff16631bf230cd336040518263ffffffff167c0100000000000000000000000000000000000000000000000000000000028152600401808273ffffffffffffffffffffffffffffffffffffffff1673ffffffffffffffffffffffffffffffffffffffff168152602001915050602060405180830381600087803b15801561195657600080fd5b505af115801561196a573d6000803e3d6000fd5b505050506040513d602081101561198057600080fd5b8101908080519060200190929190505050600260006101000a81548173ffffffffffffffffffffffffffffffffffffffff021916908373ffffffffffffffffffffffffffffffffffffffff1602179055506001600260146101000a81548160ff0219169083151502179055505050565b6000600360009054906101000a900473ffffffffffffffffffffffffffffffffffffffff1673ffffffffffffffffffffffffffffffffffffffff16632f54bf6e336040518263ffffffff167c0100000000000000000000000000000000000000000000000000000000028152600401808273ffffffffffffffffffffffffffffffffffffffff1673ffffffffffffffffffffffffffffffffffffffff168152602001915050602060405180830381600087803b158015611aaf57600080fd5b505af1158015611ac3573d6000803e3d6000fd5b505050506040513d6020811015611ad957600080fd5b81019080805190602001909291905050501515611af557600080fd5b600854905090565b6000806000806000806000806000600360009054906101000a900473ffffffffffffffffffffffffffffffffffffffff1673ffffffffffffffffffffffffffffffffffffffff16632f54bf6e336040518263ffffffff167c0100000000000000000000000000000000000000000000000000000000028152600401808273ffffffffffffffffffffffffffffffffffffffff1673ffffffffffffffffffffffffffffffffffffffff168152602001915050602060405180830381600087803b158015611bc857600080fd5b505af1158015611bdc573d6000803e3d6000fd5b505050506040513d6020811015611bf257600080fd5b81019080805190602001909291905050501515611c0e57600080fd5b600760009054906101000a900473ffffffffffffffffffffffffffffffffffffffff1673ffffffffffffffffffffffffffffffffffffffff16635ae78eff338c6040518363ffffffff167c0100000000000000000000000000000000000000000000000000000000028152600401808373ffffffffffffffffffffffffffffffffffffffff1673ffffffffffffffffffffffffffffffffffffffff16815260200182815260200192505050602060405180830381600087803b158015611cd357600080fd5b505af1158015611ce7573d6000803e3d6000fd5b505050506040513d6020811015611cfd57600080fd5b81019080805190602001909291905050509850600760009054906101000a900473ffffffffffffffffffffffffffffffffffffffff1673ffffffffffffffffffffffffffffffffffffffff1663b74407be338c6040518363ffffffff167c0100000000000000000000000000000000000000000000000000000000028152600401808373ffffffffffffffffffffffffffffffffffffffff1673ffffffffffffffffffffffffffffffffffffffff16815260200182815260200192505050602060405180830381600087803b158015611dd557600080fd5b505af1158015611de9573d6000803e3d6000fd5b505050506040513d6020811015611dff57600080fd5b81019080805190602001909291905050509750600760009054906101000a900473ffffffffffffffffffffffffffffffffffffffff1673ffffffffffffffffffffffffffffffffffffffff1663063a4ac8338c6040518363ffffffff167c0100000000000000000000000000000000000000000000000000000000028152600401808373ffffffffffffffffffffffffffffffffffffffff1673ffffffffffffffffffffffffffffffffffffffff16815260200182815260200192505050602060405180830381600087803b158015611ed757600080fd5b505af1158015611eeb573d6000803e3d6000fd5b505050506040513d6020811015611f0157600080fd5b81019080805190602001909291905050509650600760009054906101000a900473ffffffffffffffffffffffffffffffffffffffff1673ffffffffffffffffffffffffffffffffffffffff16632b056a2b338c6040518363ffffffff167c0100000000000000000000000000000000000000000000000000000000028152600401808373ffffffffffffffffffffffffffffffffffffffff1673ffffffffffffffffffffffffffffffffffffffff16815260200182815260200192505050602060405180830381600087803b158015611fd957600080fd5b505af1158015611fed573d6000803e3d6000fd5b505050506040513d602081101561200357600080fd5b81019080805190602001909291905050509550600760009054906101000a900473ffffffffffffffffffffffffffffffffffffffff1673ffffffffffffffffffffffffffffffffffffffff16637e4ab5d8338c6040518363ffffffff167c0100000000000000000000000000000000000000000000000000000000028152600401808373ffffffffffffffffffffffffffffffffffffffff1673ffffffffffffffffffffffffffffffffffffffff16815260200182815260200192505050602060405180830381600087803b1580156120db57600080fd5b505af11580156120ef573d6000803e3d6000fd5b505050506040513d602081101561210557600080fd5b81019080805190602001909291905050509450600760009054906101000a900473ffffffffffffffffffffffffffffffffffffffff1673ffffffffffffffffffffffffffffffffffffffff166347ed2b3d338c6040518363ffffffff167c0100000000000000000000000000000000000000000000000000000000028152600401808373ffffffffffffffffffffffffffffffffffffffff1673ffffffffffffffffffffffffffffffffffffffff16815260200182815260200192505050602060405180830381600087803b1580156121dd57600080fd5b505af11580156121f1573d6000803e3d6000fd5b505050506040513d602081101561220757600080fd5b81019080805190602001909291905050509350600760009054906101000a900473ffffffffffffffffffffffffffffffffffffffff1673ffffffffffffffffffffffffffffffffffffffff166301a66252338c6040518363ffffffff167c0100000000000000000000000000000000000000000000000000000000028152600401808373ffffffffffffffffffffffffffffffffffffffff1673ffffffffffffffffffffffffffffffffffffffff16815260200182815260200192505050602060405180830381600087803b1580156122df57600080fd5b505af11580156122f3573d6000803e3d6000fd5b505050506040513d602081101561230957600080fd5b81019080805190602001909291905050509250600760009054906101000a900473ffffffffffffffffffffffffffffffffffffffff1673ffffffffffffffffffffffffffffffffffffffff1663cc853cf8338c6040518363ffffffff167c0100000000000000000000000000000000000000000000000000000000028152600401808373ffffffffffffffffffffffffffffffffffffffff1673ffffffffffffffffffffffffffffffffffffffff16815260200182815260200192505050602060405180830381600087803b1580156123e157600080fd5b505af11580156123f5573d6000803e3d6000fd5b505050506040513d602081101561240b57600080fd5b81019080805190602001909291905050509150600760009054906101000a900473ffffffffffffffffffffffffffffffffffffffff1673ffffffffffffffffffffffffffffffffffffffff16635e60c2f8338c6040518363ffffffff167c0100000000000000000000000000000000000000000000000000000000028152600401808373ffffffffffffffffffffffffffffffffffffffff1673ffffffffffffffffffffffffffffffffffffffff16815260200182815260200192505050602060405180830381600087803b1580156124e357600080fd5b505af11580156124f7573d6000803e3d6000fd5b505050506040513d602081101561250d57600080fd5b8101908080519060200190929190505050905088888888888888888898509850985098509850985098509850985091939597999092949698505600a165627a7a723058205af961f7b0ebdfb454566d5b4ab5cae09619d804615845facf014c9eb38d25290029",
  "source": "pragma solidity ^0.4.23;\r\n// add all imports for user privileges here\r\n\r\n// actor contracts\r\nimport \"./accesscontrol/CharityRole.sol\";\r\nimport \"./accesscontrol/OwnerRole.sol\";\r\nimport \"./accesscontrol/LotteryRole.sol\";\r\nimport \"./accesscontrol/DonorRole.sol\";\r\n\r\n// base contract\r\nimport \"./base/DonationBase.sol\";\r\n\r\n\r\ncontract Share {\r\n\r\n    address private Owner;\r\n    address private Lottery;\r\n    address private Charity;\r\n    bool private initialized = false;\r\n    OwnerRole private ownerRole;\r\n    CharityRole private charityRole;\r\n    LotteryRole private lotteryRole;\r\n    DonorRole private donorRole;\r\n    DonationBase private donationBase;\r\n\r\n    // assigns an ID to each donation\r\n    uint private donationID = 1;\r\n\r\n    /// @notice sets the owner to the Owner variable upon contract init\r\n    /// @dev can be expanded to account for many more constructor features\r\n    /// @param _ownerRole address, contains the address of the OwnerRole contract\r\n    /// @param _charityRole address, contains the address of the CharityRole contract\r\n    /// @param _lotteryRole address, contains the address of the LotteryRole contract\r\n    /// @param _donationBase address, contains the address of the DonationBase contract\r\n    constructor(address _ownerRole, address _charityRole, address _lotteryRole, address _donorRole, address _donationBase) public {\r\n        Owner = msg.sender;\r\n\r\n        // sets the address for the instance of each helper contract\r\n        ownerRole = OwnerRole(_ownerRole);\r\n        charityRole = CharityRole(_charityRole);\r\n        lotteryRole = LotteryRole(_lotteryRole);\r\n        donorRole = DonorRole(_donorRole);\r\n        donationBase = DonationBase(_donationBase);\r\n    }\r\n\r\n    // TODO - this logic must also include the new contract\r\n    function initiateContract(address _lottery, address _charity) public payable{\r\n\r\n        require(initialized == false && ownerRole.isOwner(msg.sender));\r\n\r\n        // TODO - this logic must add the smart contract address for CharityRole\r\n        // TODO - ei - Charity = CharityRole(_charity) - argument must contain address of contract\r\n\r\n        // sets the lottery for the lotteryRole contract\r\n        lotteryRole.setLottery(_lottery, msg.sender);\r\n\r\n        // gets lottery address\r\n        Lottery = lotteryRole.getLottery(msg.sender);\r\n\r\n        // sets the charity for the charityRole contract\r\n        charityRole.setCharity(_charity, msg.sender);\r\n\r\n        // gets charity address\r\n        Charity = charityRole.getCharity(msg.sender);\r\n\r\n        initialized = true;\r\n    }\r\n\r\n    /// @notice parent function for all contract functionality\r\n    /// @dev Should consider splitting this out further if necessary by reviewers\r\n\r\n    function makeDonation() public payable{\r\n        // owner, charity, and lottery accounts cannot utilize the handleFunds function\r\n        require(initialized == true && !ownerRole.isOwner(msg.sender) && !charityRole.isCharity() && !lotteryRole.isLottery());\r\n\r\n        donorRole.setDonor(msg.sender, Owner);\r\n        address Donor = donorRole.getDonor(Owner);\r\n\r\n        donationBase.setReceived(Owner, Lottery, Charity, Donor, donationID);\r\n\r\n        uint amount = msg.value;\r\n        uint charityAmount = amount * 95 / 100;\r\n        uint lotteryAmount = amount * 4 / 100;\r\n        uint ownerAmount = amount * 1 / 100;\r\n\r\n        donationBase.setProcessed(Owner, amount, donationID);\r\n\r\n        // TODO - these can be refactored to ownerRole, since it utilizes the transfer of ownership principle\r\n        Charity.transfer(charityAmount);\r\n\r\n        donationBase.setSentToCharity(Owner, charityAmount, donationID);\r\n\r\n        Lottery.transfer(lotteryAmount);\r\n\r\n        donationBase.setSentToLottery(Owner, lotteryAmount, donationID);\r\n\r\n        // dispatches remaining funds to owner, this ensures that all gas is covered\r\n        Owner.transfer(ownerAmount);\r\n\r\n        donationBase.setSentToOwner(Owner, ownerAmount, donationID);\r\n\r\n\r\n        // add lotteryEntrees struct\r\n        donationBase.setLottery(Owner, Donor, donationID);\r\n\r\n        // TODO - figure out why state updates are not updating donationID, pointless extra memory usage by setting donation twice\r\n        donationBase.setDonation(\r\n            Owner,\r\n            Lottery,\r\n            Charity,\r\n            Donor,\r\n            amount,\r\n            charityAmount,\r\n            lotteryAmount,\r\n            ownerAmount,\r\n            donationID\r\n        );\r\n\r\n        donationBase.setStored(Owner, donationID);\r\n\r\n        // updates donationID;\r\n        donationID = donationID + 1;\r\n    }\r\n\r\n    function fetchDonationID() public view returns (uint){\r\n\r\n        // requires the owner to call this function, only owner address can access donationID atm\r\n        require(ownerRole.isOwner(msg.sender));\r\n\r\n        return donationID;\r\n    }\r\n\r\n    function fetchDonation(uint _donationID) public view returns (\r\n        address owner,\r\n        address lottery,\r\n        address charity,\r\n        address donor,\r\n        uint amount,\r\n        uint charityAmount,\r\n        uint lotteryAmount,\r\n        uint ownerAmount,\r\n        uint id\r\n    ){\r\n\r\n        // requires the owner to call this function, only owner address can access donationID atm\r\n        require(ownerRole.isOwner(msg.sender));\r\n\r\n        owner = donationBase.getDonationOwner(msg.sender, _donationID);\r\n        lottery = donationBase.getDonationLottery(msg.sender, _donationID);\r\n        charity = donationBase.getDonationCharity(msg.sender, _donationID);\r\n        donor = donationBase.getDonationDonor(msg.sender, _donationID);\r\n        amount = donationBase.getDonationAmount(msg.sender, _donationID);\r\n        charityAmount = donationBase.getDonationCharityAmount(msg.sender, _donationID);\r\n        lotteryAmount = donationBase.getDonationLotteryAmount(msg.sender, _donationID);\r\n        ownerAmount = donationBase.getDonationOwnerAmount(msg.sender, _donationID);\r\n        id = donationBase.getDonationId(msg.sender, _donationID);\r\n\r\n        return ( owner, lottery, charity, donor, amount, charityAmount, lotteryAmount, ownerAmount, id);\r\n    }\r\n\r\n    function isInitialized() public view returns(bool){\r\n        require(ownerRole.isOwner(msg.sender));\r\n        return initialized;\r\n    }\r\n\r\n}\r\n\r\n",
  "sourcePath": "D:\\Documents\\School\\Share\\ethereum\\contracts\\Share.sol",
  "compiler": {
    "name": "solc",
    "version": "0.4.25+commit.59dbf8f1.Emscripten.clang"
  },
  "schemaVersion": "2.0.2",
  "updatedAt": "2019-04-28T20:19:38.435Z"
}