{
  "contractName": "Share",
  "abi": [
    {
      "constant": true,
      "inputs": [
        {
          "name": "",
          "type": "address"
        }
      ],
      "name": "lotteryEntrees",
      "outputs": [
        {
          "name": "",
          "type": "address"
        }
      ],
      "payable": false,
      "stateMutability": "view",
      "type": "function"
    },
    {
      "inputs": [
        {
          "name": "_ownable",
          "type": "address"
        },
        {
          "name": "_charityRole",
          "type": "address"
        },
        {
          "name": "_lotteryRole",
          "type": "address"
        }
      ],
      "payable": false,
      "stateMutability": "nonpayable",
      "type": "constructor"
    },
    {
      "constant": false,
      "inputs": [
        {
          "name": "_lottery",
          "type": "address"
        },
        {
          "name": "_charity",
          "type": "address"
        }
      ],
      "name": "initiateContract",
      "outputs": [],
      "payable": true,
      "stateMutability": "payable",
      "type": "function"
    },
    {
      "constant": false,
      "inputs": [],
      "name": "makeDonation",
      "outputs": [],
      "payable": true,
      "stateMutability": "payable",
      "type": "function"
    },
    {
      "constant": true,
      "inputs": [],
      "name": "fetchDonationID",
      "outputs": [
        {
          "name": "",
          "type": "uint256"
        }
      ],
      "payable": false,
      "stateMutability": "view",
      "type": "function"
    },
    {
      "constant": true,
      "inputs": [
        {
          "name": "_id",
          "type": "uint256"
        }
      ],
      "name": "fetchDonation",
      "outputs": [
        {
          "name": "owner",
          "type": "address"
        },
        {
          "name": "lottery",
          "type": "address"
        },
        {
          "name": "charity",
          "type": "address"
        },
        {
          "name": "donor",
          "type": "address"
        },
        {
          "name": "amount",
          "type": "uint256"
        },
        {
          "name": "charityAmount",
          "type": "uint256"
        },
        {
          "name": "lotteryAmount",
          "type": "uint256"
        },
        {
          "name": "ownerAmount",
          "type": "uint256"
        },
        {
          "name": "id",
          "type": "uint256"
        }
      ],
      "payable": false,
      "stateMutability": "view",
      "type": "function"
    },
    {
      "constant": true,
      "inputs": [],
      "name": "isInitialized",
      "outputs": [
        {
          "name": "",
          "type": "bool"
        }
      ],
      "payable": false,
      "stateMutability": "view",
      "type": "function"
    }
  ],
  "bytecode": "0x60806040526000600260146101000a81548160ff021916908315150217905550600160065534801561003057600080fd5b50604051606080611661833981018060405281019080805190602001909291908051906020019092919080519060200190929190505050336000806101000a81548173ffffffffffffffffffffffffffffffffffffffff021916908373ffffffffffffffffffffffffffffffffffffffff16021790555082600360006101000a81548173ffffffffffffffffffffffffffffffffffffffff021916908373ffffffffffffffffffffffffffffffffffffffff16021790555081600460006101000a81548173ffffffffffffffffffffffffffffffffffffffff021916908373ffffffffffffffffffffffffffffffffffffffff16021790555080600560006101000a81548173ffffffffffffffffffffffffffffffffffffffff021916908373ffffffffffffffffffffffffffffffffffffffff1602179055505050506114e58061017c6000396000f300608060405260043610610078576000357c0100000000000000000000000000000000000000000000000000000000900463ffffffff168063392e53cd1461007d57806340ea0a94146100ac5780637b641baf146100b657806395af60d51461010c5780639afb3dc114610137578063b650d1f914610260575b600080fd5b34801561008957600080fd5b506100926102e3565b604051808215151515815260200191505060405180910390f35b6100b46103fd565b005b61010a600480360381019080803573ffffffffffffffffffffffffffffffffffffffff169060200190929190803573ffffffffffffffffffffffffffffffffffffffff169060200190929190505050610aa6565b005b34801561011857600080fd5b50610121611069565b6040518082815260200191505060405180910390f35b34801561014357600080fd5b50610162600480360381019080803590602001909291905050506110ce565b604051808a73ffffffffffffffffffffffffffffffffffffffff1673ffffffffffffffffffffffffffffffffffffffff1681526020018973ffffffffffffffffffffffffffffffffffffffff1673ffffffffffffffffffffffffffffffffffffffff1681526020018873ffffffffffffffffffffffffffffffffffffffff1673ffffffffffffffffffffffffffffffffffffffff1681526020018773ffffffffffffffffffffffffffffffffffffffff1673ffffffffffffffffffffffffffffffffffffffff168152602001868152602001858152602001848152602001838152602001828152602001995050505050505050505060405180910390f35b34801561026c57600080fd5b506102a1600480360381019080803573ffffffffffffffffffffffffffffffffffffffff1690602001909291905050506113e1565b604051808273ffffffffffffffffffffffffffffffffffffffff1673ffffffffffffffffffffffffffffffffffffffff16815260200191505060405180910390f35b6000600360009054906101000a900473ffffffffffffffffffffffffffffffffffffffff1673ffffffffffffffffffffffffffffffffffffffff16632f54bf6e336040518263ffffffff167c0100000000000000000000000000000000000000000000000000000000028152600401808273ffffffffffffffffffffffffffffffffffffffff1673ffffffffffffffffffffffffffffffffffffffff168152602001915050602060405180830381600087803b1580156103a257600080fd5b505af11580156103b6573d6000803e3d6000fd5b505050506040513d60208110156103cc57600080fd5b810190808051906020019092919050505015156103e857600080fd5b600260149054906101000a900460ff16905090565b60008060008060011515600260149054906101000a900460ff16151514801561051b5750600360009054906101000a900473ffffffffffffffffffffffffffffffffffffffff1673ffffffffffffffffffffffffffffffffffffffff16632f54bf6e336040518263ffffffff167c0100000000000000000000000000000000000000000000000000000000028152600401808273ffffffffffffffffffffffffffffffffffffffff1673ffffffffffffffffffffffffffffffffffffffff168152602001915050602060405180830381600087803b1580156104de57600080fd5b505af11580156104f2573d6000803e3d6000fd5b505050506040513d602081101561050857600080fd5b8101908080519060200190929190505050155b80156105e55750600460009054906101000a900473ffffffffffffffffffffffffffffffffffffffff1673ffffffffffffffffffffffffffffffffffffffff16636d7932d16040518163ffffffff167c0100000000000000000000000000000000000000000000000000000000028152600401602060405180830381600087803b1580156105a857600080fd5b505af11580156105bc573d6000803e3d6000fd5b505050506040513d60208110156105d257600080fd5b8101908080519060200190929190505050155b80156106af5750600560009054906101000a900473ffffffffffffffffffffffffffffffffffffffff1673ffffffffffffffffffffffffffffffffffffffff166325698d896040518163ffffffff167c0100000000000000000000000000000000000000000000000000000000028152600401602060405180830381600087803b15801561067257600080fd5b505af1158015610686573d6000803e3d6000fd5b505050506040513d602081101561069c57600080fd5b8101908080519060200190929190505050155b15156106ba57600080fd5b3493506064605f85028115156106cc57fe5b0492506064600485028115156106de57fe5b0491506064600185028115156106f057fe5b049050600260009054906101000a900473ffffffffffffffffffffffffffffffffffffffff1673ffffffffffffffffffffffffffffffffffffffff166108fc849081150290604051600060405180830381858888f1935050505015801561075b573d6000803e3d6000fd5b50600160009054906101000a900473ffffffffffffffffffffffffffffffffffffffff1673ffffffffffffffffffffffffffffffffffffffff166108fc839081150290604051600060405180830381858888f193505050501580156107c4573d6000803e3d6000fd5b506000809054906101000a900473ffffffffffffffffffffffffffffffffffffffff1673ffffffffffffffffffffffffffffffffffffffff166108fc829081150290604051600060405180830381858888f1935050505015801561082c573d6000803e3d6000fd5b50610120604051908101604052806000809054906101000a900473ffffffffffffffffffffffffffffffffffffffff1673ffffffffffffffffffffffffffffffffffffffff168152602001600160009054906101000a900473ffffffffffffffffffffffffffffffffffffffff1673ffffffffffffffffffffffffffffffffffffffff168152602001600260009054906101000a900473ffffffffffffffffffffffffffffffffffffffff1673ffffffffffffffffffffffffffffffffffffffff1681526020013373ffffffffffffffffffffffffffffffffffffffff16815260200185815260200184815260200183815260200182815260200160065481525060086000600654815260200190815260200160002060008201518160000160006101000a81548173ffffffffffffffffffffffffffffffffffffffff021916908373ffffffffffffffffffffffffffffffffffffffff16021790555060208201518160010160006101000a81548173ffffffffffffffffffffffffffffffffffffffff021916908373ffffffffffffffffffffffffffffffffffffffff16021790555060408201518160020160006101000a81548173ffffffffffffffffffffffffffffffffffffffff021916908373ffffffffffffffffffffffffffffffffffffffff16021790555060608201518160030160006101000a81548173ffffffffffffffffffffffffffffffffffffffff021916908373ffffffffffffffffffffffffffffffffffffffff1602179055506080820151816004015560a0820151816005015560c0820151816006015560e08201518160070155610100820151816008015590505060016006540160068190555050505050565b60001515600260149054906101000a900460ff161515148015610bbd5750600360009054906101000a900473ffffffffffffffffffffffffffffffffffffffff1673ffffffffffffffffffffffffffffffffffffffff16632f54bf6e336040518263ffffffff167c0100000000000000000000000000000000000000000000000000000000028152600401808273ffffffffffffffffffffffffffffffffffffffff1673ffffffffffffffffffffffffffffffffffffffff168152602001915050602060405180830381600087803b158015610b8157600080fd5b505af1158015610b95573d6000803e3d6000fd5b505050506040513d6020811015610bab57600080fd5b81019080805190602001909291905050505b1515610bc857600080fd5b600560009054906101000a900473ffffffffffffffffffffffffffffffffffffffff1673ffffffffffffffffffffffffffffffffffffffff166310ca8c8183336040518363ffffffff167c0100000000000000000000000000000000000000000000000000000000028152600401808373ffffffffffffffffffffffffffffffffffffffff1673ffffffffffffffffffffffffffffffffffffffff1681526020018273ffffffffffffffffffffffffffffffffffffffff1673ffffffffffffffffffffffffffffffffffffffff16815260200192505050600060405180830381600087803b158015610cb957600080fd5b505af1158015610ccd573d6000803e3d6000fd5b50505050600560009054906101000a900473ffffffffffffffffffffffffffffffffffffffff1673ffffffffffffffffffffffffffffffffffffffff16631e88c9c0336040518263ffffffff167c0100000000000000000000000000000000000000000000000000000000028152600401808273ffffffffffffffffffffffffffffffffffffffff1673ffffffffffffffffffffffffffffffffffffffff168152602001915050602060405180830381600087803b158015610d8e57600080fd5b505af1158015610da2573d6000803e3d6000fd5b505050506040513d6020811015610db857600080fd5b8101908080519060200190929190505050600160006101000a81548173ffffffffffffffffffffffffffffffffffffffff021916908373ffffffffffffffffffffffffffffffffffffffff160217905550600460009054906101000a900473ffffffffffffffffffffffffffffffffffffffff1673ffffffffffffffffffffffffffffffffffffffff16633fc7027782336040518363ffffffff167c0100000000000000000000000000000000000000000000000000000000028152600401808373ffffffffffffffffffffffffffffffffffffffff1673ffffffffffffffffffffffffffffffffffffffff1681526020018273ffffffffffffffffffffffffffffffffffffffff1673ffffffffffffffffffffffffffffffffffffffff16815260200192505050600060405180830381600087803b158015610efa57600080fd5b505af1158015610f0e573d6000803e3d6000fd5b50505050600460009054906101000a900473ffffffffffffffffffffffffffffffffffffffff1673ffffffffffffffffffffffffffffffffffffffff16631bf230cd336040518263ffffffff167c0100000000000000000000000000000000000000000000000000000000028152600401808273ffffffffffffffffffffffffffffffffffffffff1673ffffffffffffffffffffffffffffffffffffffff168152602001915050602060405180830381600087803b158015610fcf57600080fd5b505af1158015610fe3573d6000803e3d6000fd5b505050506040513d6020811015610ff957600080fd5b8101908080519060200190929190505050600260006101000a81548173ffffffffffffffffffffffffffffffffffffffff021916908373ffffffffffffffffffffffffffffffffffffffff1602179055506001600260146101000a81548160ff0219169083151502179055505050565b60008060009054906101000a900473ffffffffffffffffffffffffffffffffffffffff1673ffffffffffffffffffffffffffffffffffffffff163373ffffffffffffffffffffffffffffffffffffffff161415156110c657600080fd5b600654905090565b60008060008060008060008060006110e4611414565b600360009054906101000a900473ffffffffffffffffffffffffffffffffffffffff1673ffffffffffffffffffffffffffffffffffffffff16632f54bf6e336040518263ffffffff167c0100000000000000000000000000000000000000000000000000000000028152600401808273ffffffffffffffffffffffffffffffffffffffff1673ffffffffffffffffffffffffffffffffffffffff168152602001915050602060405180830381600087803b1580156111a157600080fd5b505af11580156111b5573d6000803e3d6000fd5b505050506040513d60208110156111cb57600080fd5b810190808051906020019092919050505015156111e757600080fd5b600860008c815260200190815260200160002061012060405190810160405290816000820160009054906101000a900473ffffffffffffffffffffffffffffffffffffffff1673ffffffffffffffffffffffffffffffffffffffff1673ffffffffffffffffffffffffffffffffffffffff1681526020016001820160009054906101000a900473ffffffffffffffffffffffffffffffffffffffff1673ffffffffffffffffffffffffffffffffffffffff1673ffffffffffffffffffffffffffffffffffffffff1681526020016002820160009054906101000a900473ffffffffffffffffffffffffffffffffffffffff1673ffffffffffffffffffffffffffffffffffffffff1673ffffffffffffffffffffffffffffffffffffffff1681526020016003820160009054906101000a900473ffffffffffffffffffffffffffffffffffffffff1673ffffffffffffffffffffffffffffffffffffffff1673ffffffffffffffffffffffffffffffffffffffff168152602001600482015481526020016005820154815260200160068201548152602001600782015481526020016008820154815250509050806000015181602001518260400151836060015184608001518560a001518660c001518760e00151886101000151995099509950995099509950995099509950509193959799909294969850565b60076020528060005260406000206000915054906101000a900473ffffffffffffffffffffffffffffffffffffffff1681565b61012060405190810160405280600073ffffffffffffffffffffffffffffffffffffffff168152602001600073ffffffffffffffffffffffffffffffffffffffff168152602001600073ffffffffffffffffffffffffffffffffffffffff168152602001600073ffffffffffffffffffffffffffffffffffffffff168152602001600081526020016000815260200160008152602001600081526020016000815250905600a165627a7a72305820c7b51f216f9b5fad205e3e3693ca0f510cc98bbe56ef0ced5556056bd44205670029",
  "source": "pragma solidity ^0.4.23;\r\n// add all imports for user privileges here\r\n\r\n// actor contracts\r\nimport \"./accesscontrol/CharityRole.sol\";\r\nimport \"./core/Ownable.sol\";\r\nimport \"./accesscontrol/LotteryRole.sol\";\r\n\r\ncontract Share {\r\n\r\n    address private Owner;\r\n    address private Lottery;\r\n    address private Charity;\r\n    bool private initialized = false;\r\n    Ownable private ownableContract;\r\n    CharityRole private charityContract;\r\n    LotteryRole private lotteryContract;\r\n\r\n    // assigns an ID to each donation\r\n    uint private donationID = 1;\r\n\r\n    /// @notice sets the owner to the Owner variable upon contract init\r\n    /// @dev can be expanded to account for many more constructor features\r\n    constructor(address _ownable, address _charityRole, address _lotteryRole) public {\r\n        Owner = msg.sender;\r\n\r\n        // sets the address for the instance of each helper contract\r\n        ownableContract = Ownable(_ownable);\r\n        charityContract = CharityRole(_charityRole);\r\n        lotteryContract = LotteryRole(_lotteryRole);\r\n    }\r\n\r\n    /// @notice Contains the stucture of the star metadata\r\n    /// @dev key of structure is the provided transaction hash, will be donationId in v2.0\r\n    /// @param owner address, contains the address of the contract owner\r\n    /// @param lottery address, contains the address of the lottery - ether account for v1.0, contract for v2.0\r\n    /// @param charity address, contains the address of the charity - an ether account for v1.0 and v2.0\r\n    /// @param donor address, contains the address of the contract owner - ether account always\r\n    /// @param amount uint, contains the original amount donated - all amounts are after gas\r\n    /// @param charityAmount, contains the remaining 95% of original amount sent to charity\r\n    /// @param lotteryAmount uint, contains the 4% of original amount sent to lottery\r\n    /// @param ownerAmount, contains the 1% of original amount sent to owner\r\n    /// @param id, contains the value of the last submitted donation - is returned to ui\r\n    // TODO - refactor all data handling, updating, and transfer to a BASE data management contract in the future\r\n    struct Donation {\r\n        address owner;\r\n        address lottery;\r\n        address charity;\r\n        address donor;\r\n        uint amount;\r\n        uint charityAmount;\r\n        uint lotteryAmount;\r\n        uint ownerAmount;\r\n        uint id;\r\n    }\r\n\r\n    /// @notice Contains the mapping for the lottery entrees\r\n    /// @dev\r\n    /// @param donor address, will be expanded for v2.0\r\n\r\n    mapping(address => address) public lotteryEntrees;\r\n\r\n    /// @notice Contains the mapping for donation data\r\n    /// @dev key of structure is the transactionHash, in v2.0 a donationId will be introduced\r\n    /// @param Donation structure, contains donation metadata\r\n\r\n    mapping(uint => Donation) private Donations;\r\n\r\n    /// @notice Initiates the contract once deployed, only available to owner\r\n    /// @dev Need to test the syntax here, unsure the require function works\r\n    /// @param _lottery address, contains the ethereum public key for lottery account\r\n    /// @param _charity address, contains the ethereum public key for charity account\r\n\r\n    // TODO - this logic must also include the new contract\r\n    function initiateContract(address _lottery, address _charity) public payable{\r\n\r\n        require(initialized == false && ownableContract.isOwner(msg.sender));\r\n\r\n        // TODO - this logic must add the smart contract address for CharityRole\r\n        // TODO - ei - Charity = CharityRole(_charity) - argument must contain address of contract\r\n\r\n        // sets the lottery for the lotteryRole contract\r\n        lotteryContract.setLottery(_lottery, msg.sender);\r\n\r\n        // gets lottery address\r\n        Lottery = lotteryContract.getLottery(msg.sender);\r\n\r\n        // sets the charity for the charityRole contract\r\n        charityContract.setCharity(_charity, msg.sender);\r\n\r\n        // gets charity address\r\n        Charity = charityContract.getCharity(msg.sender);\r\n\r\n        initialized = true;\r\n    }\r\n\r\n    /// @notice parent function for all contract functionality\r\n    /// @dev Should consider splitting this out further if necessary by reviewers\r\n\r\n    function makeDonation() public payable{\r\n        // owner, charity, and lottery accounts cannot utilize the handleFunds function\r\n        require(initialized == true && !ownableContract.isOwner(msg.sender) && !charityContract.isCharity() && !lotteryContract.isLottery());\r\n\r\n        // creates the amount variable, used to set the amount later on in this function\r\n        // these math. functions can be move to the API to avoid gas cost for calculations\r\n        uint amount = msg.value;\r\n        uint charityAmount = amount * 95 / 100;\r\n        uint lotteryAmount = amount * 4 / 100;\r\n        uint ownerAmount = amount * 1 / 100;\r\n\r\n        // TODO - these can be refactored to ownableContract, since it utilizes the transfer of ownership principle\r\n        Charity.transfer(charityAmount);\r\n        Lottery.transfer(lotteryAmount);\r\n\r\n        // dispatches remaining funds to owner, this ensures that all gas is covered\r\n        Owner.transfer(ownerAmount);\r\n\r\n        // stores all the data\r\n        Donations[donationID] = Donation(Owner, Lottery, Charity, msg.sender, amount, charityAmount, lotteryAmount, ownerAmount, donationID);\r\n\r\n        // updates donationID;\r\n        donationID = donationID + 1;\r\n    }\r\n\r\n    function fetchDonationID() public view returns (uint){\r\n\r\n        // requires the owner to call this function, only owner address can access donationID atm\r\n        require(msg.sender == Owner);\r\n\r\n        return donationID;\r\n    }\r\n\r\n    function fetchDonation(uint _id) public view returns (address owner,\r\n        address lottery,\r\n        address charity,\r\n        address donor,\r\n        uint amount,\r\n        uint charityAmount,\r\n        uint lotteryAmount,\r\n        uint ownerAmount,\r\n        uint id){\r\n\r\n        // requires the owner to call this function, only owner address can access donationID atm\r\n        require(ownableContract.isOwner(msg.sender));\r\n\r\n        Donation memory donation = Donations[_id];\r\n\r\n        return ( donation.owner, donation.lottery, donation.charity, donation.donor, donation.amount, donation.charityAmount, donation.lotteryAmount, donation.ownerAmount, donation.id);\r\n    }\r\n\r\n    function isInitialized() public view returns(bool){\r\n        require(ownableContract.isOwner(msg.sender));\r\n        return initialized;\r\n    }\r\n\r\n}\r\n\r\n",
  "sourcePath": "D:\\Documents\\School\\Share\\ethereum\\contracts\\Share.sol",
  "compiler": {
    "name": "solc",
    "version": "0.4.25+commit.59dbf8f1.Emscripten.clang"
  },
  "schemaVersion": "2.0.2",
  "updatedAt": "2019-03-29T01:42:25.874Z"
}