{
  "contractName": "Share",
  "abi": [
    {
      "constant": true,
      "inputs": [],
      "name": "initialized",
      "outputs": [
        {
          "name": "",
          "type": "bool"
        }
      ],
      "payable": false,
      "stateMutability": "view",
      "type": "function"
    },
    {
      "constant": true,
      "inputs": [],
      "name": "Charity",
      "outputs": [
        {
          "name": "",
          "type": "address"
        }
      ],
      "payable": false,
      "stateMutability": "view",
      "type": "function"
    },
    {
      "constant": true,
      "inputs": [],
      "name": "Lottery",
      "outputs": [
        {
          "name": "",
          "type": "address"
        }
      ],
      "payable": false,
      "stateMutability": "view",
      "type": "function"
    },
    {
      "constant": true,
      "inputs": [
        {
          "name": "",
          "type": "uint256"
        }
      ],
      "name": "Donations",
      "outputs": [
        {
          "name": "owner",
          "type": "address"
        },
        {
          "name": "lottery",
          "type": "address"
        },
        {
          "name": "charity",
          "type": "address"
        },
        {
          "name": "donor",
          "type": "address"
        },
        {
          "name": "amount",
          "type": "uint256"
        },
        {
          "name": "charityAmount",
          "type": "uint256"
        },
        {
          "name": "lotteryAmount",
          "type": "uint256"
        },
        {
          "name": "ownerAmount",
          "type": "uint256"
        },
        {
          "name": "donationID",
          "type": "uint256"
        }
      ],
      "payable": false,
      "stateMutability": "view",
      "type": "function"
    },
    {
      "constant": true,
      "inputs": [
        {
          "name": "",
          "type": "address"
        }
      ],
      "name": "lotteryEntrees",
      "outputs": [
        {
          "name": "",
          "type": "address"
        }
      ],
      "payable": false,
      "stateMutability": "view",
      "type": "function"
    },
    {
      "inputs": [],
      "payable": false,
      "stateMutability": "nonpayable",
      "type": "constructor"
    },
    {
      "constant": false,
      "inputs": [
        {
          "name": "_lottery",
          "type": "address"
        },
        {
          "name": "_charity",
          "type": "address"
        }
      ],
      "name": "initiateContract",
      "outputs": [],
      "payable": true,
      "stateMutability": "payable",
      "type": "function"
    },
    {
      "constant": false,
      "inputs": [],
      "name": "makeDonation",
      "outputs": [],
      "payable": true,
      "stateMutability": "payable",
      "type": "function"
    },
    {
      "constant": true,
      "inputs": [],
      "name": "fetchDonationID",
      "outputs": [
        {
          "name": "",
          "type": "uint256"
        }
      ],
      "payable": false,
      "stateMutability": "view",
      "type": "function"
    }
  ],
  "bytecode": "0x60806040526000600260146101000a81548160ff021916908315150217905550600160035534801561003057600080fd5b50336000806101000a81548173ffffffffffffffffffffffffffffffffffffffff021916908373ffffffffffffffffffffffffffffffffffffffff160217905550610b94806100806000396000f30060806040526004361061008e576000357c0100000000000000000000000000000000000000000000000000000000900463ffffffff168063158ef93e14610093578063258c2a2d146100c257806340ea0a94146101195780634245b0f7146101235780637b641baf1461017a57806395af60d5146101d0578063b2142d85146101fb578063b650d1f914610324575b600080fd5b34801561009f57600080fd5b506100a86103a7565b604051808215151515815260200191505060405180910390f35b3480156100ce57600080fd5b506100d76103ba565b604051808273ffffffffffffffffffffffffffffffffffffffff1673ffffffffffffffffffffffffffffffffffffffff16815260200191505060405180910390f35b6101216103e0565b005b34801561012f57600080fd5b506101386108e0565b604051808273ffffffffffffffffffffffffffffffffffffffff1673ffffffffffffffffffffffffffffffffffffffff16815260200191505060405180910390f35b6101ce600480360381019080803573ffffffffffffffffffffffffffffffffffffffff169060200190929190803573ffffffffffffffffffffffffffffffffffffffff169060200190929190505050610906565b005b3480156101dc57600080fd5b506101e5610a02565b6040518082815260200191505060405180910390f35b34801561020757600080fd5b5061022660048036038101908080359060200190929190505050610a67565b604051808a73ffffffffffffffffffffffffffffffffffffffff1673ffffffffffffffffffffffffffffffffffffffff1681526020018973ffffffffffffffffffffffffffffffffffffffff1673ffffffffffffffffffffffffffffffffffffffff1681526020018873ffffffffffffffffffffffffffffffffffffffff1673ffffffffffffffffffffffffffffffffffffffff1681526020018773ffffffffffffffffffffffffffffffffffffffff1673ffffffffffffffffffffffffffffffffffffffff168152602001868152602001858152602001848152602001838152602001828152602001995050505050505050505060405180910390f35b34801561033057600080fd5b50610365600480360381019080803573ffffffffffffffffffffffffffffffffffffffff169060200190929190505050610b35565b604051808273ffffffffffffffffffffffffffffffffffffffff1673ffffffffffffffffffffffffffffffffffffffff16815260200191505060405180910390f35b600260149054906101000a900460ff1681565b600260009054906101000a900473ffffffffffffffffffffffffffffffffffffffff1681565b6000806000806000809054906101000a900473ffffffffffffffffffffffffffffffffffffffff1673ffffffffffffffffffffffffffffffffffffffff163373ffffffffffffffffffffffffffffffffffffffff161415806104905750600160009054906101000a900473ffffffffffffffffffffffffffffffffffffffff1673ffffffffffffffffffffffffffffffffffffffff163373ffffffffffffffffffffffffffffffffffffffff1614155b806104e95750600260009054906101000a900473ffffffffffffffffffffffffffffffffffffffff1673ffffffffffffffffffffffffffffffffffffffff163373ffffffffffffffffffffffffffffffffffffffff1614155b15156104f457600080fd5b3493506064605f850281151561050657fe5b04925060646004850281151561051857fe5b04915060646001850281151561052a57fe5b049050600260009054906101000a900473ffffffffffffffffffffffffffffffffffffffff1673ffffffffffffffffffffffffffffffffffffffff166108fc849081150290604051600060405180830381858888f19350505050158015610595573d6000803e3d6000fd5b50600160009054906101000a900473ffffffffffffffffffffffffffffffffffffffff1673ffffffffffffffffffffffffffffffffffffffff166108fc839081150290604051600060405180830381858888f193505050501580156105fe573d6000803e3d6000fd5b506000809054906101000a900473ffffffffffffffffffffffffffffffffffffffff1673ffffffffffffffffffffffffffffffffffffffff166108fc829081150290604051600060405180830381858888f19350505050158015610666573d6000803e3d6000fd5b50610120604051908101604052806000809054906101000a900473ffffffffffffffffffffffffffffffffffffffff1673ffffffffffffffffffffffffffffffffffffffff168152602001600160009054906101000a900473ffffffffffffffffffffffffffffffffffffffff1673ffffffffffffffffffffffffffffffffffffffff168152602001600260009054906101000a900473ffffffffffffffffffffffffffffffffffffffff1673ffffffffffffffffffffffffffffffffffffffff1681526020013373ffffffffffffffffffffffffffffffffffffffff16815260200185815260200184815260200183815260200182815260200160035481525060056000600354815260200190815260200160002060008201518160000160006101000a81548173ffffffffffffffffffffffffffffffffffffffff021916908373ffffffffffffffffffffffffffffffffffffffff16021790555060208201518160010160006101000a81548173ffffffffffffffffffffffffffffffffffffffff021916908373ffffffffffffffffffffffffffffffffffffffff16021790555060408201518160020160006101000a81548173ffffffffffffffffffffffffffffffffffffffff021916908373ffffffffffffffffffffffffffffffffffffffff16021790555060608201518160030160006101000a81548173ffffffffffffffffffffffffffffffffffffffff021916908373ffffffffffffffffffffffffffffffffffffffff1602179055506080820151816004015560a0820151816005015560c0820151816006015560e08201518160070155610100820151816008015590505060016003540160038190555050505050565b600160009054906101000a900473ffffffffffffffffffffffffffffffffffffffff1681565b6000809054906101000a900473ffffffffffffffffffffffffffffffffffffffff1673ffffffffffffffffffffffffffffffffffffffff163373ffffffffffffffffffffffffffffffffffffffff1614151561096157600080fd5b81600160006101000a81548173ffffffffffffffffffffffffffffffffffffffff021916908373ffffffffffffffffffffffffffffffffffffffff16021790555080600260006101000a81548173ffffffffffffffffffffffffffffffffffffffff021916908373ffffffffffffffffffffffffffffffffffffffff1602179055506001600260146101000a81548160ff0219169083151502179055505050565b60008060009054906101000a900473ffffffffffffffffffffffffffffffffffffffff1673ffffffffffffffffffffffffffffffffffffffff163373ffffffffffffffffffffffffffffffffffffffff16141515610a5f57600080fd5b600354905090565b60056020528060005260406000206000915090508060000160009054906101000a900473ffffffffffffffffffffffffffffffffffffffff16908060010160009054906101000a900473ffffffffffffffffffffffffffffffffffffffff16908060020160009054906101000a900473ffffffffffffffffffffffffffffffffffffffff16908060030160009054906101000a900473ffffffffffffffffffffffffffffffffffffffff16908060040154908060050154908060060154908060070154908060080154905089565b60046020528060005260406000206000915054906101000a900473ffffffffffffffffffffffffffffffffffffffff16815600a165627a7a7230582093ec843bff168a006f3dc8b976472cb5a898df0c32a259b1aec8827aab5294640029",
  "source": "pragma solidity ^0.4.23;\r\n\r\n// add all imports for user privileges here\r\n\r\ncontract Share {\r\n\r\n    address private Owner;\r\n    address public Lottery;\r\n    address public Charity;\r\n    bool public initialized = false;\r\n\r\n    // assigns an ID to each donation\r\n    uint private donationID = 1;\r\n\r\n    /// @notice sets the owner to the Owner variable upon contract init\r\n    /// @dev can be expanded to account for many more constructor features\r\n    constructor() public {\r\n        Owner = msg.sender;\r\n    }\r\n\r\n    /// @notice Contains the stucture of the star metadata\r\n    /// @dev key of structure is the provided transaction hash, will be donationId in v2.0\r\n    /// @param owner address, contains the address of the contract owner\r\n    /// @param lottery address, contains the address of the lottery - ether account for v1.0, contract for v2.0\r\n    /// @param charity address, contains the address of the charity - an ether account for v1.0 and v2.0\r\n    /// @param donor address, contains the address of the contract owner - ether account always\r\n    /// @param amount uint, contains the original amount donated - all amounts are after gas\r\n    /// @param charityAmount, contains the remaining 95% of original amount sent to charity\r\n    /// @param lotteryAmount uint, contains the 4% of original amount sent to lottery\r\n    /// @param ownerAmount, contains the 1% of original amount sent to owner\r\n    /// @param donationID, contains the value of the last submitted donation - is returned to ui\r\n\r\n    struct Donation {\r\n        address owner;\r\n        address lottery;\r\n        address charity;\r\n        address donor;\r\n        uint amount;\r\n        uint charityAmount;\r\n        uint lotteryAmount;\r\n        uint ownerAmount;\r\n        uint donationID;\r\n    }\r\n\r\n    /// @notice Contains the mapping for the lottery entrees\r\n    /// @dev\r\n    /// @param donor address, will be expanded for v2.0\r\n\r\n    mapping(address => address) public lotteryEntrees;\r\n\r\n    /// @notice Contains the mapping for donation data\r\n    /// @dev key of structure is the transactionHash, in v2.0 a donationId will be introduced\r\n    /// @param Donation structure, contains donation metadata\r\n\r\n    mapping(uint => Donation) public Donations;\r\n\r\n    /// @notice Initiates the contract once deployed, only available to owner\r\n    /// @dev Need to test the syntax here, unsure the require function works\r\n    /// @param _lottery address, contains the ethereum public key for lottery account\r\n    /// @param _charity address, contains the ethereum public key for charity account\r\n\r\n    function initiateContract(address _lottery, address _charity) public payable{\r\n\r\n        // must test to ensure this works, unsure of syntax\r\n        require(msg.sender == Owner);\r\n\r\n        Lottery = _lottery;\r\n        Charity = _charity;\r\n        initialized = true;\r\n    }\r\n\r\n    /// @notice parent function for all contract functionality\r\n    /// @dev Should consider splitting this out further if necessary by reviewers\r\n\r\n    function makeDonation() public payable{\r\n\r\n        // owner, charity, and lottery accounts cannot utilize the handleFunds function\r\n        require(msg.sender != Owner || msg.sender != Lottery || msg.sender != Charity);\r\n\r\n        // creates the amount variable, used to set the amount later on in this function\r\n        uint amount = msg.value;\r\n        uint charityAmount = amount * 95 / 100;\r\n        uint lotteryAmount = amount * 4 / 100;\r\n        uint ownerAmount = amount * 1 / 100;\r\n\r\n        Charity.transfer(charityAmount);\r\n        Lottery.transfer(lotteryAmount);\r\n\r\n        // dispatches remaining funds to owner, this ensures that all gas is covered\r\n        Owner.transfer(ownerAmount);\r\n\r\n        // stores all the data\r\n        Donations[donationID] = Donation(Owner, Lottery, Charity, msg.sender, amount, charityAmount, lotteryAmount, ownerAmount, donationID);\r\n        \r\n        // updates donationID;\r\n        donationID = donationID + 1;\r\n    }\r\n    \r\n    function fetchDonationID() public view returns (uint){\r\n\r\n        // requires the owner to call this function, only owner address can access donationID atm\r\n        require(msg.sender == Owner);\r\n\r\n        return donationID;\r\n    }\r\n\r\n}\r\n\r\n",
  "sourcePath": "D:\\Documents\\School\\Share\\ethereum\\contracts\\Share.sol",
  "compiler": {
    "name": "solc",
    "version": "0.4.25+commit.59dbf8f1.Emscripten.clang"
  },
  "schemaVersion": "2.0.2",
  "updatedAt": "2019-02-18T23:18:14.342Z"
}