{
  "contractName": "StarNotary",
  "abi": [
    {
      "constant": true,
      "inputs": [
        {
          "name": "",
          "type": "uint256"
        }
      ],
      "name": "starsForSale",
      "outputs": [
        {
          "name": "",
          "type": "uint256"
        }
      ],
      "payable": false,
      "stateMutability": "view",
      "type": "function"
    },
    {
      "constant": true,
      "inputs": [
        {
          "name": "_tokenId",
          "type": "uint256"
        }
      ],
      "name": "getApproved",
      "outputs": [
        {
          "name": "",
          "type": "address"
        }
      ],
      "payable": false,
      "stateMutability": "view",
      "type": "function"
    },
    {
      "constant": false,
      "inputs": [
        {
          "name": "_approved",
          "type": "address"
        },
        {
          "name": "_tokenId",
          "type": "uint256"
        }
      ],
      "name": "approve",
      "outputs": [],
      "payable": true,
      "stateMutability": "payable",
      "type": "function"
    },
    {
      "constant": true,
      "inputs": [
        {
          "name": "",
          "type": "uint256"
        }
      ],
      "name": "tokenIdToStarInfo",
      "outputs": [
        {
          "name": "name",
          "type": "string"
        },
        {
          "name": "story",
          "type": "string"
        },
        {
          "name": "coordsString",
          "type": "string"
        }
      ],
      "payable": false,
      "stateMutability": "view",
      "type": "function"
    },
    {
      "constant": false,
      "inputs": [
        {
          "name": "_from",
          "type": "address"
        },
        {
          "name": "_to",
          "type": "address"
        },
        {
          "name": "_tokenId",
          "type": "uint256"
        }
      ],
      "name": "transferFrom",
      "outputs": [],
      "payable": true,
      "stateMutability": "payable",
      "type": "function"
    },
    {
      "constant": true,
      "inputs": [
        {
          "name": "_tokenId",
          "type": "uint256"
        }
      ],
      "name": "ownerOf",
      "outputs": [
        {
          "name": "",
          "type": "address"
        }
      ],
      "payable": false,
      "stateMutability": "view",
      "type": "function"
    },
    {
      "constant": true,
      "inputs": [
        {
          "name": "_owner",
          "type": "address"
        }
      ],
      "name": "balanceOf",
      "outputs": [
        {
          "name": "",
          "type": "uint256"
        }
      ],
      "payable": false,
      "stateMutability": "view",
      "type": "function"
    },
    {
      "constant": false,
      "inputs": [
        {
          "name": "_tokenId",
          "type": "uint256"
        }
      ],
      "name": "mint",
      "outputs": [],
      "payable": false,
      "stateMutability": "nonpayable",
      "type": "function"
    },
    {
      "constant": false,
      "inputs": [
        {
          "name": "_operator",
          "type": "address"
        },
        {
          "name": "_approved",
          "type": "bool"
        }
      ],
      "name": "setApprovalForAll",
      "outputs": [],
      "payable": false,
      "stateMutability": "nonpayable",
      "type": "function"
    },
    {
      "constant": true,
      "inputs": [
        {
          "name": "_owner",
          "type": "address"
        },
        {
          "name": "_operator",
          "type": "address"
        }
      ],
      "name": "isApprovedForAll",
      "outputs": [
        {
          "name": "",
          "type": "bool"
        }
      ],
      "payable": false,
      "stateMutability": "view",
      "type": "function"
    },
    {
      "anonymous": false,
      "inputs": [
        {
          "indexed": true,
          "name": "_from",
          "type": "address"
        },
        {
          "indexed": true,
          "name": "_to",
          "type": "address"
        },
        {
          "indexed": true,
          "name": "_tokenId",
          "type": "uint256"
        }
      ],
      "name": "Transfer",
      "type": "event"
    },
    {
      "anonymous": false,
      "inputs": [
        {
          "indexed": true,
          "name": "_owner",
          "type": "address"
        },
        {
          "indexed": true,
          "name": "_approved",
          "type": "address"
        },
        {
          "indexed": true,
          "name": "_tokenId",
          "type": "uint256"
        }
      ],
      "name": "Approval",
      "type": "event"
    },
    {
      "anonymous": false,
      "inputs": [
        {
          "indexed": true,
          "name": "_owner",
          "type": "address"
        },
        {
          "indexed": true,
          "name": "_operator",
          "type": "address"
        },
        {
          "indexed": false,
          "name": "_approved",
          "type": "bool"
        }
      ],
      "name": "ApprovalForAll",
      "type": "event"
    },
    {
      "constant": true,
      "inputs": [
        {
          "name": "coordsString",
          "type": "string"
        }
      ],
      "name": "checkIfStarExists",
      "outputs": [
        {
          "name": "",
          "type": "bool"
        }
      ],
      "payable": false,
      "stateMutability": "view",
      "type": "function"
    },
    {
      "constant": false,
      "inputs": [
        {
          "name": "name",
          "type": "string"
        },
        {
          "name": "story",
          "type": "string"
        },
        {
          "name": "dec",
          "type": "string"
        },
        {
          "name": "mag",
          "type": "string"
        },
        {
          "name": "cent",
          "type": "string"
        },
        {
          "name": "tokenId",
          "type": "uint256"
        }
      ],
      "name": "createStar",
      "outputs": [],
      "payable": false,
      "stateMutability": "nonpayable",
      "type": "function"
    },
    {
      "constant": false,
      "inputs": [
        {
          "name": "_tokenId",
          "type": "uint256"
        },
        {
          "name": "_price",
          "type": "uint256"
        }
      ],
      "name": "putStarUpForSale",
      "outputs": [],
      "payable": false,
      "stateMutability": "nonpayable",
      "type": "function"
    },
    {
      "constant": false,
      "inputs": [
        {
          "name": "_tokenId",
          "type": "uint256"
        }
      ],
      "name": "buyStar",
      "outputs": [],
      "payable": true,
      "stateMutability": "payable",
      "type": "function"
    }
  ],
  "bytecode": "0x608060405234801561001057600080fd5b506118d3806100206000396000f3006080604052600436106100d0576000357c0100000000000000000000000000000000000000000000000000000000900463ffffffff1680630564b130146100d5578063081812fc14610116578063095ea7b3146101835780631967fd98146101c357806323b872dd146103415780632f1c34ef146103a1578063316a4361146103c15780635afb4248146103f85780636352211e1461047957806370a08231146104e6578063a0712d681461053d578063a22cb4651461056a578063b250ced0146105b9578063e985e9c514610744575b600080fd5b3480156100e157600080fd5b50610100600480360381019080803590602001909291905050506107bf565b6040518082815260200191505060405180910390f35b34801561012257600080fd5b50610141600480360381019080803590602001909291905050506107d7565b604051808273ffffffffffffffffffffffffffffffffffffffff1673ffffffffffffffffffffffffffffffffffffffff16815260200191505060405180910390f35b6101c1600480360381019080803573ffffffffffffffffffffffffffffffffffffffff16906020019092919080359060200190929190505050610814565b005b3480156101cf57600080fd5b506101ee60048036038101908080359060200190929190505050610931565b60405180806020018060200180602001848103845287818151815260200191508051906020019080838360005b8381101561023657808201518184015260208101905061021b565b50505050905090810190601f1680156102635780820380516001836020036101000a031916815260200191505b50848103835286818151815260200191508051906020019080838360005b8381101561029c578082015181840152602081019050610281565b50505050905090810190601f1680156102c95780820380516001836020036101000a031916815260200191505b50848103825285818151815260200191508051906020019080838360005b838110156103025780820151818401526020810190506102e7565b50505050905090810190601f16801561032f5780820380516001836020036101000a031916815260200191505b50965050505050505060405180910390f35b61039f600480360381019080803573ffffffffffffffffffffffffffffffffffffffff169060200190929190803573ffffffffffffffffffffffffffffffffffffffff16906020019092919080359060200190929190505050610b23565b005b6103bf60048036038101908080359060200190929190505050610be1565b005b3480156103cd57600080fd5b506103f66004803603810190808035906020019092919080359060200190929190505050610d89565b005b34801561040457600080fd5b5061045f600480360381019080803590602001908201803590602001908080601f0160208091040260200160405190810160405280939291908181526020018383808284378201915050505050509192919290505050610e88565b604051808215151515815260200191505060405180910390f35b34801561048557600080fd5b506104a460048036038101908080359060200190929190505050610f1e565b604051808273ffffffffffffffffffffffffffffffffffffffff1673ffffffffffffffffffffffffffffffffffffffff16815260200191505060405180910390f35b3480156104f257600080fd5b50610527600480360381019080803573ffffffffffffffffffffffffffffffffffffffff169060200190929190505050610f5a565b6040518082815260200191505060405180910390f35b34801561054957600080fd5b5061056860048036038101908080359060200190929190505050611047565b005b34801561057657600080fd5b506105b7600480360381019080803573ffffffffffffffffffffffffffffffffffffffff169060200190929190803515159060200190929190505050611240565b005b3480156105c557600080fd5b50610742600480360381019080803590602001908201803590602001908080601f0160208091040260200160405190810160405280939291908181526020018383808284378201915050505050509192919290803590602001908201803590602001908080601f0160208091040260200160405190810160405280939291908181526020018383808284378201915050505050509192919290803590602001908201803590602001908080601f0160208091040260200160405190810160405280939291908181526020018383808284378201915050505050509192919290803590602001908201803590602001908080601f0160208091040260200160405190810160405280939291908181526020018383808284378201915050505050509192919290803590602001908201803590602001908080601f016020809104026020016040519081016040528093929190818152602001838380828437820191505050505050919291929080359060200190929190505050611341565b005b34801561075057600080fd5b506107a5600480360381019080803573ffffffffffffffffffffffffffffffffffffffff169060200190929190803573ffffffffffffffffffffffffffffffffffffffff169060200190929190505050611601565b604051808215151515815260200191505060405180910390f35b60066020528060005260406000206000915090505481565b60006002600083815260200190815260200160002060009054906101000a900473ffffffffffffffffffffffffffffffffffffffff169050919050565b3373ffffffffffffffffffffffffffffffffffffffff1660008083815260200190815260200160002060009054906101000a900473ffffffffffffffffffffffffffffffffffffffff1673ffffffffffffffffffffffffffffffffffffffff1614151561088057600080fd5b816002600083815260200190815260200160002060006101000a81548173ffffffffffffffffffffffffffffffffffffffff021916908373ffffffffffffffffffffffffffffffffffffffff160217905550808273ffffffffffffffffffffffffffffffffffffffff163373ffffffffffffffffffffffffffffffffffffffff167f8c5be1e5ebec7d5bd14f71427d1e84f3dd0314c0f7b2291e5b200ac8c7c3b92560405160405180910390a45050565b6005602052806000526040600020600091509050806000018054600181600116156101000203166002900480601f0160208091040260200160405190810160405280929190818152602001828054600181600116156101000203166002900480156109dd5780601f106109b2576101008083540402835291602001916109dd565b820191906000526020600020905b8154815290600101906020018083116109c057829003601f168201915b505050505090806001018054600181600116156101000203166002900480601f016020809104026020016040519081016040528092919081815260200182805460018160011615610100020316600290048015610a7b5780601f10610a5057610100808354040283529160200191610a7b565b820191906000526020600020905b815481529060010190602001808311610a5e57829003601f168201915b505050505090806002018054600181600116156101000203166002900480601f016020809104026020016040519081016040528092919081815260200182805460018160011615610100020316600290048015610b195780601f10610aee57610100808354040283529160200191610b19565b820191906000526020600020905b815481529060010190602001808311610afc57829003601f168201915b5050505050905083565b338160008082815260200190815260200160002060009054906101000a900473ffffffffffffffffffffffffffffffffffffffff1673ffffffffffffffffffffffffffffffffffffffff168273ffffffffffffffffffffffffffffffffffffffff161480610bc457508173ffffffffffffffffffffffffffffffffffffffff16610bac826107d7565b73ffffffffffffffffffffffffffffffffffffffff16145b1515610bcf57600080fd5b610bda858585611695565b5050505050565b60008060006006600085815260200190815260200160002054111515610c0657600080fd5b600660008481526020019081526020016000205491503073ffffffffffffffffffffffffffffffffffffffff16636352211e846040518263ffffffff167c010000000000000000000000000000000000000000000000000000000002815260040180828152602001915050602060405180830381600087803b158015610c8b57600080fd5b505af1158015610c9f573d6000803e3d6000fd5b505050506040513d6020811015610cb557600080fd5b81019080805190602001909291905050509050813410151515610cd757600080fd5b610ce083611793565b610ceb813385611695565b81341115610d3d573373ffffffffffffffffffffffffffffffffffffffff166108fc8334039081150290604051600060405180830381858888f19350505050158015610d3b573d6000803e3d6000fd5b505b8073ffffffffffffffffffffffffffffffffffffffff166108fc839081150290604051600060405180830381858888f19350505050158015610d83573d6000803e3d6000fd5b50505050565b3373ffffffffffffffffffffffffffffffffffffffff163073ffffffffffffffffffffffffffffffffffffffff16636352211e846040518263ffffffff167c010000000000000000000000000000000000000000000000000000000002815260040180828152602001915050602060405180830381600087803b158015610e0f57600080fd5b505af1158015610e23573d6000803e3d6000fd5b505050506040513d6020811015610e3957600080fd5b810190808051906020019092919050505073ffffffffffffffffffffffffffffffffffffffff16141515610e6c57600080fd5b8060066000848152602001908152602001600020819055505050565b60006004826040518082805190602001908083835b602083101515610ec25780518252602082019150602081019050602083039250610e9d565b6001836020036101000a038019825116818451168082178552505050505050905001915050908152602001604051809103902060030160009054906101000a900460ff1615610f145760019050610f19565b600090505b919050565b600080600083815260200190815260200160002060009054906101000a900473ffffffffffffffffffffffffffffffffffffffff169050919050565b60008073ffffffffffffffffffffffffffffffffffffffff168273ffffffffffffffffffffffffffffffffffffffff1614151515611000576040517f08c379a00000000000000000000000000000000000000000000000000000000081526004018080602001828103825260208152602001807f43616e6e6f742061736b20666f7220796f7572206f776e2062616c616e63652181525060200191505060405180910390fd5b600160008373ffffffffffffffffffffffffffffffffffffffff1673ffffffffffffffffffffffffffffffffffffffff168152602001908152602001600020549050919050565b600073ffffffffffffffffffffffffffffffffffffffff1660008083815260200190815260200160002060009054906101000a900473ffffffffffffffffffffffffffffffffffffffff1673ffffffffffffffffffffffffffffffffffffffff16141515611143576040517f08c379a000000000000000000000000000000000000000000000000000000000815260040180806020018281038252602b8152602001807f5468697320746f6b656e20616c72656164792062656c6f6e677320746f20736f81526020017f6d656f6e6520656c73652100000000000000000000000000000000000000000081525060400191505060405180910390fd5b3360008083815260200190815260200160002060006101000a81548173ffffffffffffffffffffffffffffffffffffffff021916908373ffffffffffffffffffffffffffffffffffffffff16021790555060018060003373ffffffffffffffffffffffffffffffffffffffff1673ffffffffffffffffffffffffffffffffffffffff16815260200190815260200160002060008282540192505081905550803373ffffffffffffffffffffffffffffffffffffffff16600073ffffffffffffffffffffffffffffffffffffffff167fddf252ad1be2c89b69c2b068fc378daa952ba7f163c4a11628f55a4df523b3ef60405160405180910390a450565b80600360003373ffffffffffffffffffffffffffffffffffffffff1673ffffffffffffffffffffffffffffffffffffffff16815260200190815260200160002060008473ffffffffffffffffffffffffffffffffffffffff1673ffffffffffffffffffffffffffffffffffffffff16815260200190815260200160002060006101000a81548160ff0219169083151502179055508173ffffffffffffffffffffffffffffffffffffffff163373ffffffffffffffffffffffffffffffffffffffff167f17307eab39ab6107e8899845ad3d59bd9653f200f220920489ca2b5937696c3183604051808215151515815260200191505060405180910390a35050565b60608484846040516020018084805190602001908083835b60208310151561137e5780518252602082019150602081019050602083039250611359565b6001836020036101000a03801982511681845116808217855250505050505090500183805190602001908083835b6020831015156113d157805182526020820191506020810190506020830392506113ac565b6001836020036101000a03801982511681845116808217855250505050505090500182805190602001908083835b60208310151561142457805182526020820191506020810190506020830392506113ff565b6001836020036101000a03801982511681845116808217855250505050505090500193505050506040516020818303038152906040529050606060405190810160405280888152602001878152602001828152506005600084815260200190815260200160002060008201518160000190805190602001906114a7929190611802565b5060208201518160010190805190602001906114c4929190611802565b5060408201518160020190805190602001906114e1929190611802565b50905050608060405190810160405280868152602001858152602001848152602001600115158152506004826040518082805190602001908083835b602083101515611542578051825260208201915060208101905060208303925061151d565b6001836020036101000a03801982511681845116808217855250505050505090500191505090815260200160405180910390206000820151816000019080519060200190611591929190611802565b5060208201518160010190805190602001906115ae929190611802565b5060408201518160020190805190602001906115cb929190611802565b5060608201518160030160006101000a81548160ff0219169083151502179055509050506115f882611047565b50505050505050565b6000600360008473ffffffffffffffffffffffffffffffffffffffff1673ffffffffffffffffffffffffffffffffffffffff16815260200190815260200160002060008373ffffffffffffffffffffffffffffffffffffffff1673ffffffffffffffffffffffffffffffffffffffff16815260200190815260200160002060009054906101000a900460ff16905092915050565b8160008083815260200190815260200160002060006101000a81548173ffffffffffffffffffffffffffffffffffffffff021916908373ffffffffffffffffffffffffffffffffffffffff16021790555060018060008573ffffffffffffffffffffffffffffffffffffffff1673ffffffffffffffffffffffffffffffffffffffff16815260200190815260200160002060008282540392505081905550808273ffffffffffffffffffffffffffffffffffffffff168473ffffffffffffffffffffffffffffffffffffffff167fddf252ad1be2c89b69c2b068fc378daa952ba7f163c4a11628f55a4df523b3ef60405160405180910390a4505050565b60006002600083815260200190815260200160002060006101000a81548173ffffffffffffffffffffffffffffffffffffffff021916908373ffffffffffffffffffffffffffffffffffffffff1602179055506000600660008381526020019081526020016000208190555050565b828054600181600116156101000203166002900490600052602060002090601f016020900481019282601f1061184357805160ff1916838001178555611871565b82800160010185558215611871579182015b82811115611870578251825591602001919060010190611855565b5b50905061187e9190611882565b5090565b6118a491905b808211156118a0576000816000905550600101611888565b5090565b905600a165627a7a72305820b021c59e9d5ee81935531f5050103d95961086e277937865fac61a4be15dd1d60029",
  "source": "pragma solidity ^0.4.23;\r\n\r\nimport './ERC721Token.sol';\r\n\r\ncontract StarNotary is ERC721Token { \r\n\r\n    // defines the additional metadata we need for a star\r\n    // the struct callback is similar to a json schema\r\n    // more here: https://solidity.readthedocs.io/en/v0.4.24/structure-of-a-contract.html#struct-types\r\n    \r\n    /// @notice Contains the stucture of the star coordinates\r\n    /// @dev key of structure is the string of the combined star coordinates\r\n    /// @param dec string, contains dec meta data\r\n    /// @param mag string, contains mag meta data\r\n    /// @param cent string, contains cent meta data\r\n\r\n    struct Coordinates {\r\n        string dec;\r\n        string mag;\r\n        // this property MAY be wrong, COULD be ra but project rubric is unclear\r\n        string cent;\r\n        // helpful for checking existence\r\n        bool exist;\r\n    }\r\n\r\n    /// @notice Contains the stucture of the star metadata\r\n    /// @dev key of structure is the provided tokenId - this logic could be improved\r\n    /// @param name string, contains star name\r\n    /// @param story string, contains star story\r\n    /// @param coordString string, contains unique coordinate string, composed of all coordinates\r\n    /// @param coord mapping, argument is coordString, contain Coordinates structure\r\n\r\n    struct Star {\r\n        // contains the name of the star, not necessary for the project but cool\r\n        string name;\r\n\r\n        // contains the story \r\n        string story;\r\n\r\n        // this contains a unique string that joins dec, mag, and cent into a string to create uniqueness\r\n        string coordsString;\r\n    }\r\n\r\n    /// @notice Contains the mapping for the coordinates data\r\n    /// @dev key of structure is the merged coordinates string, this was fragmented out of the Star structure to simplify checkIfStarExists()\r\n    /// @param Star structure, contains star metadata \r\n\r\n    mapping ( string => Coordinates) coords;\r\n\r\n    /// @notice Contains the mapping for the star data\r\n    /// @dev key of structure is the provided tokenId - this logic could be improved\r\n    /// @param Star structure, contains star metadata \r\n\r\n    mapping(uint256 => Star) public tokenIdToStarInfo;\r\n\r\n    /// @notice Contains the mapping for available stars for sale\r\n    /// @dev key of structure is the provided tokenId - this logic could be improved\r\n    /// @param tokenId uint256, contains tokenId\r\n\r\n    mapping(uint256 => uint256) public starsForSale;\r\n\r\n    /// super important to note that these comments affect the actual TESTING output\r\n    /// @notice Checks if a star exists \r\n    /// @dev may need to tweak further with the actual data\r\n    /// @param coordsString string, contains star name\r\n    /// @return boolean, true if star exists, false if it doesnt\r\n    \r\n    function checkIfStarExists(string coordsString) public view returns(bool){\r\n        \r\n        // checks if star exists, returns true if it does\r\n        if(coords[coordsString].exist){\r\n            return true;\r\n        }\r\n\r\n        // returns false if \r\n        return false;\r\n    }\r\n\r\n    /// @notice Handles the creation of a star, and its metadata logic, could be refactored into several more functions\r\n    /// @dev extremely logic heavy, need to introduce gradual improvements. Writes star metadat to stars, enforces uniqueness, ensures no existing stars (by token or by coordinates) are allowed \r\n    /// @param name string, contains star name\r\n    /// @param story string, contains star story\r\n    /// @param dec string, contains dec meta data\r\n    /// @param mag string, contains mag meta data\r\n    /// @param cent string, contains cent meta data \r\n    /// @param tokenId number, contains tokenId - logic could be improved \r\n\r\n    function createStar(string name, string story, string dec, string mag, string cent, uint256 tokenId) public {\r\n\r\n        // creates unique coord string from the dec, string, and cent functions, could be split into more functions\r\n        // more on the used function here: https://ethereum.stackexchange.com/questions/729/how-to-concatenate-strings-in-solidity\r\n        string memory coordsString = string(abi.encodePacked(dec,mag,cent));\r\n\r\n        // saves the new star name under the tokenId\r\n        tokenIdToStarInfo[tokenId] = Star( name, story, coordsString);\r\n        \r\n        // saves the new coordinates under the coordsString\r\n        coords[coordsString] = Coordinates(dec, mag, cent, true);\r\n\r\n        // calls the mint function established in earlier lessons, mega cool\r\n        ERC721Token.mint(tokenId);\r\n    }\r\n\r\n    // puts a star up for sale, with the tokenId and the price\r\n    function putStarUpForSale(uint256 _tokenId, uint256 _price) public {\r\n\r\n        // requires that ownly the owner of the token can run this function\r\n        require(this.ownerOf(_tokenId) == msg.sender);\r\n\r\n        // adds the star to the starsForSale mapping via tokenId and sets the price\r\n        starsForSale[_tokenId] = _price;\r\n    }\r\n\r\n    // checks if the price for that star has been defined, marking it as for sale\r\n    function buyStar(uint256 _tokenId) public payable{\r\n\r\n        // requires that the star has been added to the starsForSale array\r\n        // checks price is greater than 0, ensuring star is for sale\r\n        require(starsForSale[_tokenId] > 0 );\r\n\r\n        // grabs _price value from mapping, saves into starCost variable\r\n        uint256 starCost = starsForSale[_tokenId];\r\n\r\n        // grabs the address of the star owner, but using the .ownerOf function\r\n        address starOwner = this.ownerOf(_tokenId);\r\n\r\n        // requires the value passed with the transaction to be equal to or greater than the star value\r\n        // to purchase the star\r\n        require(msg.value >= starCost);\r\n\r\n        // this clears the previous star state, removing the star from the starsForSale array\r\n        // also clearing a ton of ERC721 authentication values necessary for the sale to process\r\n        clearPreviousStarState(_tokenId);\r\n\r\n        // uses the transferFrom helper from ERC721Token\r\n        // expects ownerAddress, receiverAddress, and tokenId\r\n        transferFromHelper(starOwner, msg.sender, _tokenId);\r\n\r\n        // ensures that if the transaction value is greater than the starCost, returns extra to sender\r\n        if(msg.value > starCost){\r\n\r\n            // transfers the cost back to the sender, very helpful util!\r\n            msg.sender.transfer(msg.value - starCost);\r\n\r\n        }\r\n\r\n        // rewards the starOwner with the value of the price, after the star is sold\r\n        starOwner.transfer(starCost);\r\n    }\r\n\r\n    // private functions cannot be called outside of the contract, can only be invoked and used by\r\n    // functions in the contract\r\n    function clearPreviousStarState(uint256 _tokenId ) private{\r\n        // clears approvals of token transfer permission following the ERC721 protocol\r\n        tokenToApproved[_tokenId] = 0;\r\n\r\n        // removes from starsForSale array\r\n        starsForSale[_tokenId] = 0;\r\n    }\r\n\r\n}",
  "sourcePath": "D:\\Documents\\School\\Udacity\\blockchains\\part4\\project5\\smart_contracts\\contracts\\StarNotary.sol",
  "compiler": {
    "name": "solc",
    "version": "0.4.24+commit.e67f0147.Emscripten.clang"
  },
  "schemaVersion": "2.0.1",
  "updatedAt": "2018-10-09T03:09:20.008Z"
}